:020000040800F2
:10000000700900203902000841020008430200087C
:1000100045020008470200084902000800000000ED
:100020000000000000000000000000004B0200087B
:100030004D020008000000004F020008890D000872
:10004000530200085302000853020008530200083C
:1000500053020008530200085D0700082108000849
:1000600045080008690800088D08000853020008C8
:10007000530200085302000853020008530200080C
:1000800053020008530200085302000853020008FC
:10009000530200085302000853020008B108000888
:1000A000530200086D0E00085302000853020008B6
:1000B0009D0E0008C90E0008F90E00085302000842
:1000C00053020008530200085302000853020008BC
:1000D00053020008391400084514000851140008A0
:1000E0008107000853020008530200085302000869
:1000F000890F000853020008530200085302000849
:100100005302000853020008290F00085302000898
:10011000530200085302000853020008590F000858
:10012000530200085302000853020008530200085B
:10013000530200085302000853020008530200084B
:10014000530200085302000853020008530200083B
:10015000530200085302000853020008530200082B
:10016000530200085302000853020008530200081B
:10017000530200085302000853020008530200080B
:10018000530200085302000800F002F800F045F89E
:100190000AA090E8000C82448344AAF10107DA45E2
:1001A00001D100F03AF8AFF2090EBAE80F0013F0EF
:1001B000010F18BFFB1A43F001031847A01F0000EE
:1001C000C01F0000103A24BF78C878C1FAD852077F
:1001D00024BF30C830C144BF04680C6070470000C1
:1001E0000023002400250026103A28BF78C1FBD840
:1001F000520728BF30C148BF0B6070471FB501F0E0
:100200000DFA9DE8030000F0ABF800F077F81FBD91
:1002100010B5002000F002F910BD00F059F91146A8
:10022000FFF7ECFF01F0DCF900F077F903B4FFF71A
:10023000EFFF03BC00F046F9094880470948004732
:10024000FEE7FEE7FEE7FEE7FEE7FEE7FEE7FEE786
:10025000FEE7FEE704480549054A064B70470000E3
:10026000110E0008890100087003002070090020A9
:10027000700500207005002070B50446051F00F0D1
:100280004FF80068002C14BF446870BD002C18BFE4
:10029000AC423CBF20466468F8D301680A18AA4201
:1002A00018BF456003D12A680546114401602868DB
:1002B0004119A1421CBF6C6070BD61686960216812
:1002C0000844286070BD2DE9F041074615460E46EA
:1002D000102000F074F804000AD06760C4E90265D9
:1002E00000F022F80168216004600020BDE8F08180
:1002F0000120FBE7704770477047000070B5064C5F
:100300007C44064D7D4403E0206820448047241D42
:10031000AC42F9D170BD0000781E0000801E0000C4
:100320000048704718030020004870474803002029
:10033000704770477047704738B504460A4600203A
:100340006946AFF30080002808BF38BD0246009917
:10035000204600F090F8012038BD012000F0AAB836
:10036000F8B5AFF30080054600200C46102000BF12
:100370000646A819A0420DD9324669460020AFF3BF
:100380000080070008BF00F095F80098A04218BF51
:100390000546C419FFF7C4FF05600746F01D20F0AD
:1003A00007004619284600F05FF8B44208BFF8BDC0
:1003B000A21B31463868BDE8F84000F05CB870B563
:1003C0000646FFF7ADFF056806F10B0020F00704B5
:1003D000B4429CBF002070BD2B466A68BAB1106859
:1003E000A04210D304F1080188423CBF5068586015
:1003F00007D35168101941601168091B01605860EA
:100400001460101D70BD13465268002AE7D12146C2
:100410002846FFF791FF0028DED170BD2DE9F0419D
:100420000646FFF781FF8046454613E016B1E068B7
:10043000B0420ED120682860D4E90101D8F80070DC
:1004400088472046FFF718FFD8F80000B842EBD1E4
:1004500000E025462C68002CE8D1BDE8F0810000C2
:10046000004870471003002000210160C0E901101E
:10047000704710207047034640688C46002818BF1C
:1004800088423CBF03464068F8D318681844884245
:1004900007D00CF1030020F00700001D411A521A8A
:1004A0000146081D0A60FFF7E7BE002801D000F0F2
:1004B00009B8704710B500F053F8BDE81040FFF7D9
:1004C000F4BF000001491820ABBEFEE72600020081
:1004D0007546FFF7C5FFAE4605006946534620F056
:1004E0000700854618B020B5FFF7B4FEBDE82040F0
:1004F0004FF000064FF000074FF000084FF0000BE0
:1005000021F00701AC46ACE8C009ACE8C009ACE892
:10051000C009ACE8C0098D46704710B50446AFF37A
:1005200000802046BDE81040FFF780BE70B505464C
:100530000C460A2000E06D1C00F03AF835B128782E
:100540000028F8D102E0641C00F032F814B12078E1
:100550000028F8D1BDE870400A2000F029B800005A
:1005600010B5012805D0002103A0FFF7DFFF01200F
:1005700010BD09A1F8E7000053494752544D454DBD
:100580003A204F7574206F662068656170206D6534
:100590006D6F7279000000003A2048656170206D2F
:1005A000656D6F727920636F727275707465640027
:1005B00008B569468DF800000320ABBE08BD704742
:1005C0000029816802D041F0010101E021F0010120
:1005D00081607047084B10B5D3F8042307490A40DF
:1005E000D0E900142143D0E90240044321431143E0
:1005F000C3F8041310BD000000200140E030FCFFF0
:1006000030B542680F4B0C791A400B6842EA04225D
:100610001343436082680C4B4D791A40D1E9034380
:1006200023438C6844EA4504234313438360C26A2E
:10063000097D22F47002491EC9B242EA0151C16229
:1006400030BD0000FFFEFFFCFDF7FFC010B5032129
:10065000002000F0CDFF0321012000F0C9FF03219D
:10066000022000F0C5FF0321084600F0C1FF03216E
:10067000042000F0BDFF0321052000F0B9FF032195
:10068000062000F0B5FF0321BDE81040072000F070
:10069000AFBF000030B58BB00546FFF7D7FF1B4852
:1006A000854202D1002184150AE01948854202D111
:1006B0000021441504E01748854208D100210415A3
:1006C000204600F0FBFA0121204600F0EBFA00245E
:1006D00006944FF480300994CDE9070406A8FFF78B
:1006E00079FF009401208DF804408DF814008DF8F6
:1006F00005400294049469462846FFF781FF0121D2
:100700002846FFF75DFF0BB030BD00000020014020
:10071000002101400022014070B500F03DFB0E4871
:100720004FF47A714FF0FF350068B0FBF1F1491ECC
:10073000B1F1807F0AD24FF0E02461610F21284699
:1007400000F0FEFE0020A061072020612846BDE8E1
:100750007040002100F0F4BE0400002010B501201C
:1007600000F0EAF8002808D00448006800B180478B
:10077000BDE81040012000F0D9B810BD980200205B
:1007800070B54FF48065284600F0D6F8234C28B1A8
:10079000A16A01B18847284600F0C8F84FF4006507
:1007A000284600F0C9F828B1E16A01B18847284617
:1007B00000F0BCF84FF48055284600F0BDF828B191
:1007C000216B01B18847284600F0B0F84FF400557E
:1007D000284600F0B1F828B1616B01B1884728467E
:1007E00000F0A4F84FF48045284600F0A5F828B1A1
:1007F000A16B01B18847284600F098F84FF40045F6
:10080000284600F099F8002807D0E16B01B188472D
:100810002846BDE8704000F089B870BD98020020FD
:1008200010B5022000F088F8002808D0044840687D
:1008300000B18047BDE81040022000F077B810BD3D
:100840009802002010B5042000F076F8002808D0A7
:100850000448806800B18047BDE81040042000F0E3
:1008600065B810BD9802002010B5082000F064F8AB
:10087000002808D00448C06800B18047BDE8104097
:10088000082000F053B810BD9802002010B51020C9
:1008900000F052F8002808D00448006900B18047F1
:1008A000BDE81040102000F041B810BD98020020B3
:1008B00070B5202000F040F81B4C28B1606900B1F1
:1008C0008047202000F032F8402000F035F828B1B1
:1008D000A06900B18047402000F028F8802000F097
:1008E0002BF828B1E06900B18047802000F01EF8A5
:1008F0004FF48075284600F01FF828B1216A01B135
:100900008847284600F012F84FF40075284600F09A
:1009100013F8002807D0616A01B188472846BDE86E
:10092000704000F003B870BD9802002001490860D3
:1009300070470000143C0140034A01460020126841
:100940000A4200D001207047143C0140F0B500235A
:10095000012403270D6804FA03F21540954242D1A1
:10096000D0F800C05E0007FA06F52CEA050CC0F8C6
:1009700000C091F804C0D0F800E00CFA06FC4CEA84
:100980000E0CC0F800C091F804C0BCF1010F02D0F9
:10099000BCF1020F1FD1D0F808C02CEA050CC0F83A
:1009A00008C091F805C0D0F808E00CFA06FC4CEA43
:1009B0000E0CC0F808C0D0F804C02CEA020CC0F835
:1009C00004C0426891F806C00CFA03FC1FFA8CFCC4
:1009D00042EA0C024260C268AA43C260CA79C56892
:1009E000B2402A43C2605B1C102BB3D3F0BD4B074F
:1009F000DB0E9A40C90810B500EB8100016A0F2494
:100A00009C40A1430162016A1143016210BD0000D4
:100A10002DE9FC4104463448844201D1012030E0F4
:100A20003248844201D102202BE03148844201D176
:100A3000042026E02F48844201D1082021E02E48DE
:100A4000844201D110201CE02C48844201D1202096
:100A500017E02B48844201D1402012E0294884420B
:100A600001D180200DE02848844201D1801508E0A2
:100A70002648844201D1401503E02548844230D104
:100A8000001562B1012A0CD0022A0DD0032A0ED023
:100A9000042A0ED0052A0ED0062A0FD011E0002617
:100AA0000EE0002601250CE00026022509E00326C1
:100AB00006E0012603E00126374601E00226002772
:100AC00000258DF804608DF8053000918DF80670D2
:100AD0008DF80750012100F0CDF869462046FFF758
:100AE00035FFBDE8FC810000000002400004024028
:100AF00000080240000C02400010024000140240B6
:100B000000180240001C0240002002400024024065
:100B100000280240002102E04008491C89B2012857
:100B2000FAD8C8B270470000024901EB0010808972
:100B3000FFF7F0BF281600081C4A014602EB01111E
:100B40001B4B49680020CA1A994217D018DC194B70
:100B5000A1EB0302994209D00ADCB1F1804F22D007
:100B6000154A891802D0B1F5806F00D10220704774
:100B7000B2F5406F02D0B2F5805FF8D1092070471E
:100B8000B2F5903F0DD006DCB2F5604F0BD0B2F558
:100B9000644FF4D105E0B2F5923F02D0B2F5943F34
:100BA000EDD103207047012070470000281600088F
:100BB00000200040000C004000FCFFBF2DE9F04782
:100BC00006462548174600EB06150C46686858B1DE
:100BD000A87B48B144B13FB1DFF8808004FB07F047
:100BE000D8F80010884202D90020BDE8F08706211D
:100BF000304600F0FDFC3046FFF79EFF8146304650
:100C0000FFF792FF01464A462868FFF7F0FED8F842
:100C100000002646B0FBF6F0B0FBF7F41049686818
:100C200088420CD00F49884209D00F49884206D02B
:100C30000E49884203D00E49884200D06408002142
:100C400000F0CBF9641E761EAB7BA2B2B1B268682D
:100C500000F020FBA87BC8E728160008040000204D
:100C600000000140000401400040014000440140F8
:100C700000480140044A0029116801D0014300E006
:100C8000814311607047000030380240044A002957
:100C9000116801D0014300E08143116070470000FA
:100CA00040380240044A0029116801D0014300E0A5
:100CB000814311607047000044380240044A002913
:100CC000116801D0014300E08143116070470000CA
:100CD000243802400CB500202749019000900A6892
:100CE00042F480320A604FF4A0430A6802F40032F2
:100CF0000092019A521C0192009A12B9019A9A42EA
:100D0000F3D10A68920334D5012000901A4840308C
:100D1000026842F0805202601848026842F4404281
:100D200002601548083002680260026842F400421E
:100D30000260026842F4A0520260031F104A1A6067
:100D40000A6842F080720A600A689201FCD50D4A76
:100D500040F205711160016821F003010160016832
:100D600041F0020101600168C1F381010229FAD159
:100D70000CBD00900CBD0000003802400070004027
:100D800008544007003C024002480168491C0160C9
:100D9000704700000000002070B51A4C20681A4A05
:100DA00010F00C01194804D05510042903D008296B
:100DB00003D002601BE0056019E01249091F0B68AF
:100DC000C3F380560B6803F03F0316B1B5FBF3F293
:100DD00001E0B2FBF3F20B680968C3F388135A43CE
:100DE000C1F30141491C4900B2FBF1F101602168E6
:100DF000064AC1F30311121D515C0268CA40026029
:100E000070BD0000083802400024F40004000020F7
:100E1000124810B5016841F4700101601048016882
:100E200041F0010101600E4A0021083211600268A0
:100E30000C4B1A400260031D0B4A1A60026822F430
:100E40008022026006480C300160FFF743FF03492F
:100E50004FF000608039086010BD000088ED00E0B0
:100E600000380240FFFFF6FE1030002410B5094C98
:100E70000121204600F0C6F8002809D00648016884
:100E800001B188472046BDE81040012100F0A2B81A
:100E900010BD000000000140D802002010B5012163
:100EA0008C07204600F0AEF8002809D005484168BC
:100EB00001B188472046BDE81040012100F08AB802
:100EC00010BD0000D802002010B5094C01212046B9
:100ED00000F098F8002809D00648816801B18847D9
:100EE0002046BDE81040012100F074B810BD00009C
:100EF00000040040D802002010B5094C0121204612
:100F000000F080F8002809D00648C16801B1884780
:100F10002046BDE81040012100F05CB810BD000083
:100F200000080040D802002010B5094C01212046DD
:100F300000F068F8002809D00648016901B1884727
:100F40002046BDE81040012100F044B810BD00006B
:100F5000000C0040D802002010B5094C01212046A9
:100F600000F050F8002809D00648816901B188478F
:100F70002046BDE81040012100F02CB810BD000053
:100F800000140040D802002070B50F4D0121284602
:100F900000F038F80D4C30B1E16901B1884701210A
:100FA000284600F017F80A4D0121284600F02AF8DB
:100FB000002808D0216B01B188472846BDE8704061
:100FC000012100F007B870BD00040140D8020020E4
:100FD000001C0040C943018270470029018802D0EB
:100FE00041F0010101E021F0010101807047002979
:100FF00030F8441F02D041F4004101E0C1F30E017A
:101000000180704702460020138A92890B4202EA4F
:10101000010202D0002A00D00120704730B5028CB6
:1010200022F001020284028C8388048B22F00202E7
:1010300024F073050C882C438D8915434A882A4374
:101040000C4DA84202D00C4DA8420DD122F008054B
:10105000CA8923F440732A4322F004058A882A436C
:101060000D8A1D434B8A2B43838004838968416327
:10107000028430BD0000014000040140028B22F0D8
:1010800008020A430283704770B5028C22F01002F6
:101090000284028C8488038B0D8823F4E6464FF685
:1010A000FF7303EA052535438E8922F0200203EA07
:1010B000061616434A8803EA02123243104EB04223
:1010C00002D0104EB04215D122F08006CA8924F415
:1010D000406403EA0212324322F040068A8803EA9F
:1010E000021232430E8A03EA860626434C8A03EA3A
:1010F000840434438480058389688163028470BDDD
:101100000000014000040140028B4FF6FF7322F4FF
:10111000006203EA012111430183704770B5028C1C
:1011200022F480720284028C8488838B0D8823F0E1
:1011300073031D4322F400738E894FF6FF7202EA97
:1011400006261E434B8802EA03233343104EB04267
:1011500002D0104EB04215D123F40066CB8924F49E
:10116000405402EA0323334323F480668B8802EA67
:10117000032333430E8A02EA061626434C8A02EA08
:1011800004143443848085838968C163038470BDFB
:101190000000014000040140828B22F008020A4353
:1011A0008283704770B5028C22F480520284048CD2
:1011B0008288838B0D8823F4E6464FF6FF7303EA9B
:1011C0000525354324F400568C8903EA043434435E
:1011D0004E8803EA06362643084CA04202D0084C4B
:1011E000A04205D122F480440A8A03EA82122243F3
:1011F0008280858389680164068470BD0000014097
:1012000000040140828B4FF6FF7322F4006203EA70
:10121000012111438183704730B50288164B174C6A
:1012200098420DD0A0420BD0B0F1804F08D0144DA1
:10123000A84205D0134DA84202D0134DA84203D1B5
:1012400022F070054A882A43104DA84206D0104D5E
:10125000A84203D022F440750A892A4302804A68D2
:10126000C2620A880285984201D0A04201D1897ADF
:1012700001860121818230BD00000140000401404F
:101280000004004000080040000C00400010004036
:10129000001400402DE9FF4F5A4D5B4E5B4FDFF8C5
:1012A0007081DFF8709189B092468B460446A8425F
:1012B00002D10121084636E0B4F1804F05D05648EE
:1012C000844205D10121022041E0012108463EE08F
:1012D0005248844202D10121042038E0504884421F
:1012E00002D10121082032E04E48844202D101217E
:1012F00010202CE04C48844202D10121202026E01D
:10130000B44202D1012102200DE0BC4202D10121F0
:10131000080408E0444502D10121480403E04C459B
:1013200004D101218804FFF7BDFC12E03F4884424C
:1013300002D1012140200AE03D48844202D101212E
:10134000802004E03B48844203D101218015FFF74F
:101350009DFC0020ADF814A0ADF81C00ADF81600FF
:10136000CDF818B005A92046FFF756FF7020ADF85C
:1013700000000120ADF802000220ADF80C000C982E
:10138000012806D002280DD0032814D0042823D128
:101390001AE069462046FFF741FE08212046FFF784
:1013A0006DFE19E069462046FFF76EFE08212046D3
:1013B000FFF7AAFE10E069462046FFF7AFFE0821BE
:1013C0002046FFF7E9FE07E069462046FFF7EAFE00
:1013D00008212046FFF716FF01212046FFF7FDFDFB
:1013E000AC4207D0B44205D0BC4203D0444501D042
:1013F0004C4503D101212046FFF7F9FD0DB0BDE8B2
:10140000F08F000000000140000401400040014056
:101410000044014000480140000400400008004032
:10142000000C004000100040001400400018004074
:10143000001C004000200040014800F038B80000C7
:1014400018000020014800F032B80000B40000206D
:10145000014800F02CB80000500100200A0A0121C8
:101460009140C9430180704730B501F01F0201244B
:101470000025C1F3421304FA02F2012B0FD0022B14
:101480000FD0838A4FEA11210088134204FA01F435
:1014900000EA040001D000B10125284630BD83894F
:1014A000F0E7038AEEE78088C0F30800704770B564
:1014B000044640F2255500692946FFF7D5FF00286C
:1014C00018D02069FFF7EFFFC2B2208B618B401C60
:1014D00000F07F00814204D0238B04F11C015A5498
:1014E0002083606900B1804729462069BDE87040CB
:1014F000FFF7B4BF70BD000000224FF47A73C0E95B
:101500000123034B0360C0E9041242830283704746
:101510003021000810B5044C046080F8543080F885
:10152000551080F8562010BD542100080349016071
:10153000002180F8551080F856107047542100089B
:101540000907090E002804DB00F1E02080F80014F0
:10155000704700F00F0000F1E02080F8141D704784
:1015600000B507490748FFF7C7FF064806499C3002
:10157000FFF7C2FF054906485DF804EBFFF7BCBF63
:1015800000100140180000200044004000480040C6
:10159000500100200448054901601C3004490160E5
:1015A0001C300449016070474402002000300140B3
:1015B00000380040003C004010B5002317221621DF
:1015C0000448FFF7A7FFBDE81040034A0349FEF7B0
:1015D0007ABE0000EC010020000000082D15000874
:1015E000FFF79AF80148FFF755F8FEE700200140A1
:1015F00030B407290AD0084A032302EB00100A4638
:1016000084890068214630BCFFF702BA4FF4FA52D1
:1016100030BCD110FFF7D2BA281600084FF0407046
:10162000E1EE100A70470000000002400000004098
:1016300000200140010001000000024000000040C5
:1016400000200140020002010000024000000040B2
:10165000002001400400030200000240000000409E
:1016600000200140080004030000024000000000C8
:1016700000200140100000040000024000000000B3
:10168000002001402000000500000240000400404E
:10169000002001404000010600000240000400401C
:1016A00000200140800002070000024000000140CD
:1016B00000000000000101FF0000024000000140A6
:1016C00000000000000202FF000002400000014094
:1016D00000000000000403FF000002400000014081
:1016E00000000000000804FF0000024000000000AD
:1016F00000000000001000FF000002400000000099
:1017000000000000002000FF000002400000000078
:1017100000000000004000FF000002400000004008
:1017200000000000008001FF0004024000040040AF
:1017300000200140010003080004024000040040B2
:1017400000200140020004090004024000000000E3
:1017500000000000040000FF000402400000004000
:1017600000000000080002FF0004024000040040E6
:1017700000000000100001FF0004024000040040CF
:1017800000000000200002FF0004024000080040AA
:1017900000000000400001FF00040240000800407B
:1017A00000000000800002FF00040240000800402A
:1017B00000000000000103FF000402400008004098
:1017C00000000000000204FF00040240000000408E
:1017D00000000000000403FF00040240000000407D
:1017E00000000000000804FF0004024000000000A8
:1017F00000000000001000FF000402400000000094
:1018000000000000002000FF00040240001800401B
:1018100000000000004001FF000402400000000042
:1018200000000000008000FF0008024000000000EF
:10183000002001400100000A0008024000000000F2
:10184000002001400200000B0008024000000000E0
:10185000002001400400000C0008024000000000CD
:1018600000000000080000FF000802400000000027
:10187000000000001000000E000802400000000000
:1018800000000000200000FF0008024000040040AB
:1018900000000000400001FF00080240000400407A
:1018A00000000000800002FF000802400004004029
:1018B00000000000000103FF000802400004004097
:1018C00000000000000204FF0008024000000000C9
:1018D00000000000000400FF0008024000000000BB
:1018E00000000000000800FF0008024000000000A7
:1018F00000000000001000FF00080240000000008F
:10190000002001400020000D0008024000000000FF
:1019100000000000004000FF00080240000000003E
:1019200000000000008000FF000C024000000000EA
:1019300000000000010000FF000C02400000000059
:1019400000000000020000FF000C02400000000048
:1019500000000000040000FF000C02400000000036
:1019600000000000080000FF000C02400000000022
:1019700000000000100000FF000C0240000000000A
:1019800000000000200000FF000C024000000000EA
:1019900000000000400000FF000C024000000000BA
:1019A00000000000800000FF000C0240000000006A
:1019B00000000000000100FF000C024000000000D9
:1019C00000000000000200FF000C024000000000C8
:1019D00000000000000400FF000C024000000000B6
:1019E00000000000000800FF000C0240000800405A
:1019F00000000000001001FF000C02400008004041
:101A000000000000002002FF000C0240000800401F
:101A100000000000004003FF000C024000080040EE
:101A200000000000008004FF0010024000000000E1
:101A300000000000010000FF001002400000000054
:101A400000000000020000FF001002400000000043
:101A500000000000040000FF001002400000000031
:101A600000000000080000FF00100240000000001D
:101A700000000000100000FF001002400040014084
:101A800000000000200001FF001002400040014063
:101A900000000000400002FF0010024000000000B3
:101AA00000000000800000FF001002400000000065
:101AB00000000000000100FF001002400000014093
:101AC00000000000000201FF0010024000000000C2
:101AD00000000000000400FF001002400000014070
:101AE00000000000000802FF00100240000000009B
:101AF00000000000001000FF001002400000014044
:101B000000000000002003FF001002400000014020
:101B100000000000004004FF001002400000000030
:101B200000000000008000FF0014024000000000E0
:101B300000000000010000FF00140240000000004F
:101B400000000000020000FF00140240000000003E
:101B500000000000040000FF00140240000000002C
:101B600000220140080000090014024000000000AB
:101B7000002201401000000E00140240000000008E
:101B8000002201402000000F0014024000440140E8
:101B900000220140400001040014024000480140BE
:101BA000002201408000010500140240001C00409A
:101BB0000022014000010106001402400020004004
:101BC0000022014000020107001402400000000052
:101BD0000022014000040008001402400000000040
:101BE00000000000000800FF001402400000000098
:101BF00000000000001000FF001402400000000080
:101C000000000000002000FF00140240000000005F
:101C100000000000004000FF00140240000000002F
:101C200000000000008000FF0018024000000000DB
:101C300000000000010000FF00180240000000004A
:101C400000000000020000FF001802400000000039
:101C500000000000040000FF001802400000000027
:101C600000000000080000FF001802400000000013
:101C700000000000100000FF0018024000000000FB
:101C800000000000200000FF0018024000000000DB
:101C900000000000400000FF0018024000000000AB
:101CA00000000000800000FF00180240000000005B
:101CB00000000000000100FF0018024000000000CA
:101CC00000000000000200FF0018024000000000B9
:101CD00000000000000400FF0018024000000000A7
:101CE00000000000000800FF001802400000000093
:101CF00000000000001000FF00180240000000007B
:101D000000000000002000FF00180240000000005A
:101D100000000000004000FF00180240000000002A
:101D200000000000008000FF001C024000000000D6
:101D300000000000010000FF001C02400000000045
:101D400000000000020000FF001C02400000000034
:101D500000000000040000FF001C02400000000022
:101D600000000000080000FF001C0240000000000E
:101D700000000000100000FF001C024000000000F6
:101D800000000000200000FF001C024000000000D6
:101D900000000000400000FF001C024000000000A6
:101DA00000000000800000FF001C02400000000056
:101DB00000000000000100FF001C024000000000C5
:101DC00000000000000200FF001C024000000000B4
:101DD00000000000000400FF001C024000000000A2
:101DE00000000000000800FF001C0240000000008E
:101DF00000000000001000FF001C02400000000076
:101E000000000000002000FF001C02400000000055
:101E100000000000004000FF001C02400000000025
:101E200000000000008000FF0020024000000000D1
:101E300000000000010000FF002002400000000040
:101E400000000000020000FF00200240000000002F
:101E500000000000040000FF00200240000000001D
:101E600000000000080000FF002002400000000009
:101E700000000000100000FF0020024000000000F1
:101E800000000000200000FF0020024000000000D1
:101E900000000000400000FF0020024000000000A1
:101EA00000000000800000FF002002400000000051
:101EB00000000000000100FF0020024000000000C0
:101EC00000000000000200FF0020024000000000AF
:101ED00000000000000400FF00200240000000009D
:101EE00000000000000800FF002002400000000089
:101EF00000000000001000FF002002400000000071
:101F000000000000002000FF002002400000000050
:101F100000000000004000FF002002400000000020
:101F200000000000008000FF0024024000000000CC
:101F300000000000010000FF00240240000000003B
:101F400000000000020000FF00240240000000002A
:101F500000000000040000FF002402400000000018
:101F600000000000080000FF002402400000000004
:101F700000000000100000FF0024024000000000EC
:101F800000000000200000FF0024024000000000CC
:101F900000000000400000FF00240240000000009C
:101FA00000000000800000FF00240240000000004C
:101FB00000000000000100FF0024024000000000BB
:101FC00000000000000200FF0024024000000000AA
:101FD00000000000000400FF002402400000000098
:101FE00000000000000800FF002402400000000084
:101FF00000000000001000FF00240240000000006C
:1020000000000000002000FF00240240000000004B
:1020100000000000004000FF00240240000000001B
:1020200000000000008000FF0028024000000000C7
:1020300000000000010000FF002802400000000036
:1020400000000000020000FF002802400000000025
:1020500000000000040000FF002802400000000013
:1020600000000000080000FF0028024000000000FF
:1020700000000000100000FF0028024000000000E7
:1020800000000000200000FF0028024000000000C7
:1020900000000000400000FF002802400000000097
:1020A00000000000800000FF002802400000000047
:1020B00000000000000100FF0028024000000000B6
:1020C00000000000000200FF0028024000000000A5
:1020D00000000000000400FF002802400000000093
:1020E00000000000000800FF00280240000000007F
:1020F00000000000001000FF002802400000000067
:1021000000000000002000FF002802400000000046
:1021100000000000004000FF002802400000000016
:1021200000000000008000FF000000000000000030
:10213000000000000000000000000000000000009F
:10214000000000000000000000000000000000008F
:1021500000000000000000000000000088210008CE
:102160000000002018000000C4010008A0210008A1
:102170001800002058090000E0010008E5F3FFFF07
:1021800039F4FFFF11F4FFFF00000000007A030A9A
:102190000000000000000000010203040607080917
:040000050800018965
:00000001FF
