:020000040800F2
:10000000701B00203902000841020008430200086A
:1000100045020008470200084902000800000000ED
:100020000000000000000000000000004B0200087B
:100030004D020008000000004F020008E50900081A
:10004000530200085302000853020008530200083C
:10005000530200085302000811070008D5070008E2
:10006000F90700081D0800084108000853020008AD
:10007000530200085302000853020008530200080C
:1000800053020008530200085302000853020008FC
:1000900053020008530200085302000865080008D4
:1000A00053020008C90A000853020008530200085E
:1000B000F90A0008250B0008550B00085302000838
:1000C00053020008530200085302000853020008BC
:1000D00053020008510C00085D0C0008690C000870
:1000E00035070008530200085302000853020008B5
:1000F000E50B0008530200085302000853020008F1
:100100005302000853020008850B00085302000840
:10011000530200085302000853020008B50B000800
:10012000530200085302000853020008530200085B
:10013000530200085302000853020008530200084B
:10014000530200085302000853020008530200083B
:10015000530200085302000853020008530200082B
:10016000530200085302000853020008530200081B
:10017000530200085302000853020008530200080B
:10018000530200085302000800F002F800F045F89E
:100190000AA090E8000C82448344AAF10107DA45E2
:1001A00001D100F03AF8AFF2090EBAE80F0013F0EF
:1001B000010F18BFFB1A43F0010318478C0C000015
:1001C000AC0C0000103A24BF78C878C1FAD85207A6
:1001D00024BF30C830C144BF04680C6070470000C1
:1001E0000023002400250026103A28BF78C1FBD840
:1001F000520728BF30C148BF0B6070471FB500F0E1
:1002000003FE9DE8030000F0ABF800F077F81FBD97
:1002100010B5002000F002F910BD00F059F91146A8
:10022000FFF7ECFF00F0E8FD00F077F903B4FFF70B
:10023000EFFF03BC00F046F9094880470948004732
:10024000FEE7FEE7FEE7FEE7FEE7FEE7FEE7FEE786
:10025000FEE7FEE704480549054A064B70470000E3
:100260006D0A00088901000870030020701B00203F
:10027000701300207013002070B50446051F00F0B5
:100280004FF80068002C14BF446870BD002C18BFE4
:10029000AC423CBF20466468F8D301680A18AA4201
:1002A00018BF456003D12A680546114401602868DB
:1002B0004119A1421CBF6C6070BD61686960216812
:1002C0000844286070BD2DE9F041074615460E46EA
:1002D000102000F074F804000AD06760C4E90265D9
:1002E00000F022F80168216004600020BDE8F08180
:1002F0000120FBE7704770477047000070B5064C5F
:100300007C44064D7D4403E0206820448047241D42
:10031000AC42F9D170BD0000640B00006C0B000012
:100320000048704718030020004870474803002029
:10033000704770477047704738B504460A4600203A
:100340006946AFF30080002808BF38BD0246009917
:10035000204600F090F8012038BD012000F0AAB836
:10036000F8B5AFF30080054600200C46102000BF12
:100370000646A819A0420DD9324669460020AFF3BF
:100380000080070008BF00F095F80098A04218BF51
:100390000546C419FFF7C4FF05600746F01D20F0AD
:1003A00007004619284600F05FF8B44208BFF8BDC0
:1003B000A21B31463868BDE8F84000F05CB870B563
:1003C0000646FFF7ADFF056806F10B0020F00704B5
:1003D000B4429CBF002070BD2B466A68BAB1106859
:1003E000A04210D304F1080188423CBF5068586015
:1003F00007D35168101941601168091B01605860EA
:100400001460101D70BD13465268002AE7D12146C2
:100410002846FFF791FF0028DED170BD2DE9F0419D
:100420000646FFF781FF8046454613E016B1E068B7
:10043000B0420ED120682860D4E90101D8F80070DC
:1004400088472046FFF718FFD8F80000B842EBD1E4
:1004500000E025462C68002CE8D1BDE8F0810000C2
:10046000004870471003002000210160C0E901101E
:10047000704710207047034640688C46002818BF1C
:1004800088423CBF03464068F8D318681844884245
:1004900007D00CF1030020F00700001D411A521A8A
:1004A0000146081D0A60FFF7E7BE002801D000F0F2
:1004B00009B8704710B500F053F8BDE81040FFF7D9
:1004C000F4BF000001491820ABBEFEE72600020081
:1004D0007546FFF7C5FFAE4605006946534620F056
:1004E0000700854618B020B5FFF7B4FEBDE82040F0
:1004F0004FF000064FF000074FF000084FF0000BE0
:1005000021F00701AC46ACE8C009ACE8C009ACE892
:10051000C009ACE8C0098D46704710B50446AFF37A
:1005200000802046BDE81040FFF780BE70B505464C
:100530000C460A2000E06D1C00F03AF835B128782E
:100540000028F8D102E0641C00F032F814B12078E1
:100550000028F8D1BDE870400A2000F029B800005A
:1005600010B5012805D0002103A0FFF7DFFF01200F
:1005700010BD09A1F8E7000053494752544D454DBD
:100580003A204F7574206F662068656170206D6534
:100590006D6F7279000000003A2048656170206D2F
:1005A000656D6F727920636F727275707465640027
:1005B00008B569468DF800000320ABBE08BD704742
:1005C0000029816802D041F0010101E021F0010120
:1005D00081607047084B10B5D3F8042307490A40DF
:1005E000D0E900142143D0E90240044321431143E0
:1005F000C3F8041310BD000000200140E030FCFFF0
:1006000030B542680F4B0C791A400B6842EA04225D
:100610001343436082680C4B4D791A40D1E9034380
:1006200023438C6844EA4504234313438360C26A2E
:10063000097D22F47002491EC9B242EA0151C16229
:1006400030BD0000FFFEFFFCFDF7FFC030B50546E2
:100650001B488BB0854202D1002184150AE019485D
:10066000854202D10021441504E01748854208D193
:1006700000210415204600F04FF90121204600F02A
:100680003FF9002406944FF480300994CDE9070423
:1006900006A8FFF79FFF009401208DF804408DF815
:1006A00014008DF805400294049469462846FFF72B
:1006B000A7FF01212846FFF783FF0BB030BD0000E4
:1006C00000200140002101400022014070B500F0EF
:1006D00091F90E484FF47A714FF0FF350068B0FB86
:1006E000F1F1491EB1F1807F0AD24FF0E02461613F
:1006F0000F21284600F030FB0020A0610720206178
:100700002846BDE87040002100F026BB0400002010
:1007100010B5012000F0EAF8002808D0044800686D
:1007200000B18047BDE81040012000F0D9B810BDED
:100730009802002070B54FF48065284600F0D6F886
:10074000234C28B1A16A01B18847284600F0C8F8B7
:100750004FF40065284600F0C9F828B1E16A01B1FC
:100760008847284600F0BCF84FF48055284600F032
:10077000BDF828B1216B01B18847284600F0B0F8D8
:100780004FF40055284600F0B1F828B1616B01B173
:100790008847284600F0A4F84FF48045284600F02A
:1007A000A5F828B1A16B01B18847284600F098F858
:1007B0004FF40045284600F099F8002807D0E16B77
:1007C00001B188472846BDE8704000F089B870BD87
:1007D0009802002010B5022000F088F8002808D008
:1007E0000448406800B18047BDE81040022000F096
:1007F00077B810BD9802002010B5042000F076F8FC
:10080000002808D00448806800B18047BDE8104047
:10081000042000F065B810BD9802002010B5082033
:1008200000F064F8002808D00448C06800B1804790
:10083000BDE81040082000F053B810BD9802002019
:1008400010B5102000F052F8002808D004480069C4
:1008500000B18047BDE81040102000F041B810BD45
:100860009802002070B5202000F040F81B4C28B101
:10087000606900B18047202000F032F8402000F08D
:1008800035F828B1A06900B18047402000F028F871
:10089000802000F02BF828B1E06900B1804780206B
:1008A00000F01EF84FF48075284600F01FF828B1BC
:1008B000216A01B18847284600F012F84FF400750C
:1008C000284600F013F8002807D0616A01B1884774
:1008D0002846BDE8704000F003B870BD98020020C3
:1008E0000149086070470000143C0140034A01467A
:1008F000002012680A4200D001207047143C0140D9
:10090000044A0029116801D0014300E081431160CD
:100910007047000044380240044A0029116801D0A1
:10092000014300E081431160704700002438024019
:100930000CB500202749019000900A6842F48032EB
:100940000A604FF4A0430A6802F400320092019A50
:10095000521C0192009A12B9019A9A42F3D10A6884
:10096000920334D5012000901A484030026842F0CA
:10097000805202601848026842F440420260154802
:10098000083002680260026842F4004202600268B5
:1009900042F4A0520260031F104A1A600A6842F033
:1009A00080720A600A689201FCD50D4A40F2057116
:1009B0001160016821F003010160016841F002014A
:1009C00001600168C1F381010229FAD10CBD0090D8
:1009D0000CBD000000380240007000400854400781
:1009E000003C024002480168491C01607047000059
:1009F0000000002070B51A4C20681A4A10F00C0153
:100A0000194804D05510042903D0082903D00260E6
:100A10001BE0056019E01249091F0B68C3F38056FB
:100A20000B6803F03F0316B1B5FBF3F201E0B2FB34
:100A3000F3F20B680968C3F388135A43C1F3014109
:100A4000491C4900B2FBF1F101602168064AC1F37B
:100A50000311121D515C0268CA40026070BD0000A3
:100A6000083802400024F40004000020124810B5A9
:100A7000016841F4700101601048016841F0010112
:100A800001600E4A00210832116002680C4B1A40C6
:100A90000260031D0B4A1A60026822F48022026081
:100AA00006480C300160FFF743FF03494FF0006038
:100AB0008039086010BD000088ED00E00038024079
:100AC000FFFFF6FE1030002410B5094C012120462E
:100AD00000F0B1F8002809D00648016801B1884744
:100AE0002046BDE81040012100F0A2B810BD000072
:100AF00000000140D802002010B501218C072046DB
:100B000000F099F8002809D00548416801B18847EC
:100B10002046BDE81040012100F08AB810BD000059
:100B2000D802002010B5094C0121204600F083F8BE
:100B3000002809D00648816801B188472046BDE8F1
:100B40001040012100F074B810BD00000004004006
:100B5000D802002010B5094C0121204600F06BF8A6
:100B6000002809D00648C16801B188472046BDE881
:100B70001040012100F05CB810BD000000080040EA
:100B8000D802002010B5094C0121204600F053F88E
:100B9000002809D00648016901B188472046BDE810
:100BA0001040012100F044B810BD0000000C0040CE
:100BB000D802002010B5094C0121204600F03BF876
:100BC000002809D00648816901B188472046BDE860
:100BD0001040012100F02CB810BD000000140040AE
:100BE000D802002070B50F4D0121284600F023F8EF
:100BF0000D4C30B1E16901B188470121284600F070
:100C000017F80A4D0121284600F015F8002808D0F1
:100C1000216B01B188472846BDE87040012100F0F2
:100C200007B870BD00040140D8020020001C00403D
:100C3000C9430182704702460020138A92890B4201
:100C400002EA010202D0002A00D001207047000011
:100C5000014800F038B8000018000020014800F0FA
:100C600032B80000B4000020014800F02CB80000A9
:100C7000500100200A0A01219140C94301807047B8
:100C800030B501F01F0201240025C1F3421304FA1C
:100C900002F2012B0FD0022B0FD0838A4FEA1121D1
:100CA0000088134204FA01F400EA040001D000B104
:100CB0000125284630BD8389F0E7038AEEE7808866
:100CC000C0F30800704770B5044640F2255500692E
:100CD0002946FFF7D5FF002818D02069FFF7EFFF5E
:100CE000C2B2208B618B401C00F07F00814204D097
:100CF000238B04F11C015A542083606900B18047A2
:100D000029462069BDE87040FFF7B4BF70BD000000
:100D100000224FF47A73C0E90123034B0360C0E95A
:100D200004124283028370471C0E000810B5044C65
:100D3000046080F8543080F8551080F8562010BDBB
:100D4000400E000803490160002180F8551080F82A
:100D500056107047400E00080907090E002804DBF2
:100D600000F1E02080F80014704700F00F0000F15F
:100D7000E02080F8141D704700B507490748FFF7C9
:100D8000C7FF064806499C30FFF7C2FF05490648E1
:100D90005DF804EBFFF7BCBF001001401800002015
:100DA000004400400048004050010020044805492C
:100DB00001601C30044901601C3004490160704727
:100DC000440200200030014000380040003C004058
:100DD00010B50023172216210448FFF7A7FFBDE82E
:100DE0001040034A0349FFF76EBA0000EC010020EF
:100DF00000000008450D0008FFF768FC0148FFF7F8
:100E000025FCFEE7002001404FF04070E1EE100AA3
:100E1000704700000000000000000000000000001B
:100E200000000000000000000000000000000000C2
:100E300000000000000000000000000000000000B2
:100E40000000000000000000740E000800000020F8
:100E500018000000C40100088C0E000818000020D3
:100E6000581B0000E001000811FFFFFF65FFFFFFB6
:100E70003DFFFFFF00000000007A030A00000000B1
:0C0E80000000000001020304060708093E
:040000050800018965
:00000001FF
