:020000040800F2
:1000000040060020753200087D3200087F3200086B
:1000100081320008833200088532000800000000A9
:10002000000000000000000000000000873200080F
:1000300089320008000000008B3200082D060008FD
:100040008F3200088F3200088F3200088F3200088C
:100050008F3200088F3200087B0C0008930C0008D8
:10006000AB0C0008C30C0008DB0C00088F32000842
:100070008F3200088F3200088F3200088F3200085C
:100080008F3200088F3200088F3200088F3200084C
:100090008F3200088F3200088F320008F30C0008FE
:1000A0008F3200088F3200088F3200088F3200082C
:1000B000310F00084D0F0008690F00088F3200084B
:1000C0008F3200088F3200088F3200088F3200080C
:1000D0008F3200089F070008FD070008630800082A
:1000E000630D00088F3200088F320008DFF80CD053
:1000F00003F0FEFB00480047A51000084006002062
:10010000704770B505460C466CB1042C0BD0282CFA
:1001100009D0482C07D0142C05D0102C03D01C2C4F
:1001200001D0182C0BD105F00F0301229A4091B297
:1001300025F00F000323224600F02CFF06E0202CC0
:1001400003D1284600F061FC00E070BD00BFFCE771
:1001500070B504460D464DB104F00F0301229A40DC
:1001600091B224F00F0001F000FD08E004F00F034D
:1001700001229A4091B224F00F0001F0F8FC70BD0A
:1001800010B5044604F00F0301229A4091B224F006
:100190000F0001F0D0FC10BD70B504460D46294695
:1001A000204600F069FC70BD10B50446204600F002
:1001B0000AFA10BD10B5044604F00F0301229A405C
:1001C00091B224F00F0000F02AFF10BD2DE9F04796
:1001D00080460D4616461F4600212846FFF7B8FF09
:1001E000002413E00EB9204601E0C4F10700814667
:1001F00047FA09F000F001014046FFF7A9FF284641
:10020000FFF7D8FF2846FFF7D5FF641C082CE9DB71
:10021000BDE8F0872DE9F04180460E4617460025DF
:10022000002419E001213046FFF792FF37B940461C
:10023000FFF7A6FFA0402843C5B207E04046FFF7FE
:100240009FFFC4F1070188402843C5B20021304612
:10025000FFF77EFF601CC4B2082CE3DB2846BDE834
:10026000F0812DE9F04106460C46154600F0E4F910
:1002700047194148B0FBF4F814B90DB9BDE8F08155
:100280000DE001213046FFF763FF404600F0F1F931
:1002900000213046FFF75CFF404600F0EAF900F02D
:1002A000CBF9B842EDD900BFE8E770B50446049D2C
:1002B000601AEE1A7043561A90FBF6F0184470BD9F
:1002C0002DE9F04F89B006460F4614461D46DDE97C
:1002D000148922462B46DDE9120103F06EF94246ED
:1002E0004B46CDE90401DDE9160103F066F98246CB
:1002F0008B4622462B463046394603F05EF952467D
:100300005B46CDE9000103F05EF9CDE90201DDE9CC
:10031000042303F0CAF942464B46CDE9060103F037
:10032000ABF809B0BDE8F08F03688B4201DA0160D9
:1003300003E00368934200DD026070472DE9F04757
:10034000824614461D46DDE9086722462B46DAE957
:100350000081404603F018FA02D2CAE9004509E0DC
:1003600032463B46DAE90081404603F021FA01D2E9
:10037000CAE90067BDE8F08720A1070008B50121A0
:10038000102001F001FEFF20ADF8000000208DF8E4
:1003900003006946954801F03BFB08BD00B591B0EC
:1003A0000121084601F0E3FD0121480201F0ECFDC6
:1003B0008F4801F015F98F4806908F48079000206C
:1003C00008900820099000200A9080200B9040009F
:1003D0000C9080000D9020200E9000020F900020C5
:1003E000109006A9824801F09DF90121804801F092
:1003F000C4F90020019001208DF808008DF8090053
:100400004FF4602003900020049008208DF8140021
:1004100001A978484C3800F0E2FE4FF4404001F06A
:1004200017FD05230122002172484C3800F06FFFB0
:100430000523022201216F484C3800F068FF052394
:10044000032202216B484C3800F061FF052304228F
:10045000032168484C3800F05AFF05231A4604214E
:1004600064484C3800F053FF0523062219466148C2
:100470004C3800F04CFF0523072206215D484C381C
:1004800000F045FF0523082207215A484C3800F0A8
:100490003EFF012157484C3800F0D8FE0121554855
:1004A0004C3800F0C8FE53484C3800F0E6FE00BF60
:1004B00050484C3800F0E6FE0028F9D14D484C3841
:1004C00000F0EAFE00BF4B484C3800F0EAFE00287E
:1004D000F9D1012147484C3800F0EDFE11B000BDC4
:1004E00010B5FFF74BFFFFF759FF10BD014642481B
:1004F00030F81100704700B585B00121480201F0C5
:1005000043FD4FF4004001F0A3FC3A484C3800F0A2
:100510003FFE002000908DF804008DF805004FF498
:10052000602002900020039001208DF810006946A1
:1005300030484C3800F053FE01212E484C3800F072
:100540007AFE2C484C3800F098FE00BF29484C3801
:1005500000F098FE0028F9D126484C3800F09CFEA7
:1005600000BF24484C3800F09CFE0028F9D101213E
:1005700020484C3800F09FFE05B000BD70B5054620
:1005800000240723012229461A484C3800F0BFFEF8
:10059000002613E0012117484C3800F08CFE00BF04
:1005A000022114484C3800F0F7FF0028F8D0114819
:1005B0004C3800F013FF0444701CC6B2082EE9DB6F
:1005C000E408A0B270BD70B5054600240AE00B48EF
:1005D00050F82400A84203D12046FFF7CFFF70BD9A
:1005E000601CC4B20A2CF2DB0020F8E700080140CE
:1005F000080002404C240140AC00002034390008BF
:1006000022484FF0E02148610020886108460069D7
:1006100040F0040008610846006940F002000861EB
:100620000846006940F001000861704718480068FA
:10063000401C1749086070471548006870474FF024
:10064000E02080691149081A4821B0FBF1F01049F7
:10065000096801EB4102C2EBC11100EBC100704718
:100660000B4A116800BF0A4A1268521A8242FAD92C
:10067000704710B50346FFF7E2FF044600BFFFF7DF
:10068000DEFF001B9842FAD910BD0000401901009E
:10069000000000202DE9F04387B081468846884855
:1006A000484480B1B0F5806F1AD0B0F5744F25D1B1
:1006B000012144F2040001F067FC4FF4007465006E
:1006C000804F25261AE00121480401F06AFC01212F
:1006D000042001F059FC042408257A4F26260DE059
:1006E0000121880401F05DFC0121082001F04CFC8F
:1006F0004FF480646500744F272600BF00BFA0B28E
:10070000ADF8180003208DF81A0018208DF81B0092
:1007100006A9384601F07CF9A8B2ADF8180004200B
:100720008DF81B0006A9384601F072F9F0B28DF879
:10073000040003208DF805008DF8060001208DF8D7
:10074000070001A800F0BBFCCDF808800020ADF840
:100750000C00ADF80E00ADF81000ADF814000C2040
:10076000ADF8120002A9484602F0C3FB012240F294
:100770002551484602F055FC0121484602F045FC4F
:1007800007B0BDE8F08300BF028802F04002002AF3
:10079000FAD0818070474D4A42F82010704770B5FA
:1007A00040F225514A4802F021FD30B3484802F09A
:1007B0009DFCC5B247490988491C88B2C11700EBA6
:1007C0005161C911A0EBC1118CB243480088A0420D
:1007D00005D04048008841490D543E4804803B48BC
:1007E00000683F49884202D038490868804740F293
:1007F0002551374802F024FD00BF70BD70B540F2AE
:1008000025512F48404202F0F1FC48B32C484042A9
:1008100002F06CFCC5B22F494988491C88B2C11747
:1008200000EB5161C911A0EBC1118CB22A4840887C
:10083000A04206D0274841882848803045542548A2
:100840004480224840682649884202D01F494868AF
:10085000804740F225511A48404202F0F1FC00BFA7
:1008600070BD70B540F225511E4802F0BFFC30B398
:100870001C4802F03BFCC5B216498988491C88B265
:10088000C11700EB5161C911A0EBC1118CB2124824
:100890008088A04205D00F488188134845540D48F0
:1008A00084800A4880680E49884202D007498868D7
:1008B000804740F225510B4802F0C2FC00BF70BDDA
:1008C00000BCFFBF00080140000C014014000020E4
:1008D00000380140080000200E000020BC0000206D
:1008E0000101000800480040BC010020F0B587B0BD
:1008F00004460D4616461F468B48844204D101210A
:10090000C01401F041FB16E0B4F1804F04D1012185
:10091000084601F046FB0EE08448844204D10121E0
:10092000022001F03EFB06E08148844203D1012110
:10093000042001F036FBADF81450ADF81060002033
:10094000ADF81600ADF8120004A9204601F054FCE1
:100950007020ADF800000120ADF802000220ADF8D3
:100960000800012F06D0022F0DD0032F14D0042F22
:1009700024D11AE06946204601F07BFC082120467C
:1009800002F0C6F81AE06946204601F0B4FC0821DE
:10099000204602F0C6F811E06946204601F0F8FC56
:1009A0000821204602F0CAF808E06946204601F016
:1009B0003AFD0821204602F0CAF800BF00BF01211D
:1009C000204601F075FF07B0F0BD0346002118E096
:1009D000002212E0574800EB011050F82200984224
:1009E00009D1481CC1B2501CC2B201EB810002EB1C
:1009F0004000C0B27047501CC2B2042AEADB481C57
:100A0000C1B20429E4DB0020F4E72DE9F047814678
:100A10004846FFF7DAFF054615B90020BDE8F08724
:100A20000A2095FBF0F00A2190FBF1F201FB120085
:100A3000C4B20A2095FBF0F100FB115000F0FF0852
:100A400018214846FFF75DFB4FF47A761427611EA4
:100A5000394A52F82100002101F02AFF7B1E9AB288
:100A6000731E99B2631EDFF8D0C05CF823004346C2
:100A7000FFF73CFF0120D1E72DE9F04180460D460C
:100A80004046FFF7A2FF064616B90020BDE8F081F8
:100A90002DB900214046FFF75BFB0020F6E7B5F5D6
:100AA0007A7F05DB01214046FFF752FB2846EDE740
:100AB0000A2096FBF0F00A2190FBF1F201FB1200F4
:100AC000C4B20A2096FBF0F100FB1160C7B2012FFF
:100AD00006D0022F0CD0032F12D0042F20D117E004
:100AE000611E154A52F82100294602F079F917E0F3
:100AF000611E114A52F82100294602F073F90FE0F5
:100B0000611E0D4A52F82100294602F06DF907E0F6
:100B1000611E094A52F82100294602F067F900BF18
:100B200000BF2846B2E70000002C0140000400404E
:100B3000000800405C390008200000200EB50121AB
:100B4000084601F021FA0321042001F077F808207B
:100B5000019000208DF8080008208DF80900012080
:100B60008DF80A0001A800F073FE0521022001F0B3
:100B700065F82020019000208DF808000C208DF8E9
:100B8000090001208DF80A0001A800F061FE09208B
:100B90008DF8000002208DF801008DF80200012080
:100BA0008DF80300684600F08AFA17208DF80000DF
:100BB00002208DF8010001208DF802008DF803005D
:100BC000684600F07CFA0EBD2DE9FE4F81460E46C8
:100BD00017469846484600F04EFA04460F2C01DDB1
:100BE000BDE8FE8F844840F824600121084601F0EA
:100BF000CBF9484600F017FA8246214601F01EF86C
:100C00000120A040019000208DF808008DF80970A7
:100C100001208DF80A0001A800F01AFE042C11DC56
:100C2000052C0ED2DFE804F0030507090B000625AA
:100C300007E0072505E0082503E0092501E00A256E
:100C400000BF0AE0052C03DB092C01DC172504E0BA
:100C50000A2C02DB0F2C00DC2825E8B28DF80000FE
:100C600002208DF801008DF8028001208DF803002C
:100C7000684600F024FA00BFB2E710B5012000F08A
:100C80004DFE28B15C4908688047012000F057FEFE
:100C900010BD10B5022000F041FE28B15649486849
:100CA0008047022000F04BFE10BD10B5042000F07C
:100CB00035FE28B1504988688047042000F03FFE87
:100CC00010BD10B5082000F029FE28B14A49C868B7
:100CD0008047082000F033FE10BD10B5102000F052
:100CE0001DFE28B1444908698047102000F027FE06
:100CF00010BD10B5202000F011FE28B13E49486912
:100D00008047202000F01BFE402000F007FE28B1A5
:100D1000394988698047402000F011FE802000F0AA
:100D2000FDFD28B13449C8698047802000F007FEE6
:100D30004FF4807000F0F2FD30B12F49086A80470F
:100D40004FF4807000F0FBFD4FF4007000F0E6FD02
:100D500030B12949486A80474FF4007000F0EFFD38
:100D600010BD10B54FF4806000F0D8FD30B12249BD
:100D7000886A80474FF4806000F0E1FD4FF4006026
:100D800000F0CCFD30B11C49C86A80474FF40060C8
:100D900000F0D5FD4FF4805000F0C0FD30B1164991
:100DA000086B80474FF4805000F0C9FD4FF40050AD
:100DB00000F0B4FD30B11049486B80474FF400504B
:100DC00000F0BDFD4FF4804000F0A8FD30B10A49AD
:100DD000886B80474FF4804000F0B1FD4FF4004035
:100DE00000F09CFD30B10449C86B80474FF40040CF
:100DF00000F0A5FD10BD0000300000207FB50546C5
:100E00000C460121022001F0CCF8681E80B2ADF83A
:100E10000800601E80B2ADF804000020ADF80A00A2
:100E2000ADF8060001A9574801F0E6F90122114684
:100E3000544801F058FD1D208DF8000000208DF869
:100E4000010003208DF8020001208DF803006846A0
:100E500000F035F97FBD2DE9F04F87B005460C460F
:100E600093460020069003200590022D01DB042DFF
:100E700002DD07B0BDE8F08F434840F825B004EB31
:100E8000C40084004148844206D24FF47A70B4FB17
:100E9000F0F6B4FBF6FA05E044F62060B4FBF0F699
:100EA000B4FBF6FA022D04D0032D09D0042D13D182
:100EB0000CE04FF080474FF001084FF01C090BE0A9
:100EC000304F4FF002084FF01D0905E0304F4FF052
:100ED00004084FF01E0900BF00BF0121404601F089
:100EE00060F8701E80B2ADF80C00AAF1010080B26B
:100EF000ADF808000020ADF80E00ADF80A0002A918
:100F0000384601F079F901221146384601F0EBFC30
:100F10008DF8049006988DF8050005988DF8060068
:100F200001208DF8070001A800F0C9F800BFA0E774
:100F300010B50121880701F084FF30B1124988689B
:100F400080470121880701F08DFF10BD10B50121F8
:100F50000C4801F076FF30B10B49C8688047012189
:100F6000084801F07FFF10BD10B50121084801F0CD
:100F700068FF30B10449086980470121044801F045
:100F800071FF10BD000400407000002018FCE70352
:100F9000000800402DE9F84305460F4616469846DE
:100FA0003848854201D104241FE03748854201D1E9
:100FB00008241AE03548854201D1102415E0344850
:100FC000854201D1202410E03248854201D14024DD
:100FD0000BE03148854201D1802406E02F4885424C
:100FE00001D1841501E0BDE8F8831C2E01D0182E34
:100FF00005D144F00100012100F0C6FF03E001210A
:10100000204600F0C1FFADF800708DF803608DF848
:1010100002806946284600F0FBFC00BFE3E7C26897
:101020004A40C2607047024622F00F0115488142D3
:1010300001D1002070471448814201D10120F9E715
:101040001248814201D10220F4E71148814201D1C6
:101050000320EFE70F48814201D10420EAE70E4860
:10106000814201D10520E5E70C48814201D10620EB
:10107000E0E70A20DEE7014621F00F00081AC0B2BF
:101080007047000000080140000C014000100140C2
:101090000014014000180140001C014000200140E4
:1010A00070477047FFF7ACFAFFF7FAFF00BFFFF792
:1010B000F8FFFCE731490143314A1160704770B5D0
:1010C000002100230F22C47804B32D4C246804F4BB
:1010D000E064C4F5E064210AC1F10403CA40447825
:1010E00004FA03F18478144021430901254C067861
:1010F000A155047804F01F050124AC4005786D115A
:10110000AD0005F1E025C5F8004109E0047804F0E0
:101110001F050124AC401C4D0678761145F8264089
:1011200070BD1A4A0A400243154B1B1F1A607047D4
:1011300039B1134A121D12680243114B1B1D1A606C
:1011400006E00F4A121D126882430D4B1B1D1A60E8
:101150007047042808D14FF0E021096941F00401EB
:101160004FF0E022116107E04FF0E021096921F022
:1011700004014FF0E0221161704700000000FA0501
:101180000CED00E000E400E080E100E080FFFF1FE4
:1011900010B50446FA48844208D10121401500F0F8
:1011A0000DFF0021601500F009FF17E0F5488442AB
:1011B00008D10121001500F001FF0021201500F0E9
:1011C000FDFE0BE0F048844208D10121C80300F085
:1011D000F5FE00214FF4004000F0F0FE10BD30B5E8
:1011E0000246002000235068E84C20400D790C682E
:1011F00044EA0524204350609068E54C2040D1E942
:1012000002542C434D7944EA450420439060D06A4F
:1012100020F470000C7C641EE4B2234340EA0350C7
:10122000D06230BD00210160017141718160C160F7
:1012300001210174704721B1826842F0010282608D
:1012400003E0826822F001028260704721B1826867
:1012500042F48072826003E0826822F480728260CD
:10126000704710B50023CBB21AB144681C434460E8
:1012700002E044689C43446010BD816841F008016D
:1012800081607047014600208A6802F008020AB1B6
:10129000012000E000207047816841F00401816076
:1012A0007047014600208A6802F004020AB101205A
:1012B00000E00020704721B1826842F4A002826001
:1012C00003E0826822F4A002826070470146002099
:1012D0008A6802F480020AB1012000E00020704711
:1012E00010B50A4600210023416821F46041531ED5
:1012F00041EA4331416010BD21B1426842F40062CD
:10130000426003E0426822F4006242607047F0B538
:1013100004460D4600200021092D11DDE068A5F1ED
:101320000A0606EB4607072606FA07F18843A5F1E9
:101330000A0606EB460603FA06F10843E0600CE0F5
:10134000206905EB4507072606FA07F1884305EBF8
:10135000450603FA06F108432061072A0FDA606B9D
:10136000561E06EB86071F2606FA07F18843561E0F
:1013700006EB860605FA06F10843606322E00D2AB3
:101380000FDA206BD61F06EB86071F2606FA07F139
:101390008843D61F06EB860605FA06F1084320634C
:1013A00010E0E06AA2F10D0606EB86071F2606FA9A
:1013B00007F18843A2F10D0606EB860605FA06F151
:1013C0000843E062F0BD21B1826842F4801282607D
:1013D00003E0826822F48012826070470146C86C84
:1013E00080B2704766484C300068704721B142684F
:1013F00042F48062426003E0426822F4806242600C
:10140000704721B1426842F48052426003E0426872
:1014100022F48052426070470A460021816821F41C
:10142000E04111438160704721B1826842F400427B
:10143000826003E0826822F400428260704721B13A
:10144000826842F40212826003E0826822F402128F
:1014500082607047014600208A6802F400120AB1D7
:10146000012000E000207047F0B50446154600203A
:1014700000220026092911DDE068A1F10A0707EB27
:10148000470C072707FA0CF29043A1F10A0707EB74
:10149000470703FA07F21043E0600CE0206901EB14
:1014A000410C072707FA0CF2904301EB410703FABE
:1014B00007F210432061A06BC0F30156EF1C06F148
:1014C000010CA7EB0C0707EB870C1F2707FA0CF2A0
:1014D0009043EF1C06F1010CA7EB0C0707EB870705
:1014E00001FA07F21043A063F0BD10B50A460021CF
:1014F0000023816B21F44011531E41EA03518163A3
:1015000010BD08B5002300930090009B0B4400938E
:10151000009B1A6008BD08B50246002000900092AA
:1015200001F12800009B184400900098006880B2E8
:1015300008BD0A4600214168164B1940114341601D
:1015400070474162826270470A460021416821F07B
:101550001F0111434160704740B1094908310968D2
:1015600041F40001064A0832116007E004490831DD
:10157000096821F40001024A083211607047000036
:101580000024014000280140003C0140FFFEF0FF24
:10159000FDF7F1FFFFFD3FFF0246002013680B40FF
:1015A0000BB1012000E000207047CA430260704781
:1015B00070B502460020002300240B125568CEB2FD
:1015C00005EA060415681D4015B10CB1012000E0C4
:1015D000002070BD00220A12D34303607047000050
:1015E00001684FF6FE721140016000210160416008
:1015F0008160C1608D49884208D18C4908394968A9
:1016000041F00F01894A083A51608AE08749143154
:10161000884208D185490839496841F0F001834A78
:10162000083A51607DE081492831884208D17F49DC
:101630000839496841F470617C4A083A516070E0A9
:101640007A493C31884208D178490839496841F4DF
:101650007041764A083A516063E0744950318842DB
:1016600008D172490839496841F470216F4A083A33
:10167000516056E06D496431884208D16B490839A0
:10168000496841F47001694A083A516049E0674984
:101690007831884208D165490839496841F070615C
:1016A000624A083A51603CE06149884206D1011F14
:1016B000096841F00F01021F116032E05C491431EA
:1016C000884208D15A49091F096841F0F001584A77
:1016D000121F116025E056492831884208D154492B
:1016E000091F096841F47061514A121F116018E026
:1016F0004F493C31884208D14D49091F096841F4DE
:1017000070414B4A121F11600BE049495031884229
:1017100007D14749091F096841F47021444A121F43
:101720001160704710B50022026847F6F0739A43C3
:101730000C6A8B6823430C6923434C6923438C69EF
:101740002343CC6923434C6A23438C6A23431A43C3
:101750000260CB6843600B6883604B68C36010BD58
:101760000021016041608160C1600161416181616E
:10177000C161016241628162704721B1026842F039
:101780000102026004E002684FF6FE731A40026034
:1017900070471AB103680B43036002E003688B4390
:1017A00003607047416070470146486880B27047E7
:1017B00001460020002201F080531BB11C4B083B66
:1017C0001A6802E0194B083B1A6802EA01030BB1E0
:1017D000012000E00020704700F0805119B1144949
:1017E000091F086002E01149083948607047014646
:1017F0000020002201F080531BB10D4B083B1A68FA
:1018000002E00A4B083B1A6802EA01030BB101200F
:1018100000E00020704700F0805119B10449091F11
:10182000086002E00149083948607047080002403A
:1018300008040240002044490860091D0860091D91
:101840000860091D086041483F491431086070472D
:1018500000213D498279002A3AD00A46126803687D
:101860009A430B461A600A1D126803689A430B1DBF
:101870001A60027911440A6803681A430A60324AFE
:101880000832126803689A432F4B08331A601A1DF6
:10189000126803689A432C4B0C331A604279102A61
:1018A0000ED11A1F126803681A43274B08331A60B7
:1018B0001A1D126803681A43234B0C331A600DE09B
:1018C0002149427911440A6803681A430A6005E015
:1018D000027911440A6803689A430A60704700213C
:1018E000016001710C21417100218171704716491D
:1018F000103109680143144A1032116070470146E3
:101900000020114A143212680A400AB1012000E096
:10191000002070470C4914310860704701460020D0
:101920000022094B1B6803EA0102074B14331B68B2
:101930000B4013B10AB1012000E0002070470249BA
:10194000143108607047000000040140FFFF0F00E1
:1019500010B50446CC48844208D10121042000F08F
:101960002DFB0021042000F029FB46E0C7488442FB
:1019700008D10121082000F021FB0021082000F0FF
:101980001DFB3AE0C248844208D10121102000F03A
:1019900015FB0021102000F011FB2EE0BD48844211
:1019A00008D10121202000F009FB0021202000F0B7
:1019B00005FB22E0B848844208D10121402000F014
:1019C000FDFA0021402000F0F9FA16E0B348844205
:1019D00008D10121802000F0F1FA0021802000F0E0
:1019E000EDFA0AE0AE48844207D10121801500F0EB
:1019F000E5FA0021A01500F0E1FA10BD10B50121B3
:101A0000084600F0DBFA0021012000F0D7FA10BDF3
:101A10002DE9F04102460025002600200023002485
:101A2000002791F803C00CF00F0591F803C00CF0EB
:101A3000100CBCF1000F03D091F802C04CEA050570
:101A400091F800C0BCF1000F31D0146800202BE0E9
:101A50004FF0010C0CFA00F3B1F800C00CEA0306D9
:101A60009E4220D183004FF00F0C0CFA03F7BC43C9
:101A700005FA03FC4CEA040491F803C0BCF1280FFA
:101A800006D14FF0010C0CFA00FCC2F814C00AE0B9
:101A900091F803C0BCF1480F05D14FF0010C0CFACE
:101AA00000FCC2F810C0401C0828D1D31460B1F863
:101AB00000C0BCF1FF0F34DD546800202EE000F1BF
:101AC000080C4FF0010808FA0CF3B1F800C00CEA5A
:101AD00003069E4221D183004FF00F0C0CFA03F74E
:101AE000BC4305FA03FC4CEA040491F803C0BCF1C2
:101AF000280F05D100F1080C08FA0CF8C2F8148080
:101B000091F803C0BCF1480F07D100F1080C4FF069
:101B1000010808FA0CF8C2F81080401C0828CED33F
:101B20005460BDE8F0814FF6FF71018002218170A1
:101B30000421C17070470246002093680B400BB12E
:101B4000012000E0002070470146886880B270479D
:101B500002460020D3680B400BB1012000E00020BA
:101B600070470146C86880B27047016170474161A3
:101B700070470AB1016100E041617047C160704780
:101B80004FF480320A438261816182618269826995
:101B9000704702460020434B18684FF68073184088
:101BA00040EA021008433F4B186070473E49C86145
:101BB0007047F0B50A46002300240021002500F0FC
:101BC0000046B6F1004F02D1364EF16901E0354EC4
:101BD0007168C0F3034583B200F44016B6F5401FA8
:101BE00008D121F070612F4E766826F070662D4F77
:101BF0007E6012E000F48016B6F5801F06D1032641
:101C000006FA05F4A14341F0706106E0460D360185
:101C100003FA06F6B14341F0706122B1460D360178
:101C200003FA06F6314300F00046B6F1004F02D148
:101C30001C4EF16101E01B4E7160F0BD30B5002219
:101C40008B071C0F0F2303FA04F2164B08338C107A
:101C500053F824309343134C08348D1044F8253046
:101C600023468C1053F824308C07240F00FA04F418
:101C700023430C4C08348D1044F8253030BD0A49FC
:101C8000DC3108607047000000080140000C014092
:101C9000001001400014014000180140001C0140E8
:101CA000002001400000014000002042DF480068A1
:101CB00040F00100DD49086008464068DC49084002
:101CC000DA49486008460068DA490840D7490860A0
:101CD0000846006820F4802008600846406820F428
:101CE000FE0048604FF41F0088607047CF490968C4
:101CF00021F48031CD4A11601146096821F4802118
:101D00001160B0F5803F03D0B0F5802F0ED106E012
:101D1000C649096841F48031C44A116007E0C349EB
:101D2000096841F4A021C14A116000E000BF00BF72
:101D3000704710B501460022002300204A11012AF5
:101D400002D1BA4C236806E0022A02D1B74C236ABA
:101D500001E0B64C636A01F01F02012494401C406C
:101D60000CB1012000E0002010BD38B5002000902B
:101D70000024002500BF3120FFF7DBFF0546009857
:101D8000401C00900098B0F5A06F01D0002DF2D05B
:101D90003120FFF7CEFF08B1012400E000242046E7
:101DA00038BD01460020A14A106820F0F80040EA42
:101DB000C10010607047A0490860704702460020CB
:101DC0009A4B586820F47C1042EA01031843974B61
:101DD0005860704798490866704701460020934A4A
:101DE000506820F003000843506070478F484068F7
:101DF00000F00C007047014600208C4A506820F02B
:101E0000F00008435060704701460020874A506840
:101E100020F4E06008435060704701460020834A88
:101E2000506820F4605040EAC1005060704729B10A
:101E30007E4A527A02437D4B5A7204E07B4A527AC0
:101E400082437A4B5A7270477B49D8310860704799
:101E500001460020754A506820F440400843506015
:101E600070470021714A20321170704A82F82010A8
:101E7000012802D004280AD104E001216B4A203253
:101E8000117005E00521694A2032117000E000BFA1
:101E900000BF70476949086070476449096A014397
:101EA000624A11627047654944390860704730B52D
:101EB00000210022002400235C4D6D6805F00C0118
:101EC00021B1042905D0082923D105E05C4D056026
:101ED00022E05B4D05601FE0544D6D6805F4701203
:101EE000524D6D6805F48034022505EB92421CB911
:101EF000544D554305600BE04C4D6D6805F40035BD
:101F00001DB1504D5543056002E04D4D55430560F0
:101F100002E04B4D056000BF00BF444D6D6805F009
:101F2000F0010909484D6B5C0568DD4045603F4D97
:101F30006D6805F4E061090A434D6B5C4568DD405E
:101F400085603A4D6D6805F46051C90A3E4D6B5C81
:101F50004568DD40C560354D6D6805F44041890B2D
:101F60003A4D6B5CC568B5FBF3F5056130BD29B131
:101F70002E4A526902432D4B5A6104E02B4A5269A2
:101F800082432A4B5A61704729B1284A9269024319
:101F9000264B9A6104E0254A92698243234B9A6159
:101FA000704729B1214AD2690243204BDA6104E02B
:101FB0001E4AD26982431D4BDA61704729B11B4A20
:101FC000D2680243194BDA6004E0184AD2688243AF
:101FD000164BDA60704729B1144A12690243134B59
:101FE0001A6104E0114A12698243104B1A6170476A
:101FF00012494039086070470F49C86470470B495F
:10200000C87170470948406A40F0807007494862CB
:10201000704701460020054A92680A400AB1012033
:1020200000E00020704701498872704700100240AC
:102030000000FFF8FFFFF6FE00004242800442422B
:1020400000127A0000093D00840000209400002066
:1020500010B50446FE48844208D10121C014FFF7A0
:10206000ADFF0021E014FFF7A9FFC4E0B4F1804FF9
:1020700008D101210846FFF7AEFF00210120FFF73C
:10208000AAFFB8E0F348844208D101210220FFF7FB
:10209000A2FF00210220FFF79EFFACE0EE48844241
:1020A00008D101210420FFF796FF00210420FFF74B
:1020B00092FFA0E0E948844208D101210820FFF7FF
:1020C0008AFF00210820FFF786FF94E0E44884425D
:1020D00008D101211020FFF77EFF00211020FFF71B
:1020E0007AFF88E0DF48844208D101212020FFF7F1
:1020F00072FF00212020FFF76EFF7CE0DA48844267
:1021000008D101214014FFF759FF00216014FFF7A7
:1021100055FF70E0D548844209D10121C804FFF77A
:102120004DFF00214FF40020FFF748FF63E0D04847
:10213000844209D101210805FFF740FF00214FF437
:102140008010FFF73BFF56E0CA48844209D10121C5
:102150004805FFF733FF00214FF40010FFF72EFF73
:1021600049E0C548844208D101214020FFF733FFF0
:1021700000214020FFF72FFF3DE0C048844208D1F6
:1021800001218020FFF727FF00218020FFF723FF98
:1021900031E0BB48844208D101218015FFF71BFFC5
:1021A0000021A015FFF717FF25E0B648844209D1AA
:1021B00001210804FFF702FF00214FF48030FFF7F0
:1021C000FDFE18E0B048844209D101214804FFF720
:1021D000F5FE00214FF40030FFF7F0FE0BE0AB48B6
:1021E000844208D101218804FFF7E8FE00214FF462
:1021F0008020FFF7E3FE10BD00220288944B984236
:102200000ED0994B98420BD0B0F1804F08D0914B33
:10221000984205D0904B984202D0904B984204D1FE
:102220004FF68F731A404B881A438D4B984207D054
:102230008C4B984204D04FF6FF431A40CB881A4388
:1022400002808B8883850B880385814B98420BD055
:10225000854B984208D08B4B984205D08A4B9842C8
:1022600002D08A4B984201D10B7A038601238382E4
:10227000704770B5002400220023058C4FF6FE76CF
:1022800035400584028C8388048B4FF68F752C4073
:10229000B51E2C400D882C43751E2A400D892A43FB
:1022A0004D882A436A4DA8420BD06F4DA84208D0F2
:1022B000744DA84205D0744DA84202D0734DA84277
:1022C00013D14FF6F7752A404D892A434FF6FB7517
:1022D0002A408D882A434FF6FF652B404FF6FF5565
:1022E0002B408D892B43CD892B4383800483CD885C
:1022F0008586028470BD70B5002400220023058C01
:102300004FF6EF7635400584028C8388048B48F6BF
:10231000FF752C404FF6FF452C400D884FF6FF7699
:1023200006EA05252C434FF6DF752A400D8906EA9B
:1023300005152A434D8806EA05152A43444DA8424F
:1023400002D0494DA8421DD14FF67F752A404D89D4
:102350004FF6FF7606EA05152A434FF6BF752A4069
:102360008D8806EA05152A434FF6FF352B404FF2BC
:10237000FF752B408D8906EA85052B43CD8906EA3A
:1023800085052B4383800483CD880587028470BD37
:1023900070B5002400220023058C4FF6FF663540FF
:1023A0000584028C8388848B4FF68F752C404FF602
:1023B000FC752C400D882C434FF6FF552A400D89A3
:1023C0004FF6FF7606EA05252A434D8806EA0525DD
:1023D0002A431F4DA84202D0234DA8421DD14FF2DF
:1023E000FF752A404D894FF6FF7606EA05252A43F8
:1023F0004FF6FF352A408D8806EA05252A434EF61A
:10240000FF752B404DF6FF752B408D8906EA0515AB
:102410002B43CD8906EA05152B4383808483CD8821
:102420008587028470BD70B5002200230024058CCE
:102430004EF6FF7635400584038C8488828B48F6FF
:10244000FF752A404FF6FF452A400D8820E0000026
:10245000002C01400004004000080040000C004037
:10246000001000400014004000340140004C0140C6
:10247000005001400054014000180040001C004082
:10248000002000400040014000440140004801405D
:102490004FF6FF7606EA05252A434DF6FF752B40D9
:1024A0000D8906EA05352B434D8806EA05352B4391
:1024B000FA4DA84202D0FA4DA84208D14BF6FF755A
:1024C0002C408D894FF6FF7606EA85152C438480D3
:1024D0008283CD88A0F84050038470BD828B4FF278
:1024E000FF331A408283828B4FF6FF7303EA012386
:1024F0001A4382837047F0B50C461546002200212E
:102500000026078C4EF6FF7C07EA0C070784828BB7
:10251000018C4FF6FF7707EA043640F6FF473A4052
:102520004FF6FF7707EA05273A434FF6FF7707EAAA
:1025300003373A43D94FB8420ED0D94FB8420BD0E7
:10254000B0F1804F08D0D74FB84205D0D64FB8422F
:1025500002D0D64FB84206D14DF6FF77394046F447
:102560008057394305E047F6FF57394044F4805718
:10257000394382830184F0BD828B4FF6F3731A4096
:102580008283828B0A4382837047F0B50C461546DE
:10259000002200210026078C4FF6FF6C07EA0C078B
:1025A0000784828B018C4FF6FF7707EA04264FF6EB
:1025B0000C773A404FF6FF7707EA03172F433A4369
:1025C000B64FB8420ED0B64FB8420BD0B0F1804FE4
:1025D00008D0B44FB84205D0B34FB84202D0B34F81
:1025E000B84206D14FF6FF57394046F48077394359
:1025F00005E04FF2FF57394044F480773943828336
:102600000184F0BD028B4FF2FF331A400283028B2C
:102610004FF6FF7303EA01231A4302837047F0B5B4
:102620000C461546002200210026078C4FF6EF7C51
:1026300007EA0C070784028B018C4FF6FF7707EA45
:10264000041640F6FF473A404FF6FF7707EA033794
:102650003A434FF6FF7707EA05273A438F4FB842D0
:102660000ED08F4FB8420BD0B0F1804F08D08D4FB5
:10267000B84205D08C4FB84202D08C4FB84206D138
:102680004FF6DF77394046F01007394305E04FF643
:102690005F77394044F01007394302830184F0BD6D
:1026A000028B4FF6F3731A400283028B0A430283B4
:1026B0007047F0B50C46154600220021068C4FF6F7
:1026C000FE773E400684028B018C4FF60C7632403A
:1026D0007E1C06EA03162E433243704EB0420ED0E3
:1026E0006F4EB0420BD0B0F1804F08D06D4EB0426B
:1026F00005D06D4EB04202D06C4EB04206D14FF6BE
:10270000FD76314044F00106314305E04FF6F576A1
:10271000314044F00106314302830184F0BD70B5BD
:1027200005460C465D4885420ED05D4885420BD07B
:10273000B5F1804F08D05B48854205D05A488542A4
:1027400002D05A48854200D100E000BF208850B92D
:102750002389A28861882846FFF7ABFFE1882846D5
:10276000FFF79EFF25E0208804280AD12389A2884C
:1027700061882846FFF753FFE1882846FFF742FFAC
:1027800017E0208808280AD12389A2886188284672
:10279000FFF7FBFEE1882846FFF7EEFE09E02389FC
:1027A000A28861882846FFF7A6FEE1882846FFF741
:1027B00095FE70BD2DE9F04105460C460026012727
:1027C000608808B9022600E00026A088012801D10F
:1027D000022700E001272088A0B92389A288618808
:1027E0002846FFF766FFE1882846FFF759FF23894F
:1027F0003A4631462846FFF712FFE1882846FFF7A0
:1028000001FF13E02389A28861882846FFF707FFAC
:10281000E1882846FFF7F6FE23893A4631462846E6
:10282000FFF747FFE1882846FFF73AFFBDE8F08150
:102830000A884B881A438B881A43CB881A430B8922
:102840001A434B891A438B891A43A0F844207047D6
:102850004FF6FF71818000210180C18041800172AB
:1028600070470021018041808180C18001814181C8
:102870008181C181704700210180418001218180D7
:102880000021C18001817047002101804180818049
:10289000C18001814181818170470000002C01408D
:1028A000003401400004004000080040000C0040DB
:1028B00021B1028842F00102028004E002884FF652
:1028C000FE731A400280704731B1B0F8442042F4E0
:1028D0000042A0F8442005E0B0F84420C2F30E0204
:1028E000A0F8442070471AB183890B43838102E02A
:1028F00083898B43838170478182704741EA020359
:10290000A0F8483070471AB183890B43838102E0F5
:1029100083898B438381704701894FF6F872114098
:10292000018170470A46002101894FF68F731940D3
:1029300011430181704730B504460D4629462046B3
:10294000FFF7F0FF208940F00700208130BD2DE91E
:10295000F04104460D4616461F46602D06D13B4603
:10296000012231462046FFF75AFE05E03B46012290
:1029700031462046FFF79DFE29462046FFF7D2FF4D
:10298000208940F007002081BDE8F08130B50C4679
:1029900000210189C9B24FF6FF7505EA03251543E9
:1029A00025432943018130BD2DE9F04105460E46FE
:1029B00017469846002443463A4631462846FFF7D4
:1029C000E5FF2C894FF6F870044044F007044FF6F9
:1029D0008F70044044F070042C81BDE8F081F0B5A4
:1029E00004460D4616461F463B46324629462046BB
:1029F000FFF7CCFF208940F480402081F0BD0185A5
:102A0000828270470A46002101884FF68F73194071
:102A1000114301807047F0B50C4615461E46002153
:102A2000002200230189028B038C4FF6F87739408E
:102A300021434FF6FC473A4040F201173A434FF624
:102A4000DD773B404FF6FF7707EA06172F433B43FE
:102A5000018102830384F0BD0A460021018B4FF6F9
:102A60008F7319401143018370470A460021018B7F
:102A700048F6FF7319404FF6FF7303EA0223194328
:102A8000018370470A460021818B4FF68F731940EE
:102A90001143818370470A460021818B48F6FF73FA
:102AA00019404FF6FF7303EA0223194381837047ED
:102AB00021B1028842F08002028004E002884FF6D1
:102AC0007F731A400280704721B1828842F004026D
:102AD000828004E082884FF6FB731A408280704740
:102AE00021B1828842F00802828004E082884FF699
:102AF000F7731A408280704721B1828842F0010248
:102B0000828004E082884FF6FE731A40828070470C
:102B10000A460021018B4FF6F773194011430183D8
:102B200070470A460021018B4FF2FF7319404FF6A0
:102B3000FF7303EA02231943018370470A46002109
:102B4000818B4FF6F77319401143818370470A4612
:102B50000021818B4FF2FF7319404FF6FF7303EA98
:102B600002231943818370470A460021018B4FF6E7
:102B7000FB7319401143018370470A460021018B02
:102B80004FF6FF3319404FF6FF7303EA0223194350
:102B9000018370470A460021818B4FF6FB73194071
:102BA0001143818370470A460021818B4FF6FF3322
:102BB00019404FF6FF7303EA0223194381837047DC
:102BC0000A460021018B4FF67F73194011430183A0
:102BD00070470A460021018BC1F30E014FF6FF73C7
:102BE00003EA02231943018370470A460021818BBF
:102BF0004FF67F7319401143818370470A460021C5
:102C0000818BC1F30E014FF6FF7303EA02231943D0
:102C1000818370470A460021018C4FF6FD731940ED
:102C20001143018470470A460021018C4FF6F77367
:102C300019401143018470470A460021018C4FF668
:102C4000DF7319404FF6FF7303EA0213194301843F
:102C500070470A460021018C4FF67F7319404FF6EA
:102C6000FF7303EA02131943018470470A460021E7
:102C7000018C4FF6FF5319404FF6FF7303EA02230E
:102C80001943018470470A460021018C4FF2FF73FB
:102C900019404FF6FF7303EA02231943018470477A
:102CA0000A460021018C4DF6FF7319404FF6FF7361
:102CB00003EA023319430184704730B5002301242D
:102CC0008C40A3B2048C9C430484048C02FA01F56A
:102CD000ADB22C43048430BD30B5002304248C40B5
:102CE000A3B2048C9C430484048C02FA01F5ADB2B7
:102CF0002C43048430BD70B50346002000241846E0
:102D0000183001258D40ACB21D8CA5431D8409B13E
:102D1000082909D100EB6100056825F07005056000
:102D20000568154305600EE00D1FC5F34E052844E8
:102D3000056825F4E045056005684FF6FF7606EA6C
:102D400002263543056070BD21B1028842F00202BF
:102D5000028004E002884FF6FD731A40028070473B
:102D600021B1028842F00402028004E002884FF69A
:102D7000FB731A400280704721B1828842F08002C2
:102D8000828004E082884FF67F731A408280704709
:102D900002884FF6F7731A40028002880A430280C5
:102DA000704782884FF68F731A40828082880A4368
:102DB0008280704702894FF6F8731A4002810289B7
:102DC0000A430281704702894FF67F731A400281DD
:102DD00002890A4302817047818470478185704768
:102DE000818670470187704781877047A0F840103F
:102DF000704702884FF6FF431A40028002880A4358
:102E0000028070470146888E70470146088F7047E0
:102E10000146888F70470146B1F84000704701466F
:102E2000888C70470146088D704702460020138A3F
:102E30000B400BB1012000E000207047CA43028222
:102E4000704730B50246002000230024158A05EAA9
:102E50000103958905EA010413B10CB1012000E0DA
:102E6000002030BDCA4302827047000010B50446FE
:102E7000FB48844209D101218803FFF79FF8002114
:102E80004FF48040FFF79AF832E0F648844209D1C7
:102E900001214804FFF79FF800214FF40030FFF7AD
:102EA0009AF825E0F048844209D101218804FFF70F
:102EB00092F800214FF48020FFF78DF818E0EB48DE
:102EC000844209D10121C804FFF785F800214FF49D
:102ED0000020FFF780F80BE0E548844208D101218B
:102EE0000805FFF778F800214FF48010FFF773F81A
:102EF00010BD2DE9F04786B005460E460024A246D7
:102F000000BFA1460027B08900B100BF2F462C8A20
:102F10004CF6FF700440F08804432C82AC894EF6D6
:102F2000F3100440B0883189084371890843044391
:102F3000AC81AC8A4FF6FF400440B0890443AC82B8
:102F400001A8FEF7B4FFC648874202D1DDF810A001
:102F500001E0DDF80CA0A88900F4004040B10AEBC4
:102F6000CA0000EB0A1031684900B0FBF1F807E035
:102F70000AEBCA0000EB0A1031688900B0FBF1F8D7
:102F80006420B8FBF0F004012009642101FB1089E2
:102F9000A88900F4004040B1322000EBC900B0FB2A
:102FA000F1F000F00700044308E0322000EB0910C4
:102FB0006421B0FBF1F000F00F0004432C8106B057
:102FC000BDE8F0874FF41651016000218180C18077
:102FD00001810C21418100218181704710B5024699
:102FE0000020108A4FF2FF0318400B884C882343BF
:102FF0008C882343CC8823431843108210BD0021C2
:10300000018041808180C180704721B1828942F472
:103010000052828104E082894DF6FF731A4082815A
:103020007047F0B50346002400260025002040F636
:103030006A17B94200D100BF1846C1F3421401F02B
:103040001F06012707FA06F5012C01D10C3004E018
:10305000022C01D1103000E014301AB107682F4360
:10306000076002E00768AF430760F0BD1AB1838ACA
:103070000B43838202E0838A8B4383827047028AF8
:103080004FF6F0731A400282028A0A4302827047A6
:1030900082894FF2FF731A40828182890A438281BA
:1030A000704721B1828942F00202828104E0828964
:1030B0004FF6FD731A4082817047028A4FF6DF7324
:1030C0001A400282028A0A430282704721B1028AB0
:1030D00042F48042028204E0028A4BF6FF731A40F7
:1030E00002827047C1F308028280704701468888D7
:1030F000C0F308007047818941F001018181704768
:10310000028BD2B20283028B42EA01220283704711
:10311000028B02F47F420283028B0A4302837047D0
:1031200021B1828A42F02002828204E0828A4FF634
:10313000DF731A408282704721B1828A42F0100206
:10314000828204E0828A4FF6EF731A4082827047CF
:1031500021B1828A42F00802828204E0828A4FF61C
:10316000F7731A408282704721B1828942F400428B
:10317000828103E08289C2F30E028281704721B10D
:10318000828A42F40062828204E0828A4FF2FF73F4
:103190001A4082827047828A4FF6FB731A408282FD
:1031A000828A0A438282704721B1828A42F00202F7
:1031B000828204E0828A4FF6FD731A408282704751
:1031C00002460020B1F5007F00D100BF13880B40FC
:1031D0000BB1012000E00020704701F40072B2F54D
:1031E000007F00D100BFCA430280704770B502461D
:1031F000002400230025002040F66A16B14200D1C9
:1032000000BFC1F3421501F01F03012606FA03F3C4
:10321000012D02D19689334006E0022D02D1168A93
:10322000334001E0968A33400C12012606FA04F47A
:103230001688344013B10CB1012000E0002070BDAD
:1032400010B50022002340F66A14A14200D100BF4D
:103250000A1201249440A3B2DC43048010BD000094
:10326000003801400044004000480040004C00404D
:10327000005000400648804706480047FEE7FEE74A
:10328000FEE7FEE7FEE7FEE7FEE7FEE7FEE7FEE716
:1032900077330008ED0000080CB500200190009085
:1032A0006C48006840F480306A49086000BF694893
:1032B000006800F4003000900198401C01900098D4
:1032C00018B90198B0F5A06FF1D16248006800F418
:1032D000003010B10120009001E000200090009823
:1032E000012843D15C48006840F010005A4908604A
:1032F0000846006820F0030008600846006840F0B7
:1033000002000860534840685249486008464068D7
:1033100048600846406840F480604860084640685D
:1033200020F47C1048600846406840F4E81048608B
:103330000846006840F08070086000BF454800689B
:1033400000F000700028F9D04248406820F00300E7
:10335000404948600846406840F00200486000BFAD
:103360003C48406800F00C000828F9D10CBD10B5AD
:10337000FFF792FF10BD10B53648006840F001001D
:10338000344908600846406834490840314948607B
:1033900008460068324908402E490860084600681F
:1033A00020F4802008600846406820F4FE00486051
:1033B0004FF41F008860FFF7DAFF4FF000602949E3
:1033C000086010BD10B5002100200022214B5B6871
:1033D00003F00C0121B1042906D0082928D107E007
:1033E000214B224C236027E01F4B204C236023E01D
:1033F000184B5B6803F47010164B5B6803F4803263
:10340000022303EB904022B9194B4343174C23602E
:103410000DE0104B5B6803F4003323B1144B4343BE
:10342000124C236003E0104B4343104C236003E035
:103430000D4B0E4C236000BF00BF064B5B68C3F30F
:1034400003130C4CE15C094B1B68CB40074C236019
:1034500010BD000000100240002002400000FFF8F4
:10346000FFFFF6FE08ED00E000127A009800002051
:1034700000093D009C0000202DE9FE4F804681EAB6
:103480000300C00F0C46009021F0004123F00045DE
:10349000B8EB0200A94105D24046214690461C46A1
:1034A0000B46024623F00040104347D0270DC7F3D8
:1034B0000A00C3F30A510290401A019040286BDAC7
:1034C000C3F3130040F4801B0098924620B1002300
:1034D000D2EB030A63EB0B0B01985946C0F1400293
:1034E000504600F079F906460D4650465946019A75
:1034F00000F091F910EB08006141002487EA1152B5
:1035000084EAE7731A4340D0009A62B3019A012A11
:103510004FEA075215DC001B61EB02014FF000423D
:1035200002EA0752CDE90042001C41F58011324603
:103530002B4600F08FF903B0BDE8F08F40462146DE
:10354000F9E7001B61EB0201001C41F58013001834
:103550005B412018A2F5001747EB030140EAD57044
:10356000B6196D4111E06D084FEA360645EAC0759F
:103570004FEA0752001B61EB0201001C41F580116C
:1035800049084FEA30000019514132462B4603B03A
:10359000BDE8F04F00F051B900980122400000232F
:1035A000D0EB020263EBE073009821464FEAE0742F
:1035B000B8EB000061EB0401E9E783F000435BE74F
:1035C00081F0004158E72DE9FE4F81EA030404F041
:1035D000004421F0004100944FF0000B23F0004321
:1035E00050EA01045ED052EA03045BD0C3F30A54EC
:1035F000C1F30A552C44A4F2F3340194A0FB025405
:10360000C1F3130141F48011C3F3130343F4801396
:1036100001FB024400FB034E840A970A44EA8154EA
:1036200047EA8357A4FB076802958D0A05FB0785C7
:103630004FEA932C04FB0C542705029D4FEA0658D1
:1036400047EA1637B5EB08056EEB070C870E920EAE
:1036500047EA811742EA8312A7FB0201B6EB0B018E
:1036600064EB00042B0D43EA0C335E1844EB1C5052
:10367000DA465146E7FB0201C5F313044FEA0B3368
:1036800043EA14534FEA0432019C43EA0603A4F1CF
:103690000C040294009CCDE900B400F0DBF803B008
:1036A000BDE8F08F00200146F9E72DE9F04D81EAF1
:1036B000030404F0004B21F0004514464FF0000ACB
:1036C00023F0004150EA050220D054EA01021DD047
:1036D000C5F30A570246C5F31303C1F31300C1F340
:1036E0000A5640F4801543F48013A7EB0608101B1C
:1036F000D64608F2FD3873EB050002D308F1010845
:1037000001E092185B41B8F1000F03DA0020014696
:10371000BDE8F08D00204FF48011064684460EE08F
:10372000171B73EB050705D3121B63EB0503064359
:103730004CEA010C49084FEA300092185B4150EA0C
:103740000107EDD152EA030012D082EA040083EAB5
:103750000501084305D0101BAB4106D2012200230E
:1037600006E000224FF0004302E06FF00102531028
:103770001AEB06004CEB085110EB0A0041EB0B0171
:10378000BDE8F04D00F059B830B5002904DB4FF02A
:103790000044404264EB0101002B04DB4FF0004485
:1037A000524264EB03038B4208BF824230BD0000EB
:1037B00030B5002904DB4FF00044404264EB0101C6
:1037C000002B04DB4FF00044524264EB03039942A8
:1037D00008BF904230BD0000202A04DB203A00FAE6
:1037E00002F1002070479140C2F1200320FA03F358
:1037F000194390407047202A04DB203A21FA02F056
:103800000021704721FA02F3D040C2F1200291401A
:10381000084319467047202A06DBCB17203A41FAA5
:1038200002F043EAE07306E041FA02F3D040C2F14D
:103830002002914008431946704710B5002B08DA62
:10384000401C41F1000192185B411A4301D120F064
:10385000010010BD2DE9F04D92469B4611B1B1FA21
:1038600081F202E0B0FA80F220329046FFF7B4FF16
:1038700004460F4640EA0A0041EA0B0153465A4605
:10388000084313D0114653EA010019D0C8F1400291
:103890005046FFF7B0FF05460E4650465946424691
:1038A000FFF79AFF084305D0012004E0204639467F
:1038B000BDE8F08D0020054346EAE0762C4337430F
:1038C0000A986305E40AA0EB08000022FD0A44EA16
:1038D00047540A3002D500200146E9E701051019D6
:1038E0006941DDE9084500196941BDE8F04DA4E7EB
:1038F000064C074D06E0E06840F0010394E807003D
:1039000098471034AC42F6D3FCF7F4FB9C3900081E
:10391000BC39000802E008C8121F08C1002AFAD109
:1039200070477047002001E001C1121F002AFBD13F
:1039300070470000000801400108014002080140F2
:103940000308014004080140050801400608014041
:1039500007080140000C0140010C0140080801402B
:10396000090801400A0801400B0801400008014015
:103970000108014002080140030801400608014017
:1039800007080140000C0140010C0140060C0140F9
:10399000070C0140080C0140090C0140BC3900082B
:1039A00000000020AC00000014390008683A00084C
:1039B000AC0000209405000024390008000000003D
:1039C00000000000000000000000000000000000F7
:1039D000010100080101000801010008002C01405C
:1039E0000000004000040040000800400101000801
:1039F000010100080101000801010008010100089F
:103A0000010100080101000801010008010100088E
:103A1000010100080101000801010008010100087E
:103A2000010100080101000801010008010100086E
:103A3000010100080101000801010008010100085E
:103A40000000000001020304010203040607080944
:103A50000204060800A24A04000000000000000062
:083A6000010203040607080936
:04000005080000ED02
:00000001FF
