:020000040800F2
:1000000000090020DD3F0008E53F0008E73F000849
:10001000E93F0008EB3F0008ED3F0008000000004A
:10002000000000000000000000000000EF3F00089A
:10003000F13F000800000000F33F0008F10B00084A
:10004000F73F0008F73F0008F73F0008F73F0008B8
:10005000F73F0008F73F0008270D00083F0D000894
:10006000570D00086F0D0008870D0008F73F0008C6
:10007000F73F0008F73F0008F73F0008F73F000888
:10008000F73F0008F73F0008F73F0008F73F000878
:10009000F73F0008F73F0008F73F00089F0D0008F2
:1000A000F73F0008731A0008F73F0008F73F000801
:1000B0008F1A0008AB1A0008C71A0008F73F00089B
:1000C000F73F0008F73F0008F73F0008F73F000838
:1000D000F73F0008EB17000849180008AF180008A0
:1000E0000F0E0008F73F0008F73F0008DFF810D0B8
:1000F00004F0E8FA04F094F800480047011B0008F7
:1001000000090020704770B505460C466CB1042C00
:100110000BD0282C09D0482C07D0142C05D0102C3B
:1001200003D01C2C01D0182C0CD1C94A02EB0512AB
:100130009189C74A02EB051203231068224600F09A
:10014000B3FE0AE0202C07D141F288324FF47A71D5
:10015000284601F036F900E070BD00BFFCE749B168
:10016000BB4A02EB00129289B94B03EB00131B68E8
:100170001A6108E0B64A02EB00129289B44B03EB15
:1001800000131B685A61704701460020B04A02EB19
:10019000011212689268AE4B03EB01139B891A405F
:1001A0000AB1012000E00020704770B504460D46FA
:1001B0002946204601F055F970BD10B504468CB1B2
:1001C000012C0FD0022C0DD0032C0BD0042C09D005
:1001D000052C07D0062C05D0072C03D0102C01D0FD
:1001E000112C06D19A4901EB0411C87B01F024F8C7
:1001F00010BD0020FCE7964901EB00110968C968B1
:10020000934A02EB001292895140914A02EB00128C
:100210001268D16070472DE9F04380460D461646BE
:100220001F4600212846FFF79AFF002413E00EB96D
:10023000204601E0C4F10700814647FA09F000F0CA
:1002400001014046FFF78BFF2846FFF7D4FF284601
:10025000FFF7D1FF641C082CE9DBBDE8F0832DE932
:10026000F04180460E4617460025002419E0012182
:100270003046FFF774FF37B94046FFF785FFA040CF
:100280002843C5B207E04046FFF77EFFC4F10701EF
:1002900088402843C5B200213046FFF760FF601C4C
:1002A000C4B2082CE3DB2846BDE8F0812DE9F0411B
:1002B00006460C46154600F0A1FC47196548B0FB00
:1002C000F4F814B90DB9BDE8F0810DE00121304614
:1002D000FFF745FF404600F0AEFC00213046FFF737
:1002E0003EFF404600F0A7FC00F088FCB842EDD984
:1002F00000BFE8E770B50446049D601AEE1A70432B
:10030000561A90FBF6F0184470BD2DE9F04F89B0F5
:1003100006460F4614461D46DDE9148922462B4643
:10032000DDE9120104F02DF842464B46CDE9040107
:10033000DDE9160104F025F882468B4622462B465D
:100340003046394604F01DF852465B46CDE90001BF
:1003500004F01DF8CDE90201DDE9042304F089F879
:1003600042464B46CDE9060103F06AFF09B0BDE8FD
:10037000F08F03688B4201DA016003E00368934267
:1003800000DD026070472DE9F047824614461D46A5
:10039000DDE9086722462B46DAE90081404604F091
:1003A000D7F802D2CAE9004509E032463B46DAE90D
:1003B0000081404604F0E0F801D2CAE90067BDE8D8
:1003C000F0872DE9F04704468A461646E0B2FFF76B
:1003D000DBFE0746BAF1000F01D0384600E00020EE
:1003E000804600F00EFC054607E000F00AFC401BCA
:1003F000B04202D90020BDE8F087E0B2FFF7C4FEAA
:1004000038404045F1D006E000F0FBFB401BB04215
:1004100001D90020EFE7E0B2FFF7B6FE38404045D3
:10042000F2D100F0EEFB814606E000F0EAFB401B53
:10043000B04201D90020DEE7E0B2FFF7A5FE384068
:100440004045F2D000F0DDFBA0EB0900D3E700004F
:100450007848000820A1070000BF534A026000222C
:10046000426000BF514A02604FF47A72826000BF5E
:100470004F4A026001614F4A914202D10022027547
:100480000AE04D4A914202D10122027504E04B4A32
:10049000914201D102220275704770B504460D46A3
:1004A0002946206901F01CF970BD10B504460021F1
:1004B000206903F05EFC10BD70B504460D46207D3A
:1004C000294601F08EF970BD0146087D3C4A32F89C
:1004D00010000A7D3B4B33F81220801A00F07F0099
:1004E00070470146087D364A32F810000A7D354BC8
:1004F00033F81220904202D14FF0FF307047087D50
:10050000314A02EBC0100A7D2E4B33F81220805C7A
:10051000F4E730B50146087D294A32F810000A7D1B
:10052000284B33F81220904202D14FF0FF3030BDFB
:10053000087D254B03EBC0100B7D224C34F81330A3
:10054000C25C0B7D34F813305B1C98B2C31700EB10
:100550005363DB11A0EBC3130C7D1A4D25F8143047
:100560001046E4E710B5044600BF20680169204644
:1005700088470028F9DA10BD70B504460D462946B3
:10058000206901F026F9284670BD00B509490F48D9
:10059000FFF762FF08490E48FFF75EFF07490D4865
:1005A000FFF75AFF00BD0000A44B0008B84B00083D
:1005B000804B0008003801400044004000480040E3
:1005C00050000020560000207E010020BC000020CA
:1005D000D4000020EC000020016070473EB50446C6
:1005E000206800F091FF002010214A01CDE9002190
:1005F000029000231A464FF48271206800F0B8FF81
:100600003EBD70B504460D462946206801F004F849
:1006100070BD70B504460D4625B10021206800F07C
:10062000E7FF03E08021206800F0E2FF70BD70B5B5
:1006300004460D462946206801F014F870BD2DE9E6
:10064000F04180460C4616461F46AE48B0FBF4F417
:10065000022C01D8002518E0042C01D8082514E04C
:10066000082C01D8102510E0102C01D818250CE01A
:10067000202C01D8202508E0402C01D8282504E0B2
:10068000802C01D8302500E0382529464046FFF768
:10069000CEFF31464046FFF7BCFFF9B24046FFF7B8
:1006A000B0FFBDE8F0812DE9F04104460D46164645
:1006B0001F462046FFF792FF3B463246294620461A
:1006C000FFF7BDFFBDE8F0813EB50446206800F0AD
:1006D0001BFF00201021CDE90001029000231A46E3
:1006E0001946206800F044FF3EBD10B504460021C5
:1006F000206802F0A6FA10BD10B50446206800F08C
:1007000003FF10BD704710B504462046FFF7DCFF1D
:1007100010BD70B504460D462946206800F072FFF2
:1007200070BD2DE9F04104460D4616464FF0000815
:10073000002715E006E0781C87B2B7F5FA7F01DBE9
:10074000BDE8F0810121206802F0FFFA0028F2D014
:10075000206802F0A9FAC2B2404608F101082A5402
:10076000B045E7D300BFEBE738B504460122694640
:100770002046FFF7D6FF9DF8000038BD70B504464F
:100780000E46002505E0681C85B2B5F5FA7F00DB52
:1007900070BD0221206802F0D8FA0028F3D031465B
:1007A000206802F07FFA00BFF2E72DE9F04104462D
:1007B0000E4617460025A84614E008E008F101009F
:1007C0001FFA80F8B8F5FA7F01DDBDE8F08102215B
:1007D000206802F0BAFA0028F0D0715D206802F0BB
:1007E00061FA6D1CBD42E8D300BFEEE72DE9F04190
:1007F00004460F46002507E0681C85B2B5F5FA7F70
:1008000002DB0020BDE8F0810221206802F09DFAA1
:100810000028F1D03946206802F044FA002506E0AD
:10082000681C85B2B5F5FA7F01DB0020EAE70121FB
:10083000206802F08AFA0028F2D0206802F034FA28
:10084000C6B23046DEE72DE9F04104460E460025EB
:1008500007E0681C85B2B5F5FA7F02DB0020BDE831
:10086000F0810221206802F070FA0028F1D03146B0
:10087000206802F017FA002506E0681C85B2B5F57D
:10088000FA7F01DB0020EAE70121206802F05DFA2F
:100890000028F2D0206802F007FA07463846DEE763
:1008A0002DE9F04107460C4615460026B04609E002
:1008B0003046761C215C3846FFF760FF3846FFF76C
:1008C00053FF8046AE42F3D34046BDE8F08138B5D1
:1008D00005460C460094012269462846FFF7E0FFD2
:1008E00038BD10B504462046FFF73EFF10BD00B5E9
:1008F00005490648FFF770FE05490648FFF76CFEFC
:1009000000BD000000A24A040030014000000020A9
:10091000003800400400002070B504460D4694F8ED
:10092000540000F088F994F855002946FFF717FCA9
:10093000012D06D100BF94F85500FFF725FC0028D3
:10094000F9D070BD70B504460D4694F8540000F01F
:1009500072F994F856002946FFF701FC70BD10B5F6
:10096000044600212046FFF7EDFF00212046FFF757
:10097000D3FF10BD10B5044600212046FFF7E2FF6B
:1009800001212046FFF7C8FF01212046FFF7DAFFCB
:1009900010BD70B5044600212046FFF7BDFF0121C0
:1009A0002046FFF7CFFF01212046FFF7B5FF94F85F
:1009B0005600FFF7E9FB08B9012000E000200546DA
:1009C00000212046FFF7A8FF284670BD10B5044659
:1009D00000212046FFF7B6FF01212046FFF79CFFCC
:1009E00000212046FFF798FF10BD10B504460121F5
:1009F0002046FFF7A7FF01212046FFF78DFF0021CA
:100A00002046FFF789FF10BD70B50546002601217D
:100A10002846FFF797FF002411E001212846FFF741
:100A20007BFF95F85600FFF7AFFBC4F10701884044
:100A30003043C6B200212846FFF76EFF641C082C25
:100A4000EBDB304670BD70B506460D46002415E060
:100A5000C4F1070201209040284008B1012000E0C5
:100A6000002001463046FFF76DFF01213046FFF7B9
:100A700053FF00213046FFF74FFF641C082CE7DBD3
:100A800070BD70B504460021618120794006060ED4
:100A9000E088012801D146F001062046FFF75FFFFC
:100AA00031462046FFF7CFFF2046FFF772FF20B9FF
:100AB0002046FFF75FFF022070BDE088012818D1B3
:100AC00012E02046FFF7A0FF6289511C6181E168B6
:100AD000885461892089814203DA2046FFF776FF36
:100AE00002E02046FFF781FF618920898142E8DB2F
:100AF00017E0002512E0E068415D2046FFF7A3FF04
:100B00002046FFF746FF20B92046FFF733FF0320BA
:100B1000D2E76089401C6081681CC5B22089A84268
:100B2000E9DC2046FFF726FF0020C5E710B5214C81
:100B3000046000BF204C046080F8543080F85510E9
:100B400080F8562010BD70B504460D46002004F80C
:100B5000520F607004F8220C04F8210CE078142184
:100B6000FFF7D1FA2079523C1421FFF7CCFA01218A
:100B70002046FFF7D1FE01212046FFF7E3FE70BDBE
:100B80000D490160002180F8551080F8561000BF13
:100B900000BF00BF704710B5002317221621074879
:100BA000FFF7C4FF0446064AAFF22B0103F09CFD99
:100BB00010BD0000EC4B0008DC4B000804010020D5
:100BC0000000000822484FF0E021486100208861C1
:100BD0000846006940F0040008610846006940F0DA
:100BE000020008610846006940F001000861704792
:100BF00018480068401C174908607047154800688D
:100C000070474FF0E02080691149081A4821B0FB75
:100C1000F1F01049096801EB4102C2EBC11100EB90
:100C2000C10070470B4A116800BF0A4A1268521A85
:100C30008242FAD9704710B50346FFF7E2FF044637
:100C400000BFFFF7DEFF001B9842FAD910BD00007D
:100C500040190100080000202DE9FE4F81460E4694
:100C600017469846DDF830A0484600F0A8F904463B
:100C70000F2C01DDBDE8FE8F8A4840F82460012179
:100C8000084601F0AFFE484600F057F9834621467A
:100C900001F002FD0120A040019000208DF8080025
:100CA0008DF8097001208DF80A0001A801F0FEFA04
:100CB000042C11DC052C0ED2DFE804F00305070933
:100CC0000B00062507E0072505E0082503E00925B8
:100CD00001E00A2500BF0AE0052C03DB092C01DC3A
:100CE000172504E00A2C02DB0F2C00DC2825E8B2D3
:100CF0008DF800008DF801808DF802A001208DF89C
:100D00000300684600F009FF00BFB3E7F8B50446EA
:100D10000D46164601200223324629460090204601
:100D2000FFF79AFFF8BD10B5012001F025FB28B1AF
:100D30005C4908688047012001F02FFB10BD10B509
:100D4000022001F019FB28B156494868804702206B
:100D500001F023FB10BD10B5042001F00DFB28B1FC
:100D6000504988688047042001F017FB10BD10B57A
:100D7000082001F001FB28B14A49C86880470820D3
:100D800001F00BFB10BD10B5102001F0F5FA28B1F1
:100D9000444908698047102001F0FFFA10BD10B5E2
:100DA000202001F0E9FA28B13E4948698047202017
:100DB00001F0F3FA402001F0DFFA28B139498869DF
:100DC0008047402001F0E9FA802001F0D5FA28B1EF
:100DD0003449C8698047802001F0DFFA4FF4807001
:100DE00001F0CAFA30B12F49086A80474FF4807089
:100DF00001F0D3FA4FF4007001F0BEFA30B1294986
:100E0000486A80474FF4007001F0C7FA10BD10B572
:100E10004FF4806001F0B0FA30B12249886A80470F
:100E20004FF4806001F0B9FA4FF4006001F0A4FAC9
:100E300030B11C49C86A80474FF4006001F0ADFA38
:100E40004FF4805001F098FA30B11649086B804792
:100E50004FF4805001F0A1FA4FF4005001F08CFAE9
:100E600030B11049486B80474FF4005001F095FABB
:100E70004FF4804001F080FA30B10A49886B804716
:100E80004FF4804001F089FA4FF4004001F074FA09
:100E900030B10449C86B80474FF4004001F07DFA3F
:100EA00010BD0000100000202DE9F84305460F4654
:100EB000164698464848854201D104241FE0474819
:100EC000854201D108241AE04548854201D1102409
:100ED00015E04448854201D1202410E04248854273
:100EE00001D140240BE04148854201D1802406E035
:100EF0003F48854201D1841501E0BDE8F8831C2EEE
:100F000001D0182E05D144F00100012101F06AFD45
:100F100003E00121204601F065FDADF800708DF879
:100F200003608DF802806946284601F09FFA00BFF1
:100F3000E3E7C2684A40C260704701462D4800EBB3
:100F400001100068244A904201D1002070472948CE
:100F500000EB01100068214A904201D10120F5E721
:100F6000244800EB011000681D4A904201D1022084
:100F7000ECE7204800EB011000681A4A904201D1CA
:100F80000320E3E71B4800EB01100068164A90427B
:100F900001D10420DAE7174800EB01100068134A7A
:100FA000904201D10520D1E7124800EB0110006802
:100FB0000F4A904201D10620C8E7FF20C6E701464C
:100FC00000200C4B03EB01139A8902E05210431CE2
:100FD000D8B2012AFADC704700080140000C014039
:100FE000001001400014014000180140001C0140A5
:100FF000002001407848000810B500210846FFF79E
:1010000082F800210120FFF77EF800210220FFF77F
:101010007AF800210320FFF776F800210420FFF77B
:1010200072F800210520FFF76EF800210620FFF777
:101030006AF800210720FFF766F810BD00B591B0EF
:101040000121084601F0C1FC0121480201F0CAFC5F
:101050009B4800F0F3FF9B4806909B4807900020B8
:1010600008900820099000200A9080200B904000F2
:101070000C9080000D9020200E9000020F90002018
:10108000109006A98E4801F07BF801218C4801F0F0
:10109000A2F80020019001208DF808008DF80900C9
:1010A0004FF4602003900020049008208DF8140075
:1010B00001A984484C3800F0C0FD4FF4404001F0D5
:1010C000F5FB8248C17B052301227E484C3800F0A5
:1010D0004CFE7E48C17F052302227A484C3800F03E
:1010E00044FE7A4890F82F100523032275484C38A7
:1010F00000F03BFE754890F83F100523042271482C
:101100004C3800F032FE714890F84F1005231A4613
:101110006C484C3800F029FE6C4890F85F100523AD
:10112000062268484C3800F020FE684890F86F109E
:101130000523072263484C3800F017FE634890F8F7
:101140007F10052308225F484C3800F00EFE012175
:101150005C484C3800F0A8FD01215A484C3800F09A
:1011600098FD58484C3800F0B6FD00BF55484C3843
:1011700000F0B6FD0028F9D152484C3800F0BAFD15
:1011800000BF50484C3800F0BAFD0028F9D10121C9
:101190004C484C3800F0BDFD11B000BD10B5FFF754
:1011A0002BFFFFF74BFF10BD0146474830F81100F9
:1011B000704700B585B00121480201F013FC4FF4DF
:1011C000004001F073FB3F484C3800F00FFD002059
:1011D00000908DF804008DF805004FF46020029017
:1011E0000020039001208DF81000694635484C38E6
:1011F00000F023FD012133484C3800F04AFD31480E
:101200004C3800F068FD00BF2E484C3800F068FDF7
:101210000028F9D12B484C3800F06CFD00BF29485C
:101220004C3800F06CFD0028F9D1012125484C38DC
:1012300000F06FFD05B000BD70B505460024E9B2B1
:10124000072301221F484C3800F08FFD002613E0D1
:1012500001211C484C3800F05CFD00BF02211948F8
:101260004C3800F0C7FE0028F8D016484C3800F083
:10127000E3FD0444701CC6B2082EE9DBE408A0B20A
:1012800070BD10B504468CB1012C0FD0022C0DD0CE
:10129000032C0BD0042C09D0052C07D0062C05D02C
:1012A000072C03D0102C01D0112C06D1074901EBDB
:1012B0000411C87BFFF7C0FF10BD0020FCE7000051
:1012C000080002404C2401405C01002078480008DE
:1012D000F0B587B004460D4616461F468448844242
:1012E00004D10121C01401F07DFB16E0B4F1804F60
:1012F00004D10121084601F082FB0EE07D488442C2
:1013000004D10121022001F07AFB06E07A488442F0
:1013100003D10121042001F072FBADF81450ADF8A7
:1013200010600020ADF81600ADF8120004A92046A8
:1013300001F016FE7020ADF800000120ADF80200AB
:101340000220ADF80800012F06D0022F0DD0032F88
:1013500014D0042F24D11AE06946204601F03DFE46
:101360000821204602F088FA1AE06946204601F07A
:1013700076FE0821204602F088FA11E069462046F0
:1013800001F0BAFE0821204602F08CFA08E0694616
:10139000204601F0FCFE0821204602F08CFA00BF36
:1013A00000BF0121204602F037F95148844202D0A3
:1013B0005248844203D10121204602F039F907B096
:1013C000F0BD2DE9F04104460D461746082C1FD00C
:1013D000092C1DD00A2C1BD00B2C19D0C4B1012C08
:1013E00016D0022C14D0032C12D0062C10D0072CAF
:1013F0000ED0102C0CD0112C0AD0162C08D0172C83
:1014000006D0182C04D0192C02D00020BDE8F081A1
:1014100018212046FEF777FE2E46394890FBF5F05E
:1014200090FBF7F8374901EB04114868002102F0FE
:10143000F3F8DFF8D0C00CEB041C9CF80E30A8F1D8
:10144000010C1FFA8CF2A6F1010C1FFA8CF1DFF8E7
:10145000B4C00CEB041CDCF80400FFF739FF204695
:10146000D4E70246274800EB0210807B012806D013
:1014700002280AD003280ED0042819D111E02148EF
:1014800000EB02104068818612E01E4800EB02105B
:10149000406801870CE01B4800EB02104068818720
:1014A00006E0184800EB02104068A0F8401000BFAA
:1014B00000BF0846704702460020012906D00229D5
:1014C00006D0032906D0042909D105E0908E06E054
:1014D000108F04E0908F02E0B2F8400000BF00BF20
:1014E000704701857047818570470121818270476F
:1014F000002C01400004004000080040003401407E
:1015000000A24A047848000838B5044670482044D0
:10151000A8B1B0F5784F29D1012141F2040001F0C2
:1015200061FAE020ADF8000018208DF803000320D8
:101530008DF802006946674800F098FF16E0012127
:10154000880301F05CFA0121082001F04BFA4FF406
:101550006040ADF8000018208DF8030003208DF8DE
:10156000020069465C4800F081FF00BF00BF38BD43
:101570002DE9FF5F0E4617469846DDE90FABDDF813
:1015800038900021009801F05CFBB8F1000F09D001
:10159000B8F1010F09D0B8F1020F09D0B8F1030F6B
:1015A0000CD108E00024002508E00024012505E016
:1015B0000224002502E00224012500BF00BF002014
:1015C00046490880084646808780C4800581A0F887
:1015D0000A90A0F80CA0A0F80EB00720088200988E
:1015E00001F08AFA0121009801F02BFBBDE8FF9F72
:1015F00070B505460C463948C4810146284601F0BD
:101600007BFA70BD70B505460C46344884800146AF
:10161000284601F071FA70BD2DE9F04107460E46EB
:101620000021384601F00DFB36B1012E07D0022E05
:1016300008D0032E0CD108E00024002508E0002487
:10164000012505E00224002502E00224012500BF57
:1016500000BF2248C48005810146384601F04CFA9B
:10166000BDE8F08170B505460C461C4884810146F2
:10167000284601F041FA70BD2DE9F04106460F46BB
:10168000002406E0601CC4B2C82C02DD0020BDE8C6
:10169000F0810221304601F058FB0028F2D0394693
:1016A000304601F0FFFA002405E0601CC4B2C82CEB
:1016B00001DD0020EBE70121304601F046FB002868
:1016C000F3D0304601F0F0FAC5B22846DFE700005B
:1016D00000C8FFBF00080140000C01406C01002061
:1016E0002DE9F04387B0814688468848484480B158
:1016F000B0F5806F1AD0B0F5744F25D1012144F2B6
:10170000040001F06FF94FF400746500804F252646
:101710001AE00121480401F072F90121042001F0CE
:1017200061F9042408257A4F26260DE0012188045A
:1017300001F065F90121082001F054F94FF48064AB
:101740006500744F272600BF00BFA0B2ADF8180097
:1017500003208DF81A0018208DF81B0006A93846C2
:1017600000F084FEA8B2ADF8180004208DF81B002C
:1017700006A9384600F07AFEF0B28DF80400032086
:101780008DF805008DF8060001208DF8070001A8EE
:1017900000F0C3F9CDF808800020ADF80C00ADF8DA
:1017A0000E00ADF81000ADF814000C20ADF81200DA
:1017B00002A9484602F051FA012240F2255148465A
:1017C00002F0E3FA0121484602F0D3FA07B0BDE87F
:1017D000F08300BF028802F04002002AFAD0818024
:1017E00070474D4A42F82010704770B540F22551BD
:1017F0004A4802F0AFFB30B3484802F02BFBC5B2B9
:1018000047490988491C88B2C11700EB5161C911C9
:10181000A0EBC1118CB243480088A04205D04048DB
:10182000008841490D543E4804803B4800683F49C8
:10183000884202D038490868804740F2255137482D
:1018400002F0B2FB00BF70BD70B540F225512F48C9
:10185000404202F07FFB48B32C48404202F0FAFAC3
:10186000C5B22F494988491C88B2C11700EB5161A4
:10187000C911A0EBC1118CB22A484088A04206D001
:1018800027484188284880304554254844802248CC
:1018900040682649884202D01F494868804740F284
:1018A00025511A48404202F07FFB00BF70BD70B561
:1018B00040F225511E4802F04DFB30B31C4802F0A7
:1018C000C9FAC5B216498988491C88B2C11700EB0C
:1018D0005161C911A0EBC1118CB212488088A0429D
:1018E00005D00F488188134845540D4884800A4824
:1018F00080680E49884202D007498868804740F2D4
:1019000025510B4802F050FB00BF70BD00BCFFBF6B
:1019100000080140000C01405C000020003801403C
:1019200050000020560000207E0100200501000824
:10193000004800407E0200202DE9FF4F85B081461F
:101940000C469346B9F1070F02DD09B0BDE8F08FF0
:10195000644840F829B004EBC400C400B4F5076F34
:1019600003D20A25B4FBF5FA0FE05F48844206D2A1
:101970004FF47A70B4FBF0F5B4FBF5FA05E044F6E9
:101980002060B4FBF0F5B4FBF5FAB9F1000F09D013
:10199000B9F1010F0BD0B9F1020F0ED0B9F1030F5D
:1019A00015D10FE0514EF7144FF019080FE04FF02A
:1019B000804601274FF01C0809E04D4E02274FF0EA
:1019C0001D0804E04B4E04274FF01E0800BF00BF67
:1019D0004648864202D04848864204D10121384612
:1019E00001F000F803E00121384601F008F8304624
:1019F00001F0E2F900208DF81000681E80B2ADF809
:101A00000C00AAF1010080B2ADF808000020ADF88A
:101A10000E00ADF80A0002A9304601F0A1FA4FF419
:101A2000C06000F075F88DF8048008988DF8050006
:101A300012988DF8060001208DF8070001A800F02B
:101A40006CF80121304602F0ADF801221146304613
:101A500001F0FDFD00BF78E7F8B504460D461646D7
:101A6000032000233246294600902046FFF764FFFA
:101A7000F8BD10B501211D4802F097F830B11949A1
:101A8000086880470121194802F0A0F810BD10B580
:101A90000121880702F089F830B11249486880476F
:101AA0000121880702F092F810BD10B501211048FD
:101AB00002F07BF830B10B498868804701210C485F
:101AC00002F084F810BD10B501210A4802F06DF84B
:101AD00030B10449C86880470121064802F076F811
:101AE00010BD00006800002018FCE703002C014036
:101AF0000004004000080040003401407047704777
:101B0000FFF760F8FFF7FAFF00BFFFF7F8FFFCE709
:101B100031490143314A1160704770B500210023FB
:101B20000F22C47804B32D4C246804F4E064C4F597
:101B3000E064210AC1F10403CA40447804FA03F1C5
:101B40008478144021430901254C0678A155047876
:101B500004F01F050124AC4005786D11AD0005F1BE
:101B6000E025C5F8004109E0047804F01F050124D0
:101B7000AC401C4D0678761145F8264070BD1A4AD7
:101B80000A400243154B1B1F1A60704739B1134AB4
:101B9000121D12680243114B1B1D1A6006E00F4A0A
:101BA000121D126882430D4B1B1D1A6070470428DA
:101BB00008D14FF0E021096941F004014FF0E02223
:101BC000116107E04FF0E021096921F004014FF0B5
:101BD000E0221161704700000000FA050CED00E002
:101BE00000E400E080E100E080FFFF1F10B5044644
:101BF000FA48844208D10121401500F00DFF002170
:101C0000601500F009FF17E0F548844208D1012172
:101C1000001500F001FF0021201500F0FDFE0BE093
:101C2000F048844208D10121C80300F0F5FE0021EC
:101C30004FF4004000F0F0FE10BD30B50246002029
:101C400000235068E84C20400D790C6844EA0524D4
:101C5000204350609068E54C2040D1E902542C4369
:101C60004D7944EA450420439060D06A20F4700026
:101C70000C7C641EE4B2234340EA0350D06230BDC2
:101C800000210160017141718160C1600121017415
:101C9000704721B1826842F00102826003E08268ED
:101CA00022F001028260704721B1826842F48072A2
:101CB000826003E0826822F480728260704710B50F
:101CC0000023CBB21AB144681C43446002E044686C
:101CD0009C43446010BD816841F0080181607047F9
:101CE000014600208A6802F008020AB1012000E0E3
:101CF00000207047816841F004018160704701460F
:101D000000208A6802F004020AB1012000E00020ED
:101D1000704721B1826842F4A002826003E08268C9
:101D200022F4A00282607047014600208A6802F413
:101D300080020AB1012000E00020704710B50A4679
:101D400000210023416821F46041531E41EA4331E0
:101D5000416010BD21B1426842F40062426003E07C
:101D6000426822F4006242607047F0B504460D46B6
:101D700000200021092D11DDE068A5F10A0606EB1F
:101D80004607072606FA07F18843A5F10A0606EB7F
:101D9000460603FA06F10843E0600CE0206905EB13
:101DA0004507072606FA07F1884305EB450603FABF
:101DB00006F108432061072A0FDA606B561E06EB16
:101DC00086071F2606FA07F18843561E06EB86068D
:101DD00005FA06F10843606322E00D2A0FDA206B52
:101DE000D61F06EB86071F2606FA07F18843D61F83
:101DF00006EB860605FA06F10843206310E0E06A68
:101E0000A2F10D0606EB86071F2606FA07F18843A6
:101E1000A2F10D0606EB860605FA06F10843E0621C
:101E2000F0BD21B1826842F48012826003E08268D2
:101E300022F48012826070470146C86C80B27047FD
:101E400066484C300068704721B1426842F48062B5
:101E5000426003E0426822F480624260704721B130
:101E6000426842F48052426003E0426822F48052A9
:101E7000426070470A460021816821F4E041114325
:101E80008160704721B1826842F40042826003E0C1
:101E9000826822F400428260704721B1826842F475
:101EA0000212826003E0826822F4021282607047AC
:101EB000014600208A6802F400120AB1012000E005
:101EC00000207047F0B50446154600200022002689
:101ED000092911DDE068A1F10A0707EB470C072784
:101EE00007FA0CF29043A1F10A0707EB470703FA40
:101EF00007F21043E0600CE0206901EB410C07277A
:101F000007FA0CF2904301EB410703FA07F2104382
:101F10002061A06BC0F30156EF1C06F1010CA7EB8A
:101F20000C0707EB870C1F2707FA0CF29043EF1CF6
:101F300006F1010CA7EB0C0707EB870701FA07F284
:101F40001043A063F0BD10B50A4600210023816B49
:101F500021F44011531E41EA0351816310BD08B5BD
:101F6000002300930090009B0B440093009B1A6099
:101F700008BD08B5024600200090009201F128003B
:101F8000009B184400900098006880B208BD0A4683
:101F900000214168164B194011434160704741626E
:101FA000826270470A460021416821F01F011143F7
:101FB0004160704740B109490831096841F40001A6
:101FC000064A0832116007E004490831096821F423
:101FD0000001024A083211607047000000240140ED
:101FE00000280140003C0140FFFEF0FFFDF7F1FF3B
:101FF000FFFD3FFF0246002013680B400BB101209C
:1020000000E000207047CA430260704770B5024686
:102010000020002300240B125568CEB205EA060406
:1020200015681D4015B10CB1012000E0002070BD05
:1020300000220A12D34303607047000001684FF684
:10204000FE72114001600021016041608160C16049
:102050008D49884208D18C490839496841F00F01FF
:10206000894A083A51608AE087491431884208D188
:1020700085490839496841F0F001834A083A5160BE
:102080007DE081492831884208D17F490839496873
:1020900041F470617C4A083A516070E07A493C3101
:1020A000884208D178490839496841F47041764A34
:1020B000083A516063E074495031884208D172494E
:1020C0000839496841F470216F4A083A516056E076
:1020D0006D496431884208D16B490839496841F437
:1020E0007001694A083A516049E06749783188428D
:1020F00008D165490839496841F07061624A083A77
:1021000051603CE06149884206D1011F096841F0F5
:102110000F01021F116032E05C491431884208D17E
:102120005A49091F096841F0F001584A121F11600D
:1021300025E056492831884208D15449091F0968C9
:1021400041F47061514A121F116018E04F493C314F
:10215000884208D14D49091F096841F470414B4A32
:10216000121F11600BE049495031884207D147499D
:10217000091F096841F47021444A121F1160704719
:1021800010B50022026847F6F0739A430C6A8B6818
:1021900023430C6923434C6923438C692343CC6953
:1021A00023434C6A23438C6A23431A430260CB685F
:1021B00043600B6883604B68C36010BD0021016001
:1021C00041608160C160016141618161C161016201
:1021D00041628162704721B1026842F001020260EF
:1021E00004E002684FF6FE731A40026070471AB1AD
:1021F00003680B43036002E003688B43036070478E
:10220000416070470146486880B27047014600202F
:10221000002201F080531BB11C4B083B1A6802E0FE
:10222000194B083B1A6802EA01030BB1012000E0D8
:102230000020704700F0805119B11449091F08604F
:1022400002E0114908394860704701460020002229
:1022500001F080531BB10D4B083B1A6802E00A4B9A
:10226000083B1A6802EA01030BB1012000E00020DC
:10227000704700F0805119B10449091F086002E05D
:1022800001490839486070470800024008040240CC
:10229000002044490860091D0860091D0860091DE7
:1022A000086041483F4914310860704700213D49AA
:1022B0008279002A3AD00A46126803689A430B468C
:1022C0001A600A1D126803689A430B1D1A6002798E
:1022D00011440A6803681A430A60324A08321268D5
:1022E00003689A432F4B08331A601A1D126803685B
:1022F0009A432C4B0C331A604279102A0ED11A1FC4
:10230000126803681A43274B08331A601A1D1268B3
:1023100003681A43234B0C331A600DE021494279BC
:1023200011440A6803681A430A6005E002791144FF
:102330000A6803689A430A607047002101600171CE
:102340000C214171002181717047164910310968D3
:102350000143144A10321160704701460020114AAF
:10236000143212680A400AB1012000E000207047D0
:102370000C49143108607047014600200022094BC7
:102380001B6803EA0102074B14331B680B4013B1AF
:102390000AB1012000E000207047024914310860B2
:1023A0007047000000040140FFFF0F0010B5044615
:1023B000CC48844208D10121042000F02DFB0021EB
:1023C000042000F029FB46E0C748844208D10121DF
:1023D000082000F021FB0021082000F01DFB3AE05E
:1023E000C248844208D10121102000F015FB0021D1
:1023F000102000F011FB2EE0BD48844208D10121DD
:10240000202000F009FB0021202000F005FB22E045
:10241000B848844208D10121402000F0FDFA002193
:10242000402000F0F9FA16E0B348844208D10121B7
:10243000802000F0F1FA0021802000F0EDFA0AE09F
:10244000AE48844207D10121801500F0E5FA002151
:10245000A01500F0E1FA10BD10B50121084600F00A
:10246000DBFA0021012000F0D7FA10BD2DE9F04180
:10247000024600250026002000230024002791F8B2
:1024800003C00CF00F0591F803C00CF0100CBCF168
:10249000000F03D091F802C04CEA050591F800C086
:1024A000BCF1000F31D0146800202BE04FF0010C7C
:1024B0000CFA00F3B1F800C00CEA03069E4220D1EA
:1024C00083004FF00F0C0CFA03F7BC4305FA03FC32
:1024D0004CEA040491F803C0BCF1280F06D14FF078
:1024E000010C0CFA00FCC2F814C00AE091F803C019
:1024F000BCF1480F05D14FF0010C0CFA00FCC2F8FA
:1025000010C0401C0828D1D31460B1F800C0BCF141
:10251000FF0F34DD546800202EE000F1080C4FF06E
:10252000010808FA0CF3B1F800C00CEA03069E4259
:1025300021D183004FF00F0C0CFA03F7BC4305FACE
:1025400003FC4CEA040491F803C0BCF1280F05D148
:1025500000F1080C08FA0CF8C2F8148091F803C0D6
:10256000BCF1480F07D100F1080C4FF0010808FA40
:102570000CF8C2F81080401C0828CED35460BDE887
:10258000F0814FF6FF710180022181700421C1703A
:1025900070470246002093680B400BB1012000E019
:1025A000002070470146886880B2704702460020CC
:1025B000D3680B400BB1012000E0002070470146BA
:1025C000C86880B2704701617047416170470AB1C5
:1025D000016100E041617047C16070474FF4803293
:1025E0000A43826181618261826982697047024621
:1025F0000020434B18684FF68073184040EA0210E1
:1026000008433F4B186070473E49C8617047F0B5BA
:102610000A46002300240021002500F00046B6F100
:10262000004F02D1364EF16901E0354E7168C0F3BA
:10263000034583B200F44016B6F5401F08D121F0DF
:1026400070612F4E766826F070662D4F7E6012E026
:1026500000F48016B6F5801F06D1032606FA05F4AD
:10266000A14341F0706106E0460D360103FA06F61B
:10267000B14341F0706122B1460D360103FA06F60E
:10268000314300F00046B6F1004F02D11C4EF1611B
:1026900001E01B4E7160F0BD30B500228B071C0FAE
:1026A0000F2303FA04F2164B08338C1053F824302E
:1026B0009343134C08348D1044F8253023468C1076
:1026C00053F824308C07240F00FA04F423430C4CF5
:1026D00008348D1044F8253030BD0A49DC310860DB
:1026E0007047000000080140000C0140001001404C
:1026F0000014014000180140001C0140002001406E
:102700000000014000002042DF48006840F0010066
:10271000DD49086008464068DC490840DA494860FD
:1027200008460068DA490840D7490860084600684A
:1027300020F4802008600846406820F4FE004860CD
:102740004FF41F0088607047CF49096821F4803139
:10275000CD4A11601146096821F480211160B0F55D
:10276000803F03D0B0F5802F0ED106E0C64909683E
:1027700041F48031C44A116007E0C349096841F45B
:10278000A021C14A116000E000BF00BF704710B532
:1027900001460022002300204A11012A02D1BA4C2E
:1027A000236806E0022A02D1B74C236A01E0B64C46
:1027B000636A01F01F02012494401C400CB1012007
:1027C00000E0002010BD38B5002000900024002556
:1027D00000BF3120FFF7DBFF05460098401C00904A
:1027E0000098B0F5A06F01D0002DF2D03120FFF796
:1027F000CEFF08B1012400E00024204638BD014688
:102800000020A14A106820F0F80040EAC1001060E2
:102810007047A04908607047024600209A4B5868EC
:1028200020F47C1042EA01031843974B586070472C
:1028300098490866704701460020934A506820F086
:1028400003000843506070478F48406800F00C0058
:102850007047014600208C4A506820F0F000084381
:102860005060704701460020874A506820F4E060BD
:1028700008435060704701460020834A506820F4A6
:10288000605040EAC1005060704729B17E4A527AD8
:1028900002437D4B5A7204E07B4A527A82437A4B60
:1028A0005A7270477B49D831086070470146002052
:1028B000754A506820F4404008435060704700213A
:1028C000714A20321170704A82F82010012802D01B
:1028D00004280AD104E001216B4A2032117005E07E
:1028E0000521694A2032117000E000BF00BF704727
:1028F0006949086070476449096A0143624A116284
:102900007047654944390860704730B5002100229E
:10291000002400235C4D6D6805F00C0121B10429F1
:1029200005D0082923D105E05C4D056022E05B4D10
:1029300005601FE0544D6D6805F47012524D6D68CE
:1029400005F48034022505EB92421CB9544D5543E1
:1029500005600BE04C4D6D6805F400351DB1504D20
:102960005543056002E04D4D5543056002E04B4D77
:10297000056000BF00BF444D6D6805F0F001090916
:10298000484D6B5C0568DD4045603F4D6D6805F462
:10299000E061090A434D6B5C4568DD4085603A4D56
:1029A0006D6805F46051C90A3E4D6B5C4568DD40B9
:1029B000C560354D6D6805F44041890B3A4D6B5C3F
:1029C000C568B5FBF3F5056130BD29B12E4A5269E2
:1029D00002432D4B5A6104E02B4A526982432A4B31
:1029E0005A61704729B1284A92690243264B9A617D
:1029F00004E0254A92698243234B9A61704729B1CA
:102A0000214AD2690243204BDA6104E01E4AD269AE
:102A100082431D4BDA61704729B11B4AD2680243D9
:102A2000194BDA6004E0184AD2688243164BDA6028
:102A3000704729B1144A12690243134B1A6104E02A
:102A4000114A12698243104B1A617047124940398A
:102A5000086070470F49C86470470B49C8717047D8
:102A60000948406A40F08070074948627047014653
:102A70000020054A92680A400AB1012000E00020C7
:102A80007047014988727047001002400000FFF84B
:102A9000FFFFF6FE000042428004424200127A002C
:102AA00000093D00880000209800002010B5044671
:102AB000BE48844208D101218014FFF7ADFF0021F8
:102AC000A014FFF7A9FF16E0B948844208D10121FC
:102AD0000014FFF7AEFF00212014FFF7AAFF0AE061
:102AE000B448844207D10121C013FFF7A2FF00219F
:102AF000E013FFF79EFF10BD10B50022028802F41C
:102B000041520B884C8823438C882343CC88234331
:102B10000C8923434C8923438C892343CC89234349
:102B20001A430280838B4FF2FF74234083830B8A06
:102B3000038210BD2DE9F04F85B005460C464FF0DD
:102B4000000902274FF000084FF0010B0026B246A3
:102B5000A88B4FF240010840A88302202884B5F8D2
:102B60001C90A068022801D100BF38E0A08810B9ED
:102B70004FF0010B01E04FF0020B8D48854200D170
:102B800000E000BF6846FFF7C0FEDDF800A0E08867
:102B9000B0F5007F0AD14FEA1A2000EB8000400018
:102BA000A168B0FBF1F0401D86B20BE04FEA4B107C
:102BB000BAFBF0F000EB80004000A168B0FBF1F040
:102BC000401D86B20A20B6FBF0F606F00108A6EB1F
:102BD0000800C0F34F074FF6FF7000EA0828022FE5
:102BE00001DBFF2F02DD02274FF00008E08840EAFA
:102BF000080038432884A088A189084361880843D5
:102C00002188084340F4006040EA0909A5F81C90B7
:102C100005B0BDE8F08F0021018041808180C18036
:102C2000018141818181C181072101827047002199
:102C3000018041808180C1800221816000218181E9
:102C4000704721B1028842F04002028004E002880D
:102C50004FF6BF731A400280704721B1828B42F455
:102C60008062828304E0828B4FF6FF331A408283B6
:102C7000704730B5002400230C110125A540ABB2EC
:102C80001AB185881D43858002E085889D43858033
:102C900030BD1AB183880B43838002E083888B4365
:102CA00083807047818170470146888970474FF65D
:102CB000FF62914204D0028842F48072028004E0F4
:102CC00002884FF6FF631A400280704721B1828864
:102CD00042F00402828004E082884FF6FB731A40BF
:102CE0008280704702884FF2FF731A400280028888
:102CF0000A4302807047018841F480510180704787
:102D000021B1028842F40052028004E002884DF6AC
:102D1000FF731A400280704702460020012901D04B
:102D2000108B00E0908A70470146088A7047B1F521
:102D3000804F04D1028842F48042028004E002887D
:102D40004BF6FF731A400280704702460020138939
:102D50000B400BB1012000E000207047CA43028104
:102D60007047F0B50246002000240023002501F042
:102D70000F070126BE40B4B20B1101269E40B3B22C
:102D8000968806EA03051689264016B10DB1012082
:102D900000E00020F0BD10B5002201F00F04012377
:102DA000A3409AB2D343038110BD0000003001401C
:102DB00000380040003C004010B50446FE48844204
:102DC00008D10121C014FFF727FE0021E014FFF70E
:102DD00023FEC4E0B4F1804F08D101210846FFF77B
:102DE00028FE00210120FFF724FEB8E0F3488442CA
:102DF00008D101210220FFF71CFE00210220FFF76D
:102E000018FEACE0EE48844208D101210420FFF70F
:102E100010FE00210420FFF70CFEA0E0E9488442E8
:102E200008D101210820FFF704FE00210820FFF748
:102E300000FE94E0E448844208D101211020FFF70D
:102E4000F8FD00211020FFF7F4FD88E0DF48844200
:102E500008D101212020FFF7ECFD00212020FFF701
:102E6000E8FD7CE0DA48844208D101214014FFF7F4
:102E7000D3FD00216014FFF7CFFD70E0D5488442F8
:102E800009D10121C804FFF7C7FD00214FF400203C
:102E9000FFF7C2FD63E0D048844209D10121080553
:102EA000FFF7BAFD00214FF48010FFF7B5FD56E0A3
:102EB000CA48844209D101214805FFF7ADFD002130
:102EC0004FF40010FFF7A8FD49E0C548844208D13F
:102ED00001214020FFF7ADFD00214020FFF7A9FDB3
:102EE0003DE0C048844208D101218020FFF7A1FDC8
:102EF00000218020FFF79DFD31E0BB48844208D1CE
:102F000001218015FFF795FD0021A015FFF791FD28
:102F100025E0B648844209D101210804FFF77CFD71
:102F200000214FF48030FFF777FD18E0B04884426D
:102F300009D101214804FFF76FFD00214FF4003053
:102F4000FFF76AFD0BE0AB48844208D101218804F9
:102F5000FFF762FD00214FF48020FFF75DFD10BDFB
:102F600000220288944B98420ED0994B98420BD085
:102F7000B0F1804F08D0914B984205D0904B9842C9
:102F800002D0904B984204D14FF68F731A404B8871
:102F90001A438D4B984207D08C4B984204D04FF681
:102FA000FF431A40CB881A4302808B8883850B88A5
:102FB0000385814B98420BD0854B984208D08B4BB0
:102FC000984205D08A4B984202D08A4B984201D150
:102FD0000B7A038601238382704770B50024002298
:102FE0000023058C4FF6FE7635400584028C8388DD
:102FF000048B4FF68F752C40B51E2C400D882C434A
:10300000751E2A400D892A434D882A436A4DA842DD
:103010000BD06F4DA84208D0744DA84205D0744D16
:10302000A84202D0734DA84213D14FF6F7752A403B
:103030004D892A434FF6FB752A408D882A434FF667
:10304000FF652B404FF6FF552B408D892B43CD89D3
:103050002B4383800483CD888586028470BD70B540
:10306000002400220023058C4FF6EF7635400584BE
:10307000028C8388048B48F6FF752C404FF6FF4581
:103080002C400D884FF6FF7606EA05252C434FF6B7
:10309000DF752A400D8906EA05152A434D8806EAA0
:1030A00005152A43444DA84202D0494DA8421DD1DE
:1030B0004FF67F752A404D894FF6FF7606EA0515D3
:1030C0002A434FF6BF752A408D8806EA05152A4324
:1030D0004FF6FF352B404FF2FF752B408D8906EAE6
:1030E00085052B43CD8906EA85052B438380048320
:1030F000CD880587028470BD70B5002400220023AE
:10310000058C4FF6FF6635400584028C8388848BDE
:103110004FF68F752C404FF6FC752C400D882C43D4
:103120004FF6FF552A400D894FF6FF7606EA052532
:103130002A434D8806EA05252A431F4DA84202D09E
:10314000234DA8421DD14FF2FF752A404D894FF6FD
:10315000FF7606EA05252A434FF6FF352A408D887B
:1031600006EA05252A434EF6FF752B404DF6FF75FE
:103170002B408D8906EA05152B43CD8906EA0515F6
:103180002B4383808483CD888587028470BD70B58E
:10319000002200230024058C4EF6FF76354005847E
:1031A000038C8488828B48F6FF752A404FF6FF45D2
:1031B0002A400D8820E00000002C0140000400405F
:1031C00000080040000C00400010004000140040C7
:1031D00000340140004C01400050014000540140C7
:1031E00000180040001C004000200040004001404A
:1031F00000440140004801404FF6FF7606EA0525ED
:103200002A434DF6FF752B400D8906EA05352B4301
:103210004D8806EA05352B43FA4DA84202D0FA4DF7
:10322000A84208D14BF6FF752C408D894FF6FF76EA
:1032300006EA85152C4384808283CD88A0F840500F
:10324000038470BD828B4FF2FF331A408283828BDE
:103250004FF6FF7303EA01231A4382837047F0B5E8
:103260000C461546002200210026078C4EF6FF7CF6
:1032700007EA0C070784828B018C4FF6FF7707EA79
:10328000043640F6FF473A404FF6FF7707EA052736
:103290003A434FF6FF7707EA03373A43D94FB8422C
:1032A0000ED0D94FB8420BD0B0F1804F08D0D74FD5
:1032B000B84205D0D64FB84202D0D64FB84206D158
:1032C0004DF6FF77394046F48057394305E047F61D
:1032D000FF57394044F48057394382830184F0BD5D
:1032E000828B4FF6F3731A408283828B0A43828368
:1032F0007047F0B50C461546002200210026078CC9
:103300004FF6FF6C07EA0C070784828B018C4FF69F
:10331000FF7707EA04264FF60C773A404FF6FF771F
:1033200007EA03172F433A43B64FB8420ED0B64FC1
:10333000B8420BD0B0F1804F08D0B44FB84205D09E
:10334000B34FB84202D0B34FB84206D14FF6FF5741
:10335000394046F48077394305E04FF2FF57394052
:1033600044F48077394382830184F0BD028B4FF2AD
:10337000FF331A400283028B4FF6FF7303EA0123E7
:103380001A4302837047F0B50C461546002200210F
:103390000026078C4FF6EF7C07EA0C070784028BA8
:1033A000018C4FF6FF7707EA041640F6FF473A40D4
:1033B0004FF6FF7707EA03373A434FF6FF7707EAFE
:1033C00005273A438F4FB8420ED08F4FB8420BD0EB
:1033D000B0F1804F08D08D4FB84205D08C4FB84225
:1033E00002D08C4FB84206D14FF6DF77394046F015
:1033F0001007394305E04FF65F77394044F0100776
:10340000394302830184F0BD028B4FF6F3731A40F7
:103410000283028B0A4302837047F0B50C461546BF
:1034200000220021068C4FF6FE773E400684028B78
:10343000018C4FF60C7632407E1C06EA03162E43B2
:103440003243704EB0420ED06F4EB0420BD0B0F14E
:10345000804F08D06D4EB04205D06D4EB04202D0C4
:103460006C4EB04206D14FF6FD76314044F0010675
:10347000314305E04FF6F576314044F00106314323
:1034800002830184F0BD70B505460C465D48854257
:103490000ED05D4885420BD0B5F1804F08D05B4817
:1034A000854205D05A48854202D05A48854200D10B
:1034B00000E000BF208850B92389A288618828468F
:1034C000FFF7ABFFE1882846FFF79EFF25E0208845
:1034D00004280AD12389A28861882846FFF753FF70
:1034E000E1882846FFF742FF17E0208808280AD124
:1034F0002389A28861882846FFF7FBFEE1882846D9
:10350000FFF7EEFE09E02389A28861882846FFF7CD
:10351000A6FEE1882846FFF795FE70BD2DE9F04133
:1035200005460C4600260127608808B9022600E0FF
:103530000026A088012801D1022700E00127208869
:10354000A0B92389A28861882846FFF766FFE18831
:103550002846FFF759FF23893A4631462846FFF7A8
:1035600012FFE1882846FFF701FF13E02389A288B4
:1035700061882846FFF707FFE1882846FFF7F6FE37
:1035800023893A4631462846FFF747FFE188284617
:10359000FFF73AFFBDE8F0810A884B881A438B8811
:1035A0001A43CB881A430B891A434B891A438B89D8
:1035B0001A43A0F8442070474FF6FF718180002124
:1035C0000180C180418001727047002101804180EB
:1035D0008180C180018141818181C1817047002149
:1035E00001804180012181800021C18001817047DB
:1035F0000021018041808180C180018141818181E0
:1036000070470000002C01400034014000040040DD
:1036100000080040000C004021B1028842F0010285
:10362000028004E002884FF6FE731A400280704761
:1036300031B1B0F8442042F40042A0F8442005E043
:10364000B0F84420C2F30E02A0F8442070471AB12B
:1036500083890B43838102E083898B438381704795
:103660008182704741EA0203A0F8483070471AB1DE
:1036700083890B43838102E083898B438381704775
:1036800001894FF6F8721140018170470A46002106
:1036900001894FF68F73194011430181704730B58E
:1036A00004460D4629462046FFF7F0FF208940F0EA
:1036B0000700208130BD2DE9F04104460D46164635
:1036C0001F46602D06D13B46012231462046FFF7BA
:1036D0005AFE05E03B46012231462046FFF79DFE9B
:1036E00029462046FFF7D2FF208940F007002081BD
:1036F000BDE8F08130B50C4600210189C9B24FF612
:10370000FF7505EA0325154325432943018130BD93
:103710002DE9F04105460E461746984600244346DB
:103720003A4631462846FFF7E5FF2C894FF6F870F8
:10373000044044F007044FF68F70044044F07004D6
:103740002C81BDE8F081F0B504460D4616461F46B3
:103750003B46324629462046FFF7CCFF208940F4FD
:1037600080402081F0BD0185828270470A46002199
:1037700001884FF68F731940114301807047F0B5EF
:103780000C4615461E460021002200230189028BAB
:10379000038C4FF6F877394021434FF6FC473A4007
:1037A00040F201173A434FF6DD773B404FF6FF7783
:1037B00007EA06172F433B43018102830384F0BDD0
:1037C0000A460021018B4FF68F7319401143018384
:1037D00070470A460021018B48F6FF7319404FF6E7
:1037E000FF7303EA02231943018370470A4600214D
:1037F000818B4FF68F7319401143818370470A46BE
:103800000021818B48F6FF7319404FF6FF7303EADE
:10381000022319438183704721B1028842F080025C
:10382000028004E002884FF67F731A4002807047DE
:1038300021B1828842F00402828004E082884FF63F
:10384000FB731A408280704721B1828842F00802DF
:10385000828004E082884FF6F7731A4082807047B6
:1038600021B1828842F00102828004E082884FF612
:10387000FE731A40828070470A460021018B4FF682
:10388000F77319401143018370470A460021018BE9
:103890004FF2FF7319404FF6FF7303EA02231943F7
:1038A000018370470A460021818B4FF6F773194058
:1038B0001143818370470A460021818B4FF2FF73C9
:1038C00019404FF6FF7303EA0223194381837047BF
:1038D0000A460021018B4FF6FB7319401143018307
:1038E00070470A460021018B4FF6FF3319404FF60F
:1038F000FF7303EA02231943018370470A4600213C
:10390000818B4FF6FB7319401143818370470A4640
:103910000021818B4FF6FF3319404FF6FF7303EA06
:1039200002231943818370470A460021018B4FF619
:103930007F7319401143018370470A460021018BB0
:10394000C1F30E014FF6FF7303EA0223194301830B
:1039500070470A460021818B4FF67F73194011434F
:10396000818370470A460021818BC1F30E014FF617
:10397000FF7303EA02231943818370470A4600213B
:10398000018C4FF6FD7319401143018470470A46BC
:103990000021018C4FF6F7731940114301847047E1
:1039A0000A460021018C4FF6DF7319404FF6FF7372
:1039B00003EA02131943018470470A460021018C6F
:1039C0004FF67F7319404FF6FF7303EA0213194352
:1039D000018470470A460021018C4FF6FF531940BD
:1039E0004FF6FF7303EA02231943018470470A4626
:1039F0000021018C4FF2FF7319404FF6FF7303EA69
:103A000002231943018470470A460021018C4DF6B8
:103A1000FF7319404FF6FF7303EA02331943018421
:103A2000704730B5002301248C40A3B2048C9C4322
:103A30000484048C02FA01F5ADB22C43048430BD39
:103A400030B5002304248C40A3B2048C9C4304842E
:103A5000048C02FA01F5ADB22C43048430BD70B57C
:103A60000346002000241846183001258D40ACB2D2
:103A70001D8CA5431D8409B1082909D100EB610003
:103A8000056825F0700505600568154305600EE0C2
:103A90000D1FC5F34E052844056825F4E045056073
:103AA00005684FF6FF7606EA02263543056070BDCD
:103AB00021B1028842F00202028004E002884FF63F
:103AC000FD731A400280704721B1028842F004025F
:103AD000028004E002884FF6FB731A4002807047B0
:103AE00021B1828842F08002828004E082884FF611
:103AF0007F731A408280704702884FF6F7731A402E
:103B0000028002880A430280704782884FF68F73D2
:103B10001A40828082880A438280704702894FF669
:103B2000F8731A40028102890A43028170470289B0
:103B30004FF67F731A40028102890A43028170475F
:103B400081847047818570478186704701877047FF
:103B500081877047A0F84010704702884FF6FF43F6
:103B60001A40028002880A43028070470146888E0C
:103B700070470146088F70470146888F704701469D
:103B8000B1F8400070470146888C70470146088DA7
:103B9000704702460020138A0B400BB1012000E061
:103BA00000207047CA430282704730B502460020A9
:103BB00000230024158A05EA0103958905EA01041A
:103BC00013B10CB1012000E0002030BDCA430282D5
:103BD0007047000010B50446FB48844209D101211A
:103BE0008803FEF719FF00214FF48040FEF714FF11
:103BF00032E0F648844209D101214804FEF719FF5A
:103C000000214FF40030FEF714FF25E0F048844215
:103C100009D101218804FEF70CFF00214FF4802018
:103C2000FEF707FF18E0EB48844209D10121C804E0
:103C3000FEF7FFFE00214FF40020FEF7FAFE0BE036
:103C4000E548844208D101210805FEF7F2FE002173
:103C50004FF48010FEF7EDFE10BD2DE9F04786B061
:103C600005460E460024A24600BFA1460027B089A3
:103C700000B100BF2F462C8A4CF6FF700440F0883C
:103C800004432C82AC894EF6F3100440B08831898D
:103C90000843718908430443AC81AC8A4FF6FF4066
:103CA0000440B0890443AC8201A8FEF72EFEC6484A
:103CB000874202D1DDF810A001E0DDF80CA0A88950
:103CC00000F4004040B10AEBCA0000EB0A10316872
:103CD0004900B0FBF1F807E00AEBCA0000EB0A105C
:103CE00031688900B0FBF1F86420B8FBF0F0040102
:103CF0002009642101FB1089A88900F4004040B12B
:103D0000322000EBC900B0FBF1F000F007000443E3
:103D100008E0322000EB09106421B0FBF1F000F064
:103D20000F0004432C8106B0BDE8F0874FF4165114
:103D3000016000218180C18001810C21418100212D
:103D40008181704710B502460020108A4FF2FF03B0
:103D500018400B884C8823438C882343CC8823430A
:103D60001843108210BD0021018041808180C180F4
:103D7000704721B1828942F40052828104E0828935
:103D80004DF6FF731A4082817047F0B50346002458
:103D900000260025002040F66A17B94200D100BF76
:103DA0001846C1F3421401F01F06012707FA06F571
:103DB000012C01D10C3004E0022C01D1103000E0C4
:103DC00014301AB107682F43076002E00768AF4359
:103DD0000760F0BD1AB1838A0B43838202E0838AB5
:103DE0008B4383827047028A4FF6F0731A40028237
:103DF000028A0A430282704782894FF2FF731A4097
:103E0000828182890A438281704721B1828942F08E
:103E10000202828104E082894FF6FD731A4082819A
:103E20007047028A4FF6DF731A400282028A0A4301
:103E30000282704721B1028A42F48042028204E089
:103E4000028A4BF6FF731A4002827047C1F30802E0
:103E50008280704701468888C0F3080070478189D6
:103E600041F0010181817047028BD2B20283028B43
:103E700042EA012202837047028B02F47F420283EE
:103E8000028B0A430283704721B1828A42F02002EA
:103E9000828204E0828A4FF6DF731A408282704782
:103EA00021B1828A42F01002828204E0828A4FF6B7
:103EB000EF731A408282704721B1828A42F0080271
:103EC000828204E0828A4FF6F7731A40828270473A
:103ED00021B1828942F40042828103E08289C2F3E7
:103EE0000E028281704721B1828A42F4006282828E
:103EF00004E0828A4FF2FF731A4082827047828AFE
:103F00004FF6FB731A408282828A0A43828270478C
:103F100021B1828A42F00202828204E0828A4FF654
:103F2000FD731A408282704702460020B1F5007F7F
:103F300000D100BF13880B400BB1012000E000202E
:103F4000704701F40072B2F5007F00D100BFCA4390
:103F50000280704770B5024600240023002500202F
:103F600040F66A16B14200D100BFC1F3421501F01C
:103F70001F03012606FA03F3012D02D1968933406F
:103F800006E0022D02D1168A334001E0968A3340C2
:103F90000C12012606FA04F41688344013B10CB151
:103FA000012000E0002070BD10B50022002340F683
:103FB0006A14A14200D100BF0A1201249440A3B2A6
:103FC000DC43048010BD0000003801400044004084
:103FD00000480040004C0040005000400648804728
:103FE00006480047FEE7FEE7FEE7FEE7FEE7FEE7DE
:103FF000FEE7FEE7FEE7FEE7DF400008ED00000811
:104000000CB50020019000906C48006840F48030AE
:104010006A49086000BF6948006800F400300090F9
:104020000198401C0190009818B90198B0F5A06F54
:10403000F1D16248006800F4003010B10120009016
:1040400001E0002000900098012843D15C480068FE
:1040500040F010005A4908600846006820F003004C
:1040600008600846006840F0020008605348406855
:10407000524948600846406848600846406840F435
:10408000806048600846406820F47C10486008461C
:10409000406840F4E81048600846006840F08070CE
:1040A000086000BF4548006800F000700028F9D0A3
:1040B0004248406820F00300404948600846406894
:1040C00040F00200486000BF3C48406800F00C002F
:1040D0000828F9D10CBD10B5FFF792FF10BD10B53F
:1040E0003648006840F001003449086008464068DE
:1040F0003449084031494860084600683249084060
:104100002E4908600846006820F4802008600846B0
:10411000406820F4FE0048604FF41F008860FFF7FD
:10412000DAFF4FF000602949086010BD10B500218A
:1041300000200022214B5B6803F00C0121B104290F
:1041400006D0082928D107E0214B224C236027E024
:104150001F4B204C236023E0184B5B6803F4701066
:10416000164B5B6803F48032022303EB904022B9C4
:10417000194B4343174C23600DE0104B5B6803F46D
:10418000003323B1144B4343124C236003E0104B24
:104190004343104C236003E00D4B0E4C236000BFE3
:1041A00000BF064B5B68C3F303130C4CE15C094B87
:1041B0001B68CB40074C236010BD0000001002407C
:1041C000002002400000FFF8FFFFF6FE08ED00E0CF
:1041D00000127A009C00002000093D00A000002091
:1041E00010B5431A934209D28318881803E010F8D7
:1041F000011D03F8011D521EF9D210BD40EA010352
:104200009B0703D009E008C9121F08C0042AFAD28C
:1042100003E011F8013B00F8013B521EF9D210BD3A
:1042200070B5054C054D03E0206820448047241DEF
:10423000AC42F9D170BD0000144C0008204C0008BD
:104240002DE9FE4F804681EA0300C00F0C46009026
:1042500021F0004123F00045B8EB0200A94105D24E
:104260004046214690461C460B46024623F000403D
:10427000104347D0270DC7F30A00C3F30A51029039
:10428000401A019040286BDAC3F3130040F4801BFE
:104290000098924620B10023D2EB030A63EB0B0B8C
:1042A00001985946C0F14002504600F079F906469F
:1042B0000D4650465946019A00F091F910EB08005E
:1042C0006141002487EA115284EAE7731A4340D01F
:1042D000009A62B3019A012A4FEA075215DC001BCB
:1042E00061EB02014FF0004202EA0752CDE90042C1
:1042F000001C41F5801132462B4600F095F903B0C1
:10430000BDE8F08F40462146F9E7001B61EB020152
:10431000001C41F5801300185B412018A2F500171E
:1043200047EB030140EAD570B6196D4111E06D0805
:104330004FEA360645EAC0754FEA0752001B61EBAB
:104340000201001C41F5801149084FEA30000019B4
:10435000514132462B4603B0BDE8F04F00F057B94B
:104360000098012240000023D0EB020263EBE073CF
:10437000009821464FEAE074B8EB000061EB0401BD
:10438000E9E783F000435BE781F0004158E72DE95E
:10439000FE4F81EA030404F0004421F00041009440
:1043A0004FF0000B23F0004350EA01045ED052EAC4
:1043B00003045BD0C3F30A54C1F30A552C44A4F29E
:1043C000F3340194A0FB0254C1F3130141F48011B2
:1043D000C3F3130343F4801301FB024400FB034EB9
:1043E000840A970A44EA815447EA8357A4FB076882
:1043F00002958D0A05FB07854FEA932C04FB0C54AC
:104400002705029D4FEA065847EA1637B5EB08051F
:104410006EEB070C870E920E47EA811742EA831271
:10442000A7FB0201B6EB0B0164EB00042B0D43EA82
:104430000C335E1844EB1C50DA465146E7FB020190
:10444000C5F313044FEA0B3343EA14534FEA043223
:10445000019C43EA0603A4F10C040294009CCDE9FC
:1044600000B400F0E1F803B0BDE8F08F0020014691
:10447000F9E72DE9F04D81EA030404F0004B21F047
:10448000004514464FF0000A23F0004150EA0502AF
:1044900020D054EA01021DD0C5F30A570246C5F3E5
:1044A0001303C1F31300C1F30A5640F4801543F41B
:1044B0008013A7EB0608101BD64608F2FD3873EBF5
:1044C000050002D308F1010801E092185B41B8F140
:1044D000000F03DA00200146BDE8F08D00204FF404
:1044E0008011064684460EE0171B73EB050705D3C3
:1044F000121B63EB050306434CEA010C49084FEA23
:10450000300092185B4150EA0107EDD152EA0300F6
:1045100012D082EA040083EA0501084305D0101B8B
:10452000AB4106D20122002306E000224FF00043F7
:1045300002E06FF0010253101AEB06004CEB085139
:1045400010EB0A0041EB0B01BDE8F04D00F05FB845
:1045500030B5002904DB4FF00044404264EB010118
:10456000002B04DB4FF00044524264EB03038B4208
:1045700008BF824230BD000030B5002904DB4FF097
:104580000044404264EB0101002B04DB4FF0004487
:10459000524264EB0303994208BF904230BD0000D1
:1045A000202A04DB203A00FA02F1002070479140F3
:1045B000C2F1200320FA03F3194390407047202AE8
:1045C00004DB203A21FA02F00021704721FA02F3BD
:1045D000D040C2F120029140084319467047202A7A
:1045E00006DBCB17203A41FA02F043EAE07306E01B
:1045F00041FA02F3D040C2F120029140084319462B
:104600007047000000487047B8000020704710B5A0
:10461000002B08DA401C41F1000192185B411A435B
:1046200001D120F0010010BD2DE9F04D92469B46CE
:1046300011B1B1FA81F202E0B0FA80F22032904674
:10464000FFF7AEFF04460F4640EA0A0041EA0B01BD
:1046500053465A46084313D0114653EA010019D075
:10466000C8F140025046FFF7AAFF05460E465046E5
:1046700059464246FFF794FF084305D0012004E065
:1046800020463946BDE8F08D0020054346EAE07635
:104690002C4337430A986305E40AA0EB0800002284
:1046A000FD0A44EA47540A3002D500200146E9E7F2
:1046B000010510196941DDE9084500196941BDE8A6
:1046C000F04DA4E7064C074D06E0E06840F001031A
:1046D00094E8070098471034AC42F6D3FBF70AFD84
:1046E000F44B0008144C00082DE9F04107469046B1
:1046F0000E460025102000F05FF804000BD0C4F82F
:104700000C80C4E90176FFF77DFF01682160046039
:104710002846BDE8F0810125FAE72DE9F04106467B
:10472000FFF770FF804613E026B1E068B04201D089
:1047300025460EE020682860D4E90101D8F8007011
:104740008847204600F00AF8D8F80000B84200D0A8
:1047500045462C68002CE7D1BDE8F08130B528B182
:10476000144C031F002021680A4605E0084630BDAE
:104770009A4203D810465268002AF9D1002800D086
:1047800041680BD00468A3EB0005A54204D11B6867
:104790001C440346046002E0436000E023603AB139
:1047A0001C68D51AA54203D115682C441C605268B8
:1047B0005A6030BDB00000202DE9F04782460F4C12
:1047C00010480D4E0E4F001B4FF0000820F007055B
:1047D0004FF0010900221146504600F025F800284C
:1047E00002D1306810B10020BDE8F0873C60C4E918
:1047F0000058C6F80090EDE7B40000200403002044
:10480000B00000200005002002E008C8121F08C107
:10481000002AFAD170477047002001E001C1121F41
:10482000002AFBD1704700002DE9F0410B3020F049
:104830000706104D19E02068B04215D3B0420AD9DE
:10484000871B201DD4F80480FFF7CAFCA019C0E91B
:104850000078286004E060682860201DFFF7C0FC35
:10486000201D2660BDE8F081251D2C68002CE2D1BA
:104870000020F7E7B00000200008014000000040E1
:104880000024014001000100000801400000004038
:104890000024014002000201000801400000004025
:1048A0000024014004000302000801400000004011
:1048B000002401400800040300080140000000003B
:1048C0000024014010000004000801400000000026
:1048D00000240140200000050008014000040040C1
:1048E000002401404000010600080140000400408F
:1048F000002401408000020700080140002C014014
:1049000000000000000101FF00080140002C0140F0
:1049100000000000000202FF00080140002C0140DE
:1049200000000000000403FF00080140002C0140CB
:1049300000000000000804FF000801400000000023
:1049400000000000001000FF00080140000000000F
:1049500000000000002000FF0008014000000000EF
:1049600000000000004000FF0008014000000000BF
:1049700000000000008000FF000C01400004004027
:104980000024014001000308000C01400004004025
:104990000024014002000409000C01400000000056
:1049A00000000000040000FF000C014000000000B7
:1049B00000000000080000FF000C014000000000A3
:1049C00000000000100000FF000C0140000000008B
:1049D00000000000200000FF000C01400008004023
:1049E00000000000400001FF000C014000080040F2
:1049F00000000000800002FF000C014000080040A1
:104A000000000000000103FF000C0140000800400E
:104A100000000000000204FF000C01400000000044
:104A200000000000000400FF000C01400000000036
:104A300000000000000800FF000C01400000000022
:104A400000000000001000FF000C0140000000000A
:104A500000000000002000FF000C014000000000EA
:104A600000000000004000FF000C014000000000BA
:104A700000000000008000FF001001400000000066
:104A8000002401400100000A001001400000000065
:104A9000002401400200000B001001400000000053
:104AA000002401400400000C001001400000000040
:104AB000002401400800000D00100140000000002B
:104AC000002401401000000E001001400000000012
:104AD000002401402000000F00100140003401407C
:104AE00000000000400001FF0010014000340140C0
:104AF00000000000800002FF00100140003401406F
:104B000000000000000103FF0010014000340140DC
:104B100000000000000204FF00100140000000003F
:104B200000000000000400FF001001400000000031
:104B300000000000000800FF00100140000000001D
:104B400000000000001000FF001001400000000005
:104B500000000000002000FF0010014000000000E5
:104B600000000000004000FF0010014000000000B5
:104B700000000000008000FF0000000000000000B6
:104B8000790500080000000000000000C9040008CA
:104B900013050008E3040008650500080000000094
:104BA0000000000000000000000000000000000005
:104BB00000000000000000000000000000000000F5
:104BC00000000000000000000000000000000000E5
:104BD000000000000000000000000000830A000840
:104BE000470B00080000000000000000000000006B
:104BF00000000000204C000800000020BC00000065
:104C000008480008DC4C0008BC00002044080000F4
:104C10001848000877B9FFFFD7BCFFFF7BBFFFFF35
:104C20000000000000000000000000000000000084
:104C3000050100080501000805010008050100083C
:104C4000050100080501000805010008050100082C
:104C5000050100080501000805010008050100081C
:104C6000050100080501000805010008050100080C
:104C70000000000000000000000000000501000826
:104C800005010008050100080501000805010008EC
:104C900005010008050100080501000805010008DC
:104CA00005010008050100080000000001020304DE
:104CB00001020304060708090204060800A24A04C8
:104CC00000000000000000000102030406070809BC
:0C4CD000000000000000000000000000D8
:04000005080000ED02
:00000001FF
