:020000040800F2
:1000000090070020BD300008C5300008C730000848
:10001000C9300008CB300008CD30000800000000D7
:10002000000000000000000000000000CF300008C9
:10003000D130000800000000D3300008E1100008B3
:10004000D7300008D7300008D7300008D730000874
:10005000D7300008D7300008D7300008D730000864
:10006000D730000899140008D7300008D7300008AE
:10007000D7300008D7300008D7300008D730000844
:10008000D7300008D7300008D7300008D730000834
:10009000D7300008D7300008D7300008CB1400084C
:1000A000D7300008D7300008D7300008D730000814
:1000B000D730000873150008D7300008D730000883
:1000C000D7300008D7300008D7300008D7300008F4
:1000D000D730000873130008D7300008D730000865
:1000E000D7300008D7300008D7300008D7300008D4
:1000F000D7300008D7300008D7300008D7300008C4
:10010000D7300008D7300008D7300008D7300008B3
:10011000D7300008D7300008D7300008D7300008A3
:10012000D7300008D7300008D7300008D730000893
:10013000DFF810D003F030FD03F014F90048004759
:10014000930300089007002070B504460D4604F0A4
:100150000F0301229A4091B224F00F0003232A4694
:1001600001F030F870BD70B504460D464DB104F095
:100170000F0301229A4091B224F00F0001F08BFB93
:1001800008E004F00F0301229A4091B224F00F001E
:1001900001F083FB70BD10B5044604F00F0301228B
:1001A0009A4091B224F00F0001F05BFB10BDC268D1
:1001B0004A40C26070472DE9F04780460C4616461B
:1001C0001F4600212046FFF7CEFF00251FE00EB995
:1001D000284601E0C5F10700814647FA09F000F022
:1001E00001014046FFF7BFFF04F00F0301229A40D0
:1001F00091B224F00F00FFF7DAFF04F00F030122A1
:100200009A4091B224F00F00FFF7D1FF6D1C082D2A
:10021000DDDBBDE8F0872DE9F04180460E4617464C
:100220000025002419E001213046FFF79CFF37B973
:100230004046FFF7B0FFA0402843C5B207E0404664
:10024000FFF7A9FFC4F1070188402843C5B2002188
:100250003046FFF788FF601CC4B2082CE3DB284659
:10026000BDE8F08170B50446049D601AEE1A704333
:10027000561A90FBF6F0184470BD2DE9F04F89B086
:1002800006460F4614461D46DDE9148922462B46D4
:10029000DDE9120103F0DFF942464B46CDE90401E6
:1002A000DDE9160103F0D7F982468B4622462B463C
:1002B0003046394603F0CFF952465B46CDE900019E
:1002C00003F0CFF9CDE90201DDE9042303F03BFAA5
:1002D00042464B46CDE9060103F01CF909B0BDE8E2
:1002E000F08F03468B4201DA08467047934201DDE6
:1002F0001046FAE71846F8E72DE9F04704460D46A0
:1003000016461F46DDE9088932463B462046294607
:1003100003F0F2FA03D230463946BDE8F087424690
:100320004B462046294603F0FBFA02D24046494696
:10033000F3E720462946F0E710B54FF4E1322249B1
:10034000224800F041FB0021214800F0B7FD0222C5
:100350000321204800F077FB28B91FA11B4800F0BB
:1003600054FA00BFFEE71B4800F0EFFB10BD10B5CC
:10037000184800F01CFC1748B0F90430B0F902200E
:10038000B0F900101CA003F019FC642000F0CCFEB2
:1003900010BD00F08FFEFFF7CFFF00BFFFF7E7FFB4
:1003A000FCE710B51B231A4A511E094800F07BFDDB
:1003B0000446184A184903F011FC044800F0FCFAFE
:1003C000044800F017FB10BD003801400000002079
:1003D00050000020B00000204661696C6564207404
:1003E0006F206175746F64657465637420677972DA
:1003F0006F20747970652100583A202564202059B7
:100400003A20256420205A3A2025640D0A00000075
:10041000070C014000000008F70E000870B5054603
:100420000C46002606E014F8011B286802682846DE
:100430009047761C20780028F5D1304670BD2DE914
:10044000F04104460D4616464FF000082F4607E0DF
:1004500017F8011B206802682046904708F1010840
:100460003000A6F10106F3D14046BDE8F0812DE948
:10047000F04105460C4600BFA068064620680746C6
:10048000286832463946836828469847BDE8F08197
:1004900070B504460D4620682946026820469047FC
:1004A00070BD70B504460D46206829464268204656
:1004B000904770BD2DE9F04391B0814614461D462A
:1004C000189F0026B046002184EA010069400843D5
:1004D00007D130214846FFF7DBFF012011B0BDE80E
:1004E000F08311E03A4600232046294602F0E8FE58
:1004F0003146761C01A842543A460023204629463C
:1005000002F0DEFE04460D46002184EA0100694047
:100510000843E7D112E0701E01AA105C0A2803DA32
:10052000701E105C303003E0701E01AA105C373082
:10053000C1B24846FFF7ACFF8044761E002EEAD1D8
:100540004046CBE72DE9F843064614461D46089F72
:100550004FF0000837B9E1B2306802683046904782
:10056000804607E0F8B222462B4600903046FFF75F
:10057000A1FF80464046BDE8F883F8B506460C4624
:1005800015462246002330460095FFF7DBFFF8BDF5
:10059000F8B5064614461D46069F2FB9E1B23068ED
:1005A000026830469047F8BD00210846611A75EB95
:1005B000000007DA2D213046FFF76AFF002264426F
:1005C00062EB0505F8B222462B4600903046FFF755
:1005D00071FFE8E7F8B506460C4615462246E317D4
:1005E00030460095FFF7D4FFF8BDF8B506460C4637
:1005F00015462246002330460095FFF7A3FFF8BDBD
:10060000F8B506460C4615462246E31730460095D7
:10061000FFF7BEFFF8BDF8B506460C461546224664
:10062000002330460095FFF78DFFF8BD2DE9FF5FF1
:1006300086B014461D46DDF850B000260022134651
:100640002046294603F06CF902D22046294602E0F2
:10065000204685F00041CF4ACF4BCDE9020103F09F
:100660005FF914D8002213462046294603F044F9C6
:1006700004D22D210698FFF70BFF0646C7A1069866
:10068000FFF70FFF064430460AB0BDE8F09F002296
:1006900013462046294603F02FF906D22D2106984D
:1006A000FFF7F6FE064485F000450027DFF8FC82E0
:1006B000002003900BE00022BD4B3846414603F07A
:1006C00042F8074688460398401CC0B2039003983E
:1006D0005845F0DB3A4643462046294602F01AFFC9
:1006E00004460D462046294603F0E0F8CDE9040112
:1006F000DDE9040103F0A7F822462B46CDE902010B
:1007000002F0ACFF81468A460A200090DDE904230E
:100710000698FFF73DFF0644BBF1000F04DDA5A1DD
:100720000698FFF7BEFE06441EE00022A04B484696
:10073000514602F096FF81468A464846514603F0EC
:1007400096F803900A2203990698FFF743FF0644A0
:10075000039803F067F84A465346CDE9000102F0DA
:100760007DFF81468A4600BFBBF10000ABF101016D
:1007700001F0FF0BD9DC304686E7F8B50646144693
:100780001D46069FF8B222462B4600903046FFF7E2
:100790004DFFF8BD70B504460D4629462046FFF7CB
:1007A00080FE70BD70B505460C462068294602687B
:1007B0002046904770BD70B505460D212846FFF7CD
:1007C00067FE04460A212846FFF762FE04442046DD
:1007D00070BD70B505460E4631462846FFF747FE08
:1007E00004462846FFF7E7FF0444204670BD70B575
:1007F00005460E4631462846FFF74AFE044628467F
:10080000FFF7D9FF0444204670BD70B505460E467B
:1008100031462846FFF745FE04462846FFF7CBFF42
:100820000444204670BD2DE9F04105460E461746AA
:100830003A4631462846FFF7A0FE04462846FFF711
:10084000BAFF04442046BDE8F0812DE9F041054699
:100850000E4617463A4631462846FFF7BBFE044689
:100860002846FFF7A8FF04442046BDE8F0812DE9A3
:10087000F04105460E4617463A4631462846FFF7F0
:10088000B4FE04462846FFF796FF04442046BDE820
:10089000F081F8B507460C4615462246E317384660
:1008A0000095FFF775FE06463846FFF784FF0644BD
:1008B0003046F8BDF8B507460C46154622460023DB
:1008C00038460095FFF73EFE06463846FFF773FFB1
:1008D00006443046F8BD2DE9F843074615461E4646
:1008E000DDF820802A4633463846CDF80080FFF7F1
:1008F0004FFE04463846FFF75EFF04442046BDE83D
:10090000F8832DE9F843074615461E46DDF820809A
:100910002A4633463846CDF80080FFF713FE0446DA
:100920003846FFF748FF04442046BDE8F8832DE928
:10093000F843074615461E46DDF820802A46334612
:100940003846CDF80080FFF718FF04463846FFF719
:1009500032FF04442046BDE8F88370B505460E46D4
:1009600031462846FFF716FF04462846FFF723FFC7
:100970000444204670BD70B505460E4631462846F3
:10098000FFF710FF04462846FFF715FF04442046F2
:1009900070BD0000800350726C92DF433C6C61724A
:1009A000676520646F75626C653E00000000E03F83
:1009B000000024402E0000000C490160002141602D
:1009C00000BF0B490160704770B506460C461546DE
:1009D0002946204600F05CFC70BD70B505460C460B
:1009E0000021204600F048FC70BD00008046000851
:1009F000944600080321C1710021C1600174704751
:100A000070B506460D4614462946A34800F08AFAFA
:100A10002146A14800F0D6FA9F4800F096FA10B19E
:100A20004FF0FF3070BD012229469B4800F0A0FA2C
:100A3000994800F00CFB18B1974800F010FBF1E763
:100A40004FF0FF30EEE72DE9F04106460C46154623
:100A5000032C01D0022D4BD1032C03D0022C01D04A
:100A6000012C25D18DB10F226B213046FFF7C8FF35
:100A70000746401C48B10125032C19D1D72F01D1BD
:100A8000022000E00120044612E0012D10D00F22C8
:100A90006A213046FFF7B4FF0746401C40B10025ED
:100AA000032C05D1D72F01D1022000E001200446FC
:100AB000032C00D0ACB94DB10F2269213046FFF7AD
:100AC0009FFFD32802D1002401250AE0012D08D080
:100AD0000F2268213046FFF793FFD32801D100246D
:100AE0000025032C01D0022D02D10020BDE8F081A9
:100AF000F4715CB1012C02D0022C0ED100BF012D8B
:100B000001D16B2000E06A20307206E0012D01D196
:100B1000692000E06820307200BF00BF0120E5E7D7
:100B200070B504460E461546217A5B4800F0FAF986
:100B30003146594800F046FA2946574800F042FA33
:100B4000554800F002FAA07170BD10B50446E07976
:100B5000022804D1002239212046FFF7E1FF0022BC
:100B600023212046FFF7DCFF6F2220212046FFF7DC
:100B7000D7FF10BD70B504460D46217A464800F0F7
:100B8000D1F92946444800F01DFA434800F0DDF948
:100B9000A071217A0122404800F0EAF93E4800F0B5
:100BA0005EFA06463C4800F0D0F9304670BD2DE9AB
:100BB000F05F0446217A384800F0B4F9A82136489D
:100BC00000F025FA344800F0C0F9217A06223248B4
:100BD00000F0CEF900F08AFA83460CE0E06850B1EC
:100BE00000F084FAA0EB0B00E168884203D90120F1
:100BF0002074BDE8F09F284800F029FA0628EDDBB4
:100C0000254800F02CFA0646234800F028FA07464B
:100C1000214800F024FA80461F4800F020FA81465F
:100C20001D4800F01CFA82461B4800F018FA0546E1
:100C300046EA072000B2208048EA092000B260801E
:100C40004AEA052000B2A08000BFD2E7C160704729
:100C50000146C86870470146087C00220A74704744
:100C600070B504462146204603F0EAFC06463046AD
:100C700003F0D0FC05462946206802F00DFC2060F8
:100C80002946606802F008FC60602946A06802F00E
:100C900003FCA06070BD00005000002070B5044649
:100CA0000D4694F8540000F04BFA2946A06DFFF76A
:100CB0005AFA012D05D100BFA06DFFF76CFA00288C
:100CC000FAD070BD70B504460D4694F8540000F09B
:100CD00037FA2946E06DFFF746FA70BD10B50446B5
:100CE00000212046FFF7EEFF00212046FFF7D6FF48
:100CF00010BD10B5044600212046FFF7E3FF012197
:100D00002046FFF7CBFF01212046FFF7DBFF10BD98
:100D100070B5044600212046FFF7C0FF01212046A0
:100D2000FFF7D0FF01212046FFF7B8FFE06DFFF786
:100D300032FA08B9012000E00020054600212046D3
:100D4000FFF7ACFF284670BD10B5044600212046D1
:100D5000FFF7B8FF01212046FFF7A0FF0021204642
:100D6000FFF79CFF10BD10B5044601212046FFF798
:100D7000A9FF01212046FFF791FF00212046FFF740
:100D80008DFF10BD70B50546002601212846FFF7EE
:100D900099FF002410E001212846FFF77FFFE86D4E
:100DA000FFF7F9F9C4F1070188403043C6B20021CA
:100DB0002846FFF773FF641C082CECDB304670BD3F
:100DC00070B506460D46002415E0C4F10702012067
:100DD0009040284008B1012000E000200146304644
:100DE000FFF770FF01213046FFF758FF0021304622
:100DF000FFF754FF641C082CE7DB70BD70B5044698
:100E00000021618120794006060EE088012801D189
:100E100046F001062046FFF761FF31462046FFF706
:100E2000CFFF2046FFF774FF20B92046FFF761FF90
:100E3000022070BDE088012818D112E02046FFF79B
:100E4000A1FF6289511C6181E16888546189208910
:100E5000814203DA2046FFF777FF02E02046FFF7E2
:100E600082FF618920898142E8DB17E0002512E0DA
:100E7000E068415D2046FFF7A3FF2046FFF748FFEB
:100E800020B92046FFF735FF0320D2E76089401CD8
:100E90006081681CC5B22089A842E9DC2046FFF7C2
:100EA00028FF0020C5E710B5174C046000BF174CA1
:100EB000046080F854308165C26510BD70B5044689
:100EC0000D46002084F8520084F8530084F8300066
:100ED00084F831001421A06DFFF736F91421E06D7C
:100EE000FFF732F901212046FFF7D8FE0121204605
:100EF000FFF7E8FE70BD0549016000218165C1650D
:100F000000BF00BF00BF7047B8460008A8460008F1
:100F1000002280F8522080F8532080F8302080F89A
:100F200031207047818090F8523000F13202134432
:100F3000C36000230381C380704730B505460C466B
:100F4000E1B22846FFF7EEFF30BD70B5044694F8D5
:100F5000530008B1012070BD206801682046884711
:100F60000546002084F8520084F853002846F2E732
:100F700070B504460E461546202D00DD2025A680BE
:100F80000121E180258194F8301004F11000014422
:100F9000E160206801682046884794F83110A07A03
:100FA000084484F831000021E18094F8310070BDDC
:100FB00070B505460C461646E1B232462846FFF7A4
:100FC000D7FF70BD90F85220202A03D1012280F86B
:100FD0005320704710F8523F0278521C00F85229F3
:100FE00000F13202D1540289521C028100BFF0E7A5
:100FF000F0B507460D461646002405E0295D384643
:10100000FFF7E0FF601CC4B2B442F7DBF0BD30B5BF
:1010100005460C46E1B22846FFF7D4FF30BD70B557
:1010200005460E461446E2B231462846FFF7E0FF79
:1010300070BD70B506460D462C4604E0217830465A
:10104000FFF7C0FF641C20780028F7D170BD01466F
:1010500091F8310091F83020801AC0B270470146F3
:1010600091F8300091F83120904205D1002081F8AC
:10107000300081F83100704791F8302091F831004C
:10108000401E82420AD191F8303001F11002D05C4A
:10109000002281F8302081F83120ECE700BF11F800
:1010A000302F0878401C01F8300901F11000805CF5
:1010B000E1E700002F484FF0E021486100208861FF
:1010C0000846006940F0040008610846006940F0E5
:1010D000020008610846006940F00100086170479D
:1010E00025480068401C2449086070472248006871
:1010F0002249884208D322480068401C20490860E1
:1011000000201D49086070471B480068FBE700B5D8
:10111000FFF7ECFF00EB4001C1EBC0104FF0E02106
:10112000896901EBC00000BD00B50246FFF7DEFF94
:10113000034600BFFFF7DAFFC01A9042FAD900BD9C
:1011400000B502464FF0E0208369B2F57A7F07D2FE
:1011500000BF4FF0E0208069C01A9042F9D308E048
:10116000FFF7D5FF034600BFFFF7C0FFC01A90424C
:10117000FAD900BD401901000800002000C87E9A7D
:101180000C00002008B50121502000F093FD6020E4
:10119000ADF8000010208DF8030003208DF8020048
:1011A00069462D4800F0CAFA2020ADF8000048201A
:1011B0008DF8030003208DF802006946274800F0EF
:1011C000BDFA08BDF8B504460D4616461F4624482C
:1011D000844204D10121042000F06CFD30E021485C
:1011E000844204D10121082000F064FD28E01B485E
:1011F000844204D10121102000F05CFD20E01A4857
:10120000844204D10121202000F054FD18E012484E
:10121000844204D10121402000F04CFD10E013482D
:10122000844204D10121802000F044FD08E01048F0
:10123000844204D10121801500F03CFD00E0F8BD9E
:10124000ADF800508DF803608DF8027069462046B5
:1012500000F074FA00BFF2E70018014000100140EE
:1012600000080140000C014000140140001C014036
:101270000020014000BF704700BF5C4A128802F0A6
:101280004002002AF9D0C2B2584B1B1D1A80704789
:101290002DE9F04387B0814688465548484480B1DF
:1012A000B0F5806F16D0B0F5744F1DD1012144F216
:1012B000040000F0FFFC4FF4007465004D4F25263C
:1012C00012E001214C4800F0F5FC04240825494FA8
:1012D000262609E00121494800F0ECFC4FF4806427
:1012E0006500474F272600BF00BFA0B2ADF8180029
:1012F00003208DF81A0018208DF81B0006A9384627
:1013000000F01CFAA8B2ADF8180004208DF81B00FC
:1013100006A9384600F012FAF0B28DF80400032056
:101320008DF805008DF8060001208DF8070001A852
:1013300000F03BF9CDF808800020ADF80C00ADF8C6
:101340000E00ADF81000ADF814000C20ADF812003E
:1013500002A9484600F0E3FD012240F2255148462B
:1013600000F075FE0121484600F065FE07B0BDE8BB
:10137000F08310B540F225511C4800F04DFF10B32A
:101380001A4800F0C9FEC4B21E48008800F40040AC
:10139000C8B91C48008800F4804060B10A2C03D012
:1013A00000201849088020E01648008840F40040DA
:1013B0001449088019E00D2C06D11248008840F429
:1013C00080401049088010E00E480088C0F30D00EE
:1013D0000D490C540B480088401C0A4908800846F7
:1013E0000088C72801DD0020088010BD00380140BA
:1013F00000BCFFBF00080140040002000800040018
:10140000000C014014000020C40000200EB5012192
:10141000084600F04FFC0321042000F0A5FA082044
:10142000019000208DF8080008208DF809000120A7
:101430008DF80A0001A800F0AFFC0521022000F0A1
:1014400093FA2020019000208DF808000C208DF8E0
:10145000090001208DF80A0001A800F09DFC092078
:101460008DF8000002208DF801008DF802000120A7
:101470008DF80300684600F098F817208DF80000FA
:1014800002208DF8010001208DF802008DF8030084
:10149000684600F08AF80EBD10B5082000F0E2FCA6
:1014A00090B10A20FFF740FE1748006830B916488F
:1014B00008300468E0431549C1F894010A20FFF799
:1014C00033FE082000F0DFFC10BD10B50A242020F8
:1014D00000F0C8FCB0B10A20FFF726FE0A48083029
:1014E000006801280BD1002007490C31086002E098
:1014F000C820FFF719FE2000A4F10104F8D1202034
:1015000000F0C1FC10BD00008C012342000023420A
:101510007FB505460C460121022000F0D8FB681E6D
:1015200080B2ADF80800601E80B2ADF80400002063
:10153000ADF80A00ADF8060001A9164800F084FFD6
:1015400001221146134801F0F6FA1D208DF8000023
:1015500000208DF8010003208DF8020001208DF895
:101560000300684600F021F801210A4801F0C8FA9A
:101570007FBD10B50121074801F08BFD48B1012165
:10158000044801F097FD04480068C0430349C1F8CE
:10159000940110BD00040040940123420000234246
:1015A00031490143314A1160704770B50021002371
:1015B0000F22C47804B32D4C246804F4E064C4F50D
:1015C000E064210AC1F10403CA40447804FA03F13B
:1015D0008478144021430901254C0678A1550478EC
:1015E00004F01F050124AC4005786D11AD0005F134
:1015F000E025C5F8004109E0047804F01F05012446
:10160000AC401C4D0678761145F8264070BD1A4A4C
:101610000A400243154B1B1F1A60704739B1134A29
:10162000121D12680243114B1B1D1A6006E00F4A7F
:10163000121D126882430D4B1B1D1A60704704284F
:1016400008D14FF0E021096941F004014FF0E02298
:10165000116107E04FF0E021096921F004014FF02A
:10166000E0221161704700000000FA050CED00E077
:1016700000E400E080E100E080FFFF1F10B50446B9
:10168000CC48844208D10121042000F02DFB002128
:10169000042000F029FB46E0C748844208D101211C
:1016A000082000F021FB0021082000F01DFB3AE09B
:1016B000C248844208D10121102000F015FB00210E
:1016C000102000F011FB2EE0BD48844208D101211A
:1016D000202000F009FB0021202000F005FB22E083
:1016E000B848844208D10121402000F0FDFA0021D1
:1016F000402000F0F9FA16E0B348844208D10121F5
:10170000802000F0F1FA0021802000F0EDFA0AE0DC
:10171000AE48844207D10121801500F0E5FA00218E
:10172000A01500F0E1FA10BD10B50121084600F047
:10173000DBFA0021012000F0D7FA10BD2DE9F041BD
:10174000024600250026002000230024002791F8EF
:1017500003C00CF00F0591F803C00CF0100CBCF1A5
:10176000000F03D091F802C04CEA050591F800C0C3
:10177000BCF1000F31D0146800202BE04FF0010CB9
:101780000CFA00F3B1F800C00CEA03069E4220D127
:1017900083004FF00F0C0CFA03F7BC4305FA03FC6F
:1017A0004CEA040491F803C0BCF1280F06D14FF0B5
:1017B000010C0CFA00FCC2F814C00AE091F803C056
:1017C000BCF1480F05D14FF0010C0CFA00FCC2F837
:1017D00010C0401C0828D1D31460B1F800C0BCF17F
:1017E000FF0F34DD546800202EE000F1080C4FF0AC
:1017F000010808FA0CF3B1F800C00CEA03069E4297
:1018000021D183004FF00F0C0CFA03F7BC4305FA0B
:1018100003FC4CEA040491F803C0BCF1280F05D185
:1018200000F1080C08FA0CF8C2F8148091F803C013
:10183000BCF1480F07D100F1080C4FF0010808FA7D
:101840000CF8C2F81080401C0828CED35460BDE8C4
:10185000F0814FF6FF710180022181700421C17077
:1018600070470246002093680B400BB1012000E056
:10187000002070470146886880B270470246002009
:10188000D3680B400BB1012000E0002070470146F7
:10189000C86880B2704701617047416170470AB102
:1018A000016100E041617047C16070474FF48032D0
:1018B0000A4382618161826182698269704702465E
:1018C0000020434B18684FF68073184040EA02101E
:1018D00008433F4B186070473E49C8617047F0B5F8
:1018E0000A46002300240021002500F00046B6F13E
:1018F000004F02D1364EF16901E0354E7168C0F3F8
:10190000034583B200F44016B6F5401F08D121F01C
:1019100070612F4E766826F070662D4F7E6012E063
:1019200000F48016B6F5801F06D1032606FA05F4EA
:10193000A14341F0706106E0460D360103FA06F658
:10194000B14341F0706122B1460D360103FA06F64B
:10195000314300F00046B6F1004F02D11C4EF16158
:1019600001E01B4E7160F0BD30B500228B071C0FEB
:101970000F2303FA04F2164B08338C1053F824306B
:101980009343134C08348D1044F8253023468C10B3
:1019900053F824308C07240F00FA04F423430C4C32
:1019A00008348D1044F8253030BD0A49DC31086018
:1019B0007047000000080140000C01400010014089
:1019C0000014014000180140001C014000200140AB
:1019D0000000014000002042DF48006840F00100A4
:1019E000DD49086008464068DC490840DA4948603B
:1019F00008460068DA490840D74908600846006888
:101A000020F4802008600846406820F4FE0048600A
:101A10004FF41F0088607047CF49096821F4803176
:101A2000CD4A11601146096821F480211160B0F59A
:101A3000803F03D0B0F5802F0ED106E0C64909687B
:101A400041F48031C44A116007E0C349096841F498
:101A5000A021C14A116000E000BF00BF704710B56F
:101A600001460022002300204A11012A02D1BA4C6B
:101A7000236806E0022A02D1B74C236A01E0B64C83
:101A8000636A01F01F02012494401C400CB1012044
:101A900000E0002010BD38B5002000900024002593
:101AA00000BF3120FFF7DBFF05460098401C009087
:101AB0000098B0F5A06F01D0002DF2D03120FFF7D3
:101AC000CEFF08B1012400E00024204638BD0146C5
:101AD0000020A14A106820F0F80040EAC100106020
:101AE0007047A04908607047024600209A4B58682A
:101AF00020F47C1042EA01031843974B586070476A
:101B000098490866704701460020934A506820F0C3
:101B100003000843506070478F48406800F00C0095
:101B20007047014600208C4A506820F0F0000843BE
:101B30005060704701460020874A506820F4E060FA
:101B400008435060704701460020834A506820F4E3
:101B5000605040EAC1005060704729B17E4A527A15
:101B600002437D4B5A7204E07B4A527A82437A4B9D
:101B70005A7270477B49D83108607047014600208F
:101B8000754A506820F44040084350607047002177
:101B9000714A20321170704A82F82010012802D058
:101BA00004280AD104E001216B4A2032117005E0BB
:101BB0000521694A2032117000E000BF00BF704764
:101BC0006949086070476449096A0143624A1162C1
:101BD0007047654944390860704730B500210022DC
:101BE000002400235C4D6D6805F00C0121B104292F
:101BF00005D0082923D105E05C4D056022E05B4D4E
:101C000005601FE0544D6D6805F47012524D6D680B
:101C100005F48034022505EB92421CB9544D55431E
:101C200005600BE04C4D6D6805F400351DB1504D5D
:101C30005543056002E04D4D5543056002E04B4DB4
:101C4000056000BF00BF444D6D6805F0F001090953
:101C5000484D6B5C0568DD4045603F4D6D6805F49F
:101C6000E061090A434D6B5C4568DD4085603A4D93
:101C70006D6805F46051C90A3E4D6B5C4568DD40F6
:101C8000C560354D6D6805F44041890B3A4D6B5C7C
:101C9000C568B5FBF3F5056130BD29B12E4A52691F
:101CA00002432D4B5A6104E02B4A526982432A4B6E
:101CB0005A61704729B1284A92690243264B9A61BA
:101CC00004E0254A92698243234B9A61704729B107
:101CD000214AD2690243204BDA6104E01E4AD269EC
:101CE00082431D4BDA61704729B11B4AD268024317
:101CF000194BDA6004E0184AD2688243164BDA6066
:101D0000704729B1144A12690243134B1A6104E067
:101D1000114A12698243104B1A61704712494039C7
:101D2000086070470F49C86470470B49C871704715
:101D30000948406A40F08070074948627047014690
:101D40000020054A92680A400AB1012000E0002004
:101D50007047014988727047001002400000FFF888
:101D6000FFFFF6FE000042428004424200127A0069
:101D700000093D00160000202600002000204449F4
:101D80000860091D0860091D0860091D08604148B8
:101D90003F4914310860704700213D498279002A8B
:101DA0003AD00A46126803689A430B461A600A1D25
:101DB000126803689A430B1D1A60027911440A687D
:101DC00003681A430A60324A0832126803689A4369
:101DD0002F4B08331A601A1D126803689A432C4B64
:101DE0000C331A604279102A0ED11A1F1268036848
:101DF0001A43274B08331A601A1D126803681A43E6
:101E0000234B0C331A600DE02149427911440A68D2
:101E100003681A430A6005E0027911440A680368FE
:101E20009A430A6070470021016001710C214171E1
:101E30000021817170471649103109680143144A25
:101E400010321160704701460020114A14321268A6
:101E50000A400AB1012000E0002070470C4914310B
:101E600008607047014600200022094B1B6803EA06
:101E70000102074B14331B680B4013B10AB1012058
:101E800000E00020704702491431086070470000EC
:101E900000040140FFFF0F0010B50446FB488442D8
:101EA00009D101218803FFF71FFF00214FF4804073
:101EB000FFF71AFF32E0F648844209D101214804B5
:101EC000FFF71FFF00214FF40030FFF71AFF25E056
:101ED000F048844209D101218804FFF712FF002154
:101EE0004FF48020FFF70DFF18E0EB48844209D142
:101EF0000121C804FFF705FF00214FF40020FFF780
:101F000000FF0BE0E548844208D101210805FFF7F6
:101F1000F8FE00214FF48010FFF7F3FE10BD2DE90D
:101F2000F04786B005460E460024A24600BFA146F3
:101F30000027B08900B100BF2F462C8A4CF6FF70F5
:101F40000440F08804432C82AC894EF6F310044020
:101F5000B08831890843718908430443AC81AC8A55
:101F60004FF6FF400440B0890443AC8201A8FFF75C
:101F700034FEC648874202D1DDF810A001E0DDF84A
:101F80000CA0A88900F4004040B10AEBCA0000EBA5
:101F90000A1031684900B0FBF1F807E00AEBCA000B
:101FA00000EB0A1031688900B0FBF1F86420B8FB3F
:101FB000F0F004012009642101FB1089A88900F4D4
:101FC000004040B1322000EBC900B0FBF1F000F05E
:101FD0000700044308E0322000EB09106421B0FB45
:101FE000F1F000F00F0004432C8106B0BDE8F0874B
:101FF0004FF41651016000218180C18001810C21C4
:10200000418100218181704710B502460020108A6D
:102010004FF2FF0318400B884C8823438C882343DE
:10202000CC8823431843108210BD002101804180D9
:102030008180C180704721B1828942F4005282813F
:1020400004E082894DF6FF731A4082817047F0B533
:102050000346002400260025002040F66A17B942F6
:1020600000D100BF1846C1F3421401F01F0601273A
:1020700007FA06F5012C01D10C3004E0022C01D145
:10208000103000E014301AB107682F43076002E0F7
:102090000768AF430760F0BD1AB1838A0B438382A0
:1020A00002E0838A8B4383827047028A4FF6F07383
:1020B0001A400282028A0A430282704782894FF2E2
:1020C000FF731A40828182890A438281704721B15D
:1020D000828942F00202828104E082894FF6FD7318
:1020E0001A4082817047028A4FF6DF731A400282DB
:1020F000028A0A430282704721B1028A42F4804276
:10210000028204E0028A4BF6FF731A400282704793
:10211000C1F308028280704701468888C0F3080036
:102120007047818941F0010181817047028BD2B2F1
:102130000283028B42EA012202837047028B02F47F
:102140007F420283028B0A430283704721B1828A55
:1021500042F02002828204E0828A4FF6DF731A4046
:102160008282704721B1828A42F01002828204E0AA
:10217000828A4FF6EF731A408282704721B1828AB9
:1021800042F00802828204E0828A4FF6F7731A4016
:102190008282704721B1828942F40042828103E049
:1021A0008289C2F30E028281704721B1828A42F491
:1021B0000062828204E0828A4FF2FF731A408282B8
:1021C0007047828A4FF6FB731A408282828A0A43E2
:1021D0008282704721B1828A42F00202828204E048
:1021E000828A4FF6FD731A408282704702460020B1
:1021F000B1F5007F00D100BF13880B400BB1012067
:1022000000E00020704701F40072B2F5007F00D1B9
:1022100000BFCA430280704770B502460024002305
:102220000025002040F66A16B14200D100BFC1F37C
:10223000421501F01F03012606FA03F3012D02D116
:102240009689334006E0022D02D1168A334001E020
:10225000968A33400C12012606FA04F4168834409C
:1022600013B10CB1012000E0002070BD10B50022B8
:10227000002340F66A14A14200D100BF0A120124D3
:102280009440A3B2DC43048010BD0000003801403C
:102290000044004000480040004C00400050004016
:1022A00010B50446FE48844208D10121C014FFF74E
:1022B0001BFD0021E014FFF717FDC4E0B4F1804FCF
:1022C00008D101210846FFF71CFD00210120FFF77E
:1022D00018FDB8E0F348844208D101210220FFF73D
:1022E00010FD00210220FFF70CFDACE0EE48844217
:1022F00008D101210420FFF704FD00210420FFF78D
:1023000000FDA0E0E948844208D101210820FFF740
:10231000F8FC00210820FFF7F4FC94E0E448844234
:1023200008D101211020FFF7ECFC00211020FFF75D
:10233000E8FC88E0DF48844208D101212020FFF733
:10234000E0FC00212020FFF7DCFC7CE0DA4884423E
:1023500008D101214014FFF7C7FC00216014FFF7EA
:10236000C3FC70E0D548844209D10121C804FFF7BD
:10237000BBFC00214FF40020FFF7B6FC63E0D0481F
:10238000844209D101210805FFF7AEFC00214FF47A
:102390008010FFF7A9FC56E0CA48844209D1012108
:1023A0004805FFF7A1FC00214FF40010FFF79CFC4B
:1023B00049E0C548844208D101214020FFF7A1FC33
:1023C00000214020FFF79DFC3DE0C048844208D139
:1023D00001218020FFF795FC00218020FFF791FC70
:1023E00031E0BB48844208D101218015FFF789FC08
:1023F0000021A015FFF785FC25E0B648844209D1ED
:1024000001210804FFF770FC00214FF48030FFF732
:102410006BFC18E0B048844209D101214804FFF761
:1024200063FC00214FF40030FFF75EFC0BE0AB488B
:10243000844208D101218804FFF756FC00214FF4A3
:102440008020FFF751FC10BD00220288944B984277
:102450000ED0994B98420BD0B0F1804F08D0914BE1
:10246000984205D0904B984202D0904B984204D1AC
:102470004FF68F731A404B881A438D4B984207D002
:102480008C4B984204D04FF6FF431A40CB881A4336
:1024900002808B8883850B880385814B98420BD003
:1024A000854B984208D08B4B984205D08A4B984276
:1024B00002D08A4B984201D10B7A03860123838292
:1024C000704770B5002400220023058C4FF6FE767D
:1024D00035400584028C8388048B4FF68F752C4021
:1024E000B51E2C400D882C43751E2A400D892A43A9
:1024F0004D882A436A4DA8420BD06F4DA84208D0A0
:10250000744DA84205D0744DA84202D0734DA84224
:1025100013D14FF6F7752A404D892A434FF6FB75C4
:102520002A408D882A434FF6FF652B404FF6FF5512
:102530002B408D892B43CD892B4383800483CD8809
:102540008586028470BD70B5002400220023058CAE
:102550004FF6EF7635400584028C8388048B48F66D
:10256000FF752C404FF6FF452C400D884FF6FF7647
:1025700006EA05252C434FF6DF752A400D8906EA49
:1025800005152A434D8806EA05152A43444DA842FD
:1025900002D0494DA8421DD14FF67F752A404D8982
:1025A0004FF6FF7606EA05152A434FF6BF752A4017
:1025B0008D8806EA05152A434FF6FF352B404FF26A
:1025C000FF752B408D8906EA85052B43CD8906EAE8
:1025D00085052B4383800483CD880587028470BDE5
:1025E00070B5002400220023058C4FF6FF663540AD
:1025F0000584028C8388848B4FF68F752C404FF6B0
:10260000FC752C400D882C434FF6FF552A400D8950
:102610004FF6FF7606EA05252A434D8806EA05258A
:102620002A431F4DA84202D0234DA8421DD14FF28C
:10263000FF752A404D894FF6FF7606EA05252A43A5
:102640004FF6FF352A408D8806EA05252A434EF6C7
:10265000FF752B404DF6FF752B408D8906EA051559
:102660002B43CD8906EA05152B4383808483CD88CF
:102670008587028470BD70B5002200230024058C7C
:102680004EF6FF7635400584038C8488828B48F6AD
:10269000FF752A404FF6FF452A400D8820E00000D4
:1026A000002C01400004004000080040000C0040E5
:1026B000001000400014004000340140004C014074
:1026C000005001400054014000180040001C004030
:1026D000002000400040014000440140004801400B
:1026E0004FF6FF7606EA05252A434DF6FF752B4087
:1026F0000D8906EA05352B434D8806EA05352B433F
:10270000FA4DA84202D0FA4DA84208D14BF6FF7507
:102710002C408D894FF6FF7606EA85152C43848080
:102720008283CD88A0F84050038470BD828B4FF225
:10273000FF331A408283828B4FF6FF7303EA012333
:102740001A4382837047F0B50C46154600220021DB
:102750000026078C4EF6FF7C07EA0C070784828B65
:10276000018C4FF6FF7707EA043640F6FF473A4000
:102770004FF6FF7707EA05273A434FF6FF7707EA58
:1027800003373A43D94FB8420ED0D94FB8420BD095
:10279000B0F1804F08D0D74FB84205D0D64FB842DD
:1027A00002D0D64FB84206D14DF6FF77394046F4F5
:1027B0008057394305E047F6FF57394044F48057C6
:1027C000394382830184F0BD828B4FF6F3731A4044
:1027D0008283828B0A4382837047F0B50C4615468C
:1027E000002200210026078C4FF6FF6C07EA0C0739
:1027F0000784828B018C4FF6FF7707EA04264FF699
:102800000C773A404FF6FF7707EA03172F433A4316
:10281000B64FB8420ED0B64FB8420BD0B0F1804F91
:1028200008D0B44FB84205D0B34FB84202D0B34F2E
:10283000B84206D14FF6FF57394046F48077394306
:1028400005E04FF2FF57394044F4807739438283E3
:102850000184F0BD028B4FF2FF331A400283028BDA
:102860004FF6FF7303EA01231A4302837047F0B562
:102870000C461546002200210026078C4FF6EF7CFF
:1028800007EA0C070784028B018C4FF6FF7707EAF3
:10289000041640F6FF473A404FF6FF7707EA033742
:1028A0003A434FF6FF7707EA05273A438F4FB8427E
:1028B0000ED08F4FB8420BD0B0F1804F08D08D4F63
:1028C000B84205D08C4FB84202D08C4FB84206D1E6
:1028D0004FF6DF77394046F01007394305E04FF6F1
:1028E0005F77394044F01007394302830184F0BD1B
:1028F000028B4FF6F3731A400283028B0A43028362
:102900007047F0B50C46154600220021068C4FF6A4
:10291000FE773E400684028B018C4FF60C763240E7
:102920007E1C06EA03162E433243704EB0420ED090
:102930006F4EB0420BD0B0F1804F08D06D4EB04218
:1029400005D06D4EB04202D06C4EB04206D14FF66B
:10295000FD76314044F00106314305E04FF6F5764F
:10296000314044F00106314302830184F0BD70B56B
:1029700005460C465D4885420ED05D4885420BD029
:10298000B5F1804F08D05B48854205D05A48854252
:1029900002D05A48854200D100E000BF208850B9DB
:1029A0002389A28861882846FFF7ABFFE188284683
:1029B000FFF79EFF25E0208804280AD12389A288FA
:1029C00061882846FFF753FFE1882846FFF742FF5A
:1029D00017E0208808280AD12389A2886188284620
:1029E000FFF7FBFEE1882846FFF7EEFE09E02389AA
:1029F000A28861882846FFF7A6FEE1882846FFF7EF
:102A000095FE70BD2DE9F04105460C4600260127D4
:102A1000608808B9022600E00026A088012801D1BC
:102A2000022700E001272088A0B92389A2886188B5
:102A30002846FFF766FFE1882846FFF759FF2389FC
:102A40003A4631462846FFF712FFE1882846FFF74D
:102A500001FF13E02389A28861882846FFF707FF5A
:102A6000E1882846FFF7F6FE23893A463146284694
:102A7000FFF747FFE1882846FFF73AFFBDE8F081FE
:102A80000A884B881A438B881A43CB881A430B89D0
:102A90001A434B891A438B891A43A0F84420704784
:102AA0004FF6FF71818000210180C1804180017259
:102AB00070470021018041808180C1800181418176
:102AC0008181C18170470021018041800121818085
:102AD0000021C180018170470021018041808180F7
:102AE000C18001814181818170470000002C01403B
:102AF000003401400004004000080040000C004089
:102B000021B1028842F00102028004E002884FF6FF
:102B1000FE731A400280704731B1B0F8442042F48D
:102B20000042A0F8442005E0B0F84420C2F30E02B1
:102B3000A0F8442070471AB183890B43838102E0D7
:102B400083898B43838170478182704741EA020306
:102B5000A0F8483070471AB183890B43838102E0A3
:102B600083898B438381704701894FF6F872114046
:102B7000018170470A46002101894FF68F73194081
:102B800011430181704730B504460D462946204661
:102B9000FFF7F0FF208940F00700208130BD2DE9CC
:102BA000F04104460D4616461F46602D06D13B46B1
:102BB000012231462046FFF75AFE05E03B4601223E
:102BC00031462046FFF79DFE29462046FFF7D2FFFB
:102BD000208940F007002081BDE8F08130B50C4627
:102BE00000210189C9B24FF6FF7505EA0325154397
:102BF00025432943018130BD2DE9F04105460E46AC
:102C000017469846002443463A4631462846FFF781
:102C1000E5FF2C894FF6F870044044F007044FF6A6
:102C20008F70044044F070042C81BDE8F081F0B551
:102C300004460D4616461F463B4632462946204668
:102C4000FFF7CCFF208940F480402081F0BD018552
:102C5000828270470A46002101884FF68F7319401F
:102C6000114301807047F0B50C4615461E46002101
:102C7000002200230189028B038C4FF6F87739403C
:102C800021434FF6FC473A4040F201173A434FF6D2
:102C9000DD773B404FF6FF7707EA06172F433B43AC
:102CA000018102830384F0BD0A460021018B4FF6A7
:102CB0008F7319401143018370470A460021018B2D
:102CC00048F6FF7319404FF6FF7303EA02231943D6
:102CD000018370470A460021818B4FF68F7319409C
:102CE0001143818370470A460021818B48F6FF73A8
:102CF00019404FF6FF7303EA02231943818370479B
:102D000021B1028842F08002028004E002884FF67E
:102D10007F731A400280704721B1828842F004021A
:102D2000828004E082884FF6FB731A4082807047ED
:102D300021B1828842F00802828004E082884FF646
:102D4000F7731A408280704721B1828842F00102F5
:102D5000828004E082884FF6FE731A4082807047BA
:102D60000A460021018B4FF6F77319401143018386
:102D700070470A460021018B4FF2FF7319404FF64E
:102D8000FF7303EA02231943018370470A460021B7
:102D9000818B4FF6F77319401143818370470A46C0
:102DA0000021818B4FF2FF7319404FF6FF7303EA46
:102DB00002231943818370470A460021018B4FF695
:102DC000FB7319401143018370470A460021018BB0
:102DD0004FF6FF3319404FF6FF7303EA02231943FE
:102DE000018370470A460021818B4FF6FB7319401F
:102DF0001143818370470A460021818B4FF6FF33D0
:102E000019404FF6FF7303EA022319438183704789
:102E10000A460021018B4FF67F731940114301834D
:102E200070470A460021018BC1F30E014FF6FF7374
:102E300003EA02231943018370470A460021818B6C
:102E40004FF67F7319401143818370470A46002172
:102E5000818BC1F30E014FF6FF7303EA022319437E
:102E6000818370470A460021018C4FF6FD7319409B
:102E70001143018470470A460021018C4FF6F77315
:102E800019401143018470470A460021018C4FF616
:102E9000DF7319404FF6FF7303EA021319430184ED
:102EA00070470A460021018C4FF67F7319404FF698
:102EB000FF7303EA02131943018470470A46002195
:102EC000018C4FF6FF5319404FF6FF7303EA0223BC
:102ED0001943018470470A460021018C4FF2FF73A9
:102EE00019404FF6FF7303EA022319430184704728
:102EF0000A460021018C4DF6FF7319404FF6FF730F
:102F000003EA023319430184704730B500230124DA
:102F10008C40A3B2048C9C430484048C02FA01F517
:102F2000ADB22C43048430BD30B5002304248C4062
:102F3000A3B2048C9C430484048C02FA01F5ADB264
:102F40002C43048430BD70B503460020002418468D
:102F5000183001258D40ACB21D8CA5431D8409B1EC
:102F6000082909D100EB6100056825F070050560AE
:102F70000568154305600EE00D1FC5F34E05284496
:102F8000056825F4E045056005684FF6FF7606EA1A
:102F900002263543056070BD21B1028842F002026D
:102FA000028004E002884FF6FD731A4002807047E9
:102FB00021B1028842F00402028004E002884FF648
:102FC000FB731A400280704721B1828842F0800270
:102FD000828004E082884FF67F731A4082807047B7
:102FE00002884FF6F7731A40028002880A43028073
:102FF000704782884FF68F731A40828082880A4316
:103000008280704702894FF6F8731A400281028964
:103010000A430281704702894FF67F731A4002818A
:1030200002890A4302817047818470478185704715
:10303000818670470187704781877047A0F84010EC
:10304000704702884FF6FF431A40028002880A4305
:10305000028070470146888E70470146088F70478E
:103060000146888F70470146B1F84000704701461D
:10307000888C70470146088D704702460020138AED
:103080000B400BB1012000E000207047CA430282D0
:10309000704730B50246002000230024158A05EA57
:1030A0000103958905EA010413B10CB1012000E088
:1030B000002030BDCA4302827047000006488047A6
:1030C00006480047FEE7FEE7FEE7FEE7FEE7FEE70D
:1030D000FEE7FEE7FEE7FEE7BF310008310100082A
:1030E0000CB50020019000906C48006840F48030DE
:1030F0006A49086000BF6948006800F40030009029
:103100000198401C0190009818B90198B0F5A06F83
:10311000F1D16248006800F4003010B10120009045
:1031200001E0002000900098012843D15C4800682D
:1031300040F010005A4908600846006820F003007B
:1031400008600846006840F0020008605348406884
:10315000524948600846406848600846406840F464
:10316000806048600846406820F47C10486008464B
:10317000406840F4E81048600846006840F08070FD
:10318000086000BF4548006800F000700028F9D0D2
:103190004248406820F003004049486008464068C3
:1031A00040F00200486000BF3C48406800F00C005E
:1031B0000828F9D10CBD10B5FFF792FF10BD10B56E
:1031C0003648006840F0010034490860084640680D
:1031D000344908403149486008460068324908408F
:1031E0002E4908600846006820F4802008600846E0
:1031F000406820F4FE0048604FF41F008860FFF72D
:10320000DAFF4FF000602949086010BD10B50021B9
:1032100000200022214B5B6803F00C0121B104293E
:1032200006D0082928D107E0214B224C236027E053
:103230001F4B204C236023E0184B5B6803F4701095
:10324000164B5B6803F48032022303EB904022B9F3
:10325000194B4343174C23600DE0104B5B6803F49C
:10326000003323B1144B4343124C236003E0104B53
:103270004343104C236003E00D4B0E4C236000BF12
:1032800000BF064B5B68C3F303130C4CE15C094BB6
:103290001B68CB40074C236010BD000000100240AB
:1032A000002002400000FFF8FFFFF6FE08ED00E0FE
:1032B00000127A002C00002000093D0030000020A0
:1032C0002DE9F05F0546002092469B46884606465B
:1032D000814640241BE0284641464746224600F0EE
:1032E00058FB53465A46C01A914110D3114618460E
:1032F000224600F03FFB2D1A67EB01084F4622469D
:103300000120002100F036FB17EB00094E41201E82
:10331000A4F10104DFDC484631462A464346BDE8B5
:10332000F09F10B5431A934209D28318881803E01E
:1033300010F8011D03F8011D521EF9D210BD40EA1C
:1033400001039B0703D009E008C9121F08C0042A23
:10335000FAD203E011F8013B00F8013B521EF9D20A
:1033600010BD000070B5054C054D03E020682044F9
:103370008047241DAC42F9D170BD0000E046000832
:10338000E4460008F0B480EA0102D40F4200B2EB38
:10339000410F02D20246084611464A0042D0C30DF0
:1033A000DDB2C1F3C752AD1A202D35DAC1F31601D3
:1033B00041F4000204B15242C5F1200602FA06F1BE
:1033C0002A411044B3EBD05F23D0C4B1012DA0EB50
:1033D000C35009DCF0BC4FF0004202EAC352DBB23A
:1033E00000F5000000F007BB400000F1807000EB2A
:1033F000C350A0F1807040EAD170490009E049084B
:1034000041EAC071A0EBC35000F50000400800EB9A
:10341000C350F0BC00F0E6BA6142012202EB410168
:10342000001BF6E7F0BC704781F00041AAE780F08E
:103430000040A7E780EA010210B502F00043400017
:1034400022D04A001FD0010E01EB1261C0F35600DA
:10345000C2F3560240F4000042F40002A0FB022036
:1034600000047F39140400D0401C50EA124001D4FB
:103470004000491EC2B20C0604EBD010401C4008AC
:10348000802A02D003E0002010BD20F001000029B6
:1034900000DA0020184310BD30B480EA010202F0C7
:1034A000004530F0004221F0004013D090B1C30D30
:1034B000D40DC2F31601C0F31600E41A41F4000162
:1034C00040F400027D34914201D3641C00E04900C5
:1034D000002C02DA30BC002070474FF400000023BB
:1034E000914201D3891A034340084FEA4101F7D1C1
:1034F00051B1914202D14FF0004105E002D24FF0AC
:10350000010101E06FF0010103EBC450284430BC1D
:1035100000F068BA2DE9FE4F804681EA0300C00F33
:103520000C46009021F0004123F00045B8EB02006A
:10353000A94105D24046214690461C460B4602460C
:1035400023F00040104347D0270DC7F30A00C3F310
:103550000A510290401A019040286BDAC3F313001D
:1035600040F4801B0098924620B10023D2EB030A5E
:1035700063EB0B0B01985946C0F14002504600F036
:10358000F9F906460D4650465946019A00F011FADF
:1035900010EB08006141002487EA115284EAE773C6
:1035A0001A4340D0009A62B3019A012A4FEA0752A7
:1035B00015DC001B61EB02014FF0004202EA0752EA
:1035C000CDE90042001C41F5801132462B4600F047
:1035D0007CFA03B0BDE8F08F40462146F9E7001BB6
:1035E00061EB0201001C41F5801300185B412018BB
:1035F000A2F5001747EB030140EAD570B6196D41FB
:1036000011E06D084FEA360645EAC0754FEA0752E9
:10361000001B61EB0201001C41F5801149084FEAD3
:1036200030000019514132462B4603B0BDE8F04F3F
:1036300000F03EBA0098012240000023D0EB0202C5
:1036400063EBE073009821464FEAE074B8EB0000AA
:1036500061EB0401E9E783F000435BE781F000419F
:1036600058E72DE9FE4F81EA030404F0004421F0FD
:10367000004100944FF0000B23F0004350EA010496
:103680005ED052EA03045BD0C3F30A54C1F30A5577
:103690002C44A4F2F3340194A0FB0254C1F31301AF
:1036A00041F48011C3F3130343F4801301FB02447C
:1036B00000FB034E840A970A44EA815447EA835781
:1036C000A4FB076802958D0A05FB07854FEA932C3A
:1036D00004FB0C542705029D4FEA065847EA1637AB
:1036E000B5EB08056EEB070C870E920E47EA8117C3
:1036F00042EA8312A7FB0201B6EB0B0164EB000464
:103700002B0D43EA0C335E1844EB1C50DA4651464D
:10371000E7FB0201C5F313044FEA0B3343EA1453EA
:103720004FEA0432019C43EA0603A4F10C0402941C
:10373000009CCDE900B400F0C8F903B0BDE8F08FFB
:1037400000200146F9E72DE9F04D81EA030404F079
:10375000004B21F0004514464FF0000A23F00041D1
:1037600050EA050220D054EA01021DD0C5F30A57E1
:103770000246C5F31303C1F31300C1F30A5640F424
:10378000801543F48013A7EB0608101BD64608F2F9
:10379000FD3873EB050002D308F1010801E092182F
:1037A0005B41B8F1000F03DA00200146BDE8F08D5F
:1037B00000204FF48011064684460EE0171B73EB81
:1037C000050705D3121B63EB050306434CEA010C06
:1037D00049084FEA300092185B4150EA0107EDD1E9
:1037E00052EA030012D082EA040083EA050108438A
:1037F00005D0101BAB4106D20122002306E00022B7
:103800004FF0004302E06FF0010253101AEB060084
:103810004CEB085110EB0A0041EB0B01BDE8F04DF9
:1038200000F046B90EB5C10F80EAE0700844CA073F
:10383000002140F233438DE80E000A460B4600F0AB
:1038400044F903B000BD3EB5CA17CB0F0024504069
:103850005140C0186141DA0740F233430094CDE98A
:1038600001232246234600F030F903B030BD70B585
:10387000C1F30A5201F000450024C1F3130140F2E4
:10388000FF3341F480119A4201DA002070BD40F20A
:1038900033439A42A2F2334203DC524200F079F8F9
:1038A00000E090402C43F1D0404270BD70B5C1F3B0
:1038B0000A5201F000450024C1F3130140F2FF3326
:1038C00041F480119A4202DA0020014670BD40F2B4
:1038D00033439A42A2F2334203DC524200F059F8D9
:1038E00001E000F047F82C43F0D00023D0EB0300B8
:1038F00063EB010170BD000030B5002904DB4FF01F
:103900000044404264EB0101002B04DB4FF0004413
:10391000524264EB03038B4208BF824230BD000079
:1039200030B5002904DB4FF00044404264EB010154
:10393000002B04DB4FF00044524264EB0303994236
:1039400008BF904230BD000030B50B460146002054
:103950002022012409E021FA02F59D4205D303FA51
:1039600002F5491B04FA02F52844151EA2F10102D2
:10397000F1DC30BD202A04DB203A00FA02F10020FD
:1039800070479140C2F1200320FA03F3194390409D
:103990007047202A04DB203A21FA02F00021704708
:1039A00021FA02F3D040C2F12002914008431946A7
:1039B0007047202A06DBCB17203A41FA02F043EA8F
:1039C000E07306E041FA02F3D040C2F120029140D8
:1039D0000843194670470000004870474C0000201B
:1039E000704770470029A8BF7047401C490008BFB6
:1039F00020F00100704710B4B0FA80FC00FA0CF01F
:103A000050EA010404BF10BC704749B1CCF1200456
:103A100021FA04F411FA0CF118BF012121430843E3
:103A2000A3EB0C01CB1D4FEA00614FEA102042BF0F
:103A3000002010BC704700EBC35010440029A4BF05
:103A400010BC7047401C490008BF20F0010010BCAA
:103A50007047F0B4002802DCF0BC00207047C0F3CF
:103A6000C751C0F3160040F40000CA0701D140005E
:103A7000491E3F2202EB6105002211464FF4000669
:103A800026FA01F31344D418844201D8001B1A46C5
:103A90004000491C1729F3DD5100814202D24FF04A
:103AA000FF3100E0002102EBC550F0BCFFF79ABFE8
:103AB00010B5002B08DA401C41F1000192185B415F
:103AC0001A4301D120F0010010BD2DE9F04D9246BE
:103AD0009B4611B1B1FA81F202E0B0FA80F22032D5
:103AE0009046FFF747FF04460F4640EA0A0041EAC6
:103AF0000B0153465A46084313D0114653EA0100BE
:103B000019D0C8F140025046FFF743FF05460E4664
:103B1000504659464246FFF72DFF084305D0012085
:103B200004E020463946BDE8F08D0020054346EA12
:103B3000E0762C4337430A986305E40AA0EB0800BB
:103B40000022FD0A44EA47540A3002D5002001460B
:103B5000E9E7010510196941DDE9084500196941E6
:103B6000BDE8F04DA4E7C1F30A52C1F3130140F2DE
:103B7000FF3341F480119A4202DA00200146704777
:103B800040F233439A42A2F2334202DC5242FFF740
:103B900000BFFFF7EFBE0000064C074D06E0E068EF
:103BA00040F0010394E8070098471034AC42F6D384
:103BB000FCF7C2FAC0460008E04600080FB4054B07
:103BC00010B503A9044A029800F064F910BC5DF82E
:103BD00014FB000079120008100000202DE9F041CC
:103BE000074690460E460025102000F063F80400BA
:103BF0000BD0C4F80C80C4E90176FFF7EDFE016834
:103C0000216004602846BDE8F0810125FAE72DE92E
:103C1000F0410646FFF7E0FE804613E026B1E0687B
:103C2000B04201D025460EE020682860D4E90101A9
:103C3000D8F800708847204600F00EF8D8F8000049
:103C4000B84200D045462C68002CE7D1BDE8F08191
:103C50000020FFF7C6BE000030B528B1144C031F8A
:103C6000002021680A4605E0084630BD9A4203D884
:103C700010465268002AF9D1002800D041680BD0C4
:103C80000468A3EB0005A54204D11B681C4403464D
:103C9000046002E0436000E023603AB11C68D51A7A
:103CA000A54203D115682C441C6052685A6030BD8F
:103CB000400000202DE9F04782460F4C10480D4E81
:103CC0000E4F001B4FF0000820F007054FF00109D0
:103CD00000221146504600F075FC002802D13068E1
:103CE00010B10020BDE8F0873C60C4E90058C6F878
:103CF0000090EDE7440000209401002040000020E7
:103D00009003002002E008C8121F08C1002AFAD15F
:103D100070477047002001E001C1121F002AFBD14B
:103D2000704700000149086070470000480000200B
:103D30002DE9FF5FDDE90220010DDDF838B0024317
:103D400018D044F61050A1F2FF3141430D140F98E2
:103D5000012820D0A5EB0B00401C5FEA000A4FF0C1
:103D60000004474EDFF81C91A046504616D5CAF114
:103D7000000728E00F98012443A2012808D0002161
:103D800000980F9BC0E90021C0E90243BDE8FF9FF6
:103D90006FEA0B01F4E7CBF10000DEE7074612E023
:103DA000F80707D02246334640464946FFF759FCFC
:103DB000804689462246334610461946FFF751FC95
:103DC00004460E467F10002FEAD1DDE90201BAF168
:103DD000000F42464B4602DAFFF743FC01E0FFF7D3
:103DE000B2FC04460E460022284BFFF799FD03D88B
:103DF0004FF0FF30014607E00022254B20463146B8
:103E0000FFF788FBFFF7AFFE102409E0002C0ADB68
:103E10000A220023FFF754FA019B30321A55641E20
:103E200050EA0102F2D1641C019AC4F11103144456
:103E30000F9A012A03D0012208430DD10AE008435A
:103E400004D000204FF0110B0F9080E7A3EB0B057F
:103E50006D1E0DE05B4504DD4FF0000205F101052C
:103E600004E003DA4FF00002A5F10105002AECD0CE
:103E700000980F99C0E90231C0E9004586E70000CB
:103E8000000024400000F03F300000000000F0433C
:103E90000000E03F2DE9FF4F95B09B46894606465E
:103EA00000250FE2252877D100242746F84A012172
:103EB000059400E0044316F8013F203B01FA03F0AB
:103EC0001042F7D130782A2811D06FF02F033078C4
:103ED000A0F13002092A16D8059A44F0020402EB38
:103EE000820203EB42021044761C0590EFE759F87A
:103EF000042B0592002A03DA504244F40054059042
:103F000044F00204761C30782E2816D116F8010FE2
:103F100044F004042A280DD06FF02F023078A0F16D
:103F20003003092B09D807EB870302EB4303C718BB
:103F3000761CF3E759F8047B761C30786C280FD098
:103F400006DC4C2817D068280DD06A2814D104E06C
:103F5000742810D07A280FD10DE044F400140AE040
:103F600044F4801401E044F440147278824202D197
:103F700004F58014761C761C307866280BD013DC90
:103F8000582877D009DC002875D04528F6D0462877
:103F9000F4D047281AD19DE118E0632835D0642871
:103FA00079D0652812D195E1702873D008DC672894
:103FB000F1D069286FD06E280DD06F2806D1B5E0FA
:103FC00073282CD0752875D0782874D05A46179944
:103FD00090476D1C75E1C4F30250022809D00328F4
:103FE0000DD0D9F8001004280DD00D6009F1040996
:103FF00067E1D9F80010EA17C1E90052F6E7D9F8ED
:1040000000100D80F2E70D70F0E719F8041B8DF831
:10401000001000208DF80100EA46012003E059F865
:1040200004AB4FF0FF3061074FF0000102D40DE008
:1040300008F101018846B9420FDA8045F8DB1AF829
:1040400008100029F4D108E008F1010188468142F6
:10405000FADB1AF808100029F6D105985B46A0EBA8
:10406000080721463846179A00F094FA284400EBD6
:10407000080507E04DE029E10DE01AF8010B5A466A
:1040800017999047B8F10108F7D25B4621463846A8
:10409000179A13E142E00A220092C4F302524FF051
:1040A000000A022A08D059F804CB032A4FEAEC711F
:1040B0000AD00DE029E02AE009F1070121F007020A
:1040C000F2E802C1914609E00FFA8CFC4FEAEC716C
:1040D000042A03D14FFA8CFC4FEAEC71002907DA6D
:1040E0000A460021DCF1000C61EB02012D2202E006
:1040F000220504D52B228DF80420012203E0E207DB
:1041000001D02022F7E7904659E00A2102E0102270
:104110000DE010214FF0000A00910BE010224FF04B
:10412000000A44F004040827009203E008224FF03C
:10413000000A0092C4F30252022A05D059F804CBB7
:104140000021032A08D009E009F1070121F0070244
:10415000F2E802C1914605E01FFA8CFC042A01D165
:104160000CF0FF0C4FF00008220728D5702806D06D
:10417000009B83F0100353EA0A0305D00EE04022AF
:104180008DF80420012208E05CEA010206D030220A
:104190008DF804208DF8050002229046009B83F0E4
:1041A000080353EA0A030AD15CEA010201D162075B
:1041B00005D530228DF804204FF001087F1E5828C5
:1041C00004D034A003900EA802900DE036A0F9E7C9
:1041D00053466046009AFFF773F884460398825C62
:1041E0000298401E029002705CEA0100F0D1029831
:1041F00006A9081A00F1200A600702D524F48034C9
:1042000000E00127574502DDA7EB0A0000E000208F
:1042100000EB0A01009005984144401A0590E00324
:1042200006D45B462146179A059800F0B3F9054479
:10423000002706E001A85A46C05D179990476D1CFB
:104240007F1C4745F6DBE0030CD55B462146179AF9
:10425000059800F09FF9054404E030205A4617996C
:1042600090476D1C0099481E00900029F5DC08E07D
:10427000029802995A460078491C02911799904772
:104280006D1CBAF10001AAF1010AF1DC65E1000040
:10429000092801003031323334353637383961621C
:1042A00063646566000000003031323334353637E0
:1042B00038394142434445460000000000F058F9B7
:1042C0000544761C307800287FF4ECAD19B0284600
:1042D000BDE8F08F620700D4062709F1070222F03B
:1042E000070CFCE80223E14603F000485FEA080CF3
:1042F00002D00FF2702C0DE05FEA045C02D50FF2E1
:10430000682C07E05FEAC47C02D00FF2602C01E069
:10431000AFF2700C4FF0FF3823F00043CDF850C0DF
:1043200065280CD006DC452809D046281DD0472832
:104330003DD13DE0662818D067287ED138E00021C5
:10434000112F01DB112000E0781CCDE9000106A946
:104350000EA8FFF7EDFCDDE90F010E9A0391002195
:10436000009207F1010A04914DE04FF000400097E0
:10437000CDE9011006A90EA8FFF7DAFCDDE90F026E
:1043800003920E9B11990022DDF80CA00093049279
:1043900011B9791C00EB010AB7EB0A0004D4C0F193
:1043A000FF3007F1010A0490AAEB0700019044E0F6
:1043B000012F00DA01270021112F01DD112000E07B
:1043C0003846CDE9000106A90EA8FFF7B1FCDDE9EA
:1043D0000F010E9A0391002104910092BA46210721
:1043E0000CD40399514500DA8A46BAF1010F05DD74
:1043F000009AAAF10101515C302908D0B84202DAD2
:1044000010F1040F06DA0121CDE9011015E0AAF13F
:104410000101E9E7002805DC049901440491AAEBB5
:10442000000102E0411C514500DD8A460499401A12
:10443000401C01904FF000400290200704D40198E6
:10444000504501DBCDF8048000208DF84F00029824
:104450000DF14F07B0F1004F25D02B200E900298A0
:104460004FF0020800280CDA404202902D200E90F6
:1044700007E00A210298FFF767FA3031029007F847
:10448000011DB8F10001A8F10108F2DC0298002832
:10449000EFD1791E0E980870307800F0200040F0BF
:1044A000450007F8020D12A8C01B00F10708149878
:1044B000007800B1012000EB0A01019801EBE071E6
:1044C00005984144401A401E0590E00306D45B461F
:1044D0002146179A059800F05DF805441498007875
:1044E00018B15A46179990476D1CE00324D55B46D6
:1044F0002146179A059800F04DF805441CE00498F1
:10450000002807DBDDE90301884203DD0098405CF9
:10451000179901E0179930205A469047049805F101
:104520000105401C04900198401E019004D12E20EA
:104530005A46179990476D1CBAF10001AAF1010A79
:10454000DDDC05E017F8010B5A46179990476D1C02
:10455000B8F10001A8F10108F4DC5B462146179A86
:104560000598ABE62D0000002B00000020000000A5
:104570002DE9F041044600251E461746880404D460
:1045800005E039462020B0476D1C641EF9D5284649
:10459000BDE8F0812DE9F041044600251E46904615
:1045A000C80301D5302700E02027880404D505E0A2
:1045B00041463846B0476D1C641EF9D52846BDE813
:1045C000F08100002DE9F0410B3020F00706104D7E
:1045D00019E02068B04215D3B0420AD9871B201DCC
:1045E000D4F80480FEF79DFEA019C0E90078286089
:1045F00004E060682860201DFEF793FE201D266001
:10460000BDE8F081251D2C68002CE2D10020F7E7E1
:104610004000002070B50546FFF71BFA044620F065
:104620000040C0F1FF40C00F08D025F00040C0F1AD
:10463000FF40C00F04BF0120FFF774FB204670BD90
:104640002DE9F04704460D46A968A068FEF7F2FE82
:10465000074669686068FEF7EDFE804629682068B5
:10466000FEF7E8FE81464146FEF78CFE06463946D7
:10467000FEF788FEBDE8F0870000000000000000A3
:10468000513C00081D0400083F0400080000000021
:1046900000000000DB0900081D0400083F040008BA
:1046A0000000000000000000FD0D0008BD0E000825
:1046B0000000000000000000513C0008110F00083D
:1046C000E44600080000002050000000043D0008FF
:1046D000344700085000002040070000143D000847
:1046E000C3BCFFFF0000000000000000000000004D
:1046F00000000000000000000000000000000102B7
:104700000304010203040607080902040608000066
:1047100000A24A040000000000000000010203049F
:10472000060708090000000000000000000000006B
:044730000000000085
:0400000508000131BD
:00000001FF
