:020000040800F2
:100000000000022001A0000849A0000849A0000843
:1000100049A0000849A0000849A00008000000000D
:1000200000000000000000000000000049A00008DF
:1000300049A000080000000049A00008019700083E
:1000400049A0000849A0000849A0000849A00008EC
:1000500049A0000849A0000811970008359700083A
:10006000599700087D970008A197000849A000084B
:1000700049A0000849A0000849A0000849A00008BC
:1000800049A0000849A0000849A0000849A00008AC
:1000900049A0000849A0000849A00008C597000829
:1000A00049A00008699E000849A0000849A000086E
:1000B000B19E0008DD9E0008099F000849A00008C5
:1000C00049A0000849A0000849A0000849A000086C
:1000D00049A00008019100084D910008999100087D
:1000E0004998000849A0000849A0000849A0000854
:1000F000B99F000849A0000849A0000849A00008CD
:1001000049A0000849A00008359F000849A0000840
:1001100049A0000849A00008619F00088D9F0008C1
:1001200049A0000849A0000849A0000849A000080B
:1001300049A0000849A0000849A0000849A00008FB
:1001400049A0000849A0000849A0000849A00008EB
:1001500049A0000849A0000849A0000849A00008DB
:1001600049A0000849A0000849A0000849A00008CB
:1001700049A0000849A0000849A0000849A00008BB
:0801800049A0000849A0000895
:1001C00010B5054C237833B9044B13B10448AFF391
:1001D00000800123237010BDD00900200000000022
:1001E0009009010808B5034B1BB103490348AFF35D
:1001F000008008BD00000000D4090020900901081B
:10020000F0B44D1E04464F2D40D8DFE805F02828F5
:1002100028283F3F3F3F3D3D283D3D3D3D3D3D3D45
:100220003D3D3D3D3D3F2A2A2A2A2A2A2A2A283DA9
:100230003D3D3D3D3F3D2A29283F282A2A3D293F73
:100240003F3D3D3D28282828283D28283D283F3F80
:100250003D3D3D3F3F3F3D3D3D282A282A2AAAB14A
:10026000A3B1D4E90550854210DA26692F0106EBC7
:1002700005104FF0000C0135C0F804C06561F15560
:10028000F0BCC0E902237047002AEAD10020F0BC8C
:10029000704700BF10B4C3681C78522C0A460DD0BA
:1002A0004F2C02D0084610BC7047C16A0331C162AE
:1002B00020210133C36010BC0023A1E7C16A0231D1
:1002C000C1621F21F5E700BF002963D038B505469C
:1002D0000C462378013B4F2B37D8DFE803F0313150
:1002E000315036363B3B31313131313131313131C1
:1002F00031313131313631313131313131313131E9
:1003000028283131363131313137313131313136DF
:100310003B313131313131313131313131313636B9
:100320003137373737363131313131313131A368F7
:100330001B78052B04D1D5F838310133C5F8383195
:10034000D5F81C31B3F5006F08DD38BDA468002C6A
:10035000BFD138BDE468002CBBD1FAE70133C5F842
:100360001C31A1682846FFF7AFFFE1682846FFF778
:10037000ABFFD5F81C31013BC5F81C3138BDD5F8B1
:1003800044310133C5F84431D5F81C31B3F5006F61
:10039000DBDCE3E7704700BF7AB32DE9F0410A44A4
:1003A0000D460446D0F80011571E013D4FF00008DD
:1003B00009E00B46BD4201F10101C4F80011E65409
:1003C00084F8046117D0FF2915F8016FF1D1D4E941
:1003D000423284F8FF8020469847D4F82831013310
:1003E000C4F8283100230121BD42C4F80011E654AD
:1003F00084F80461E7D1BDE8F08170472DE9F04150
:10040000026815786E2D07462CD0A5F13003092B14
:1004100033D84FF0000EDFF868C000206FF00048BE
:1004200002E0B0EBD10F19DC01323A601478A4F18C
:10043000300300EB8000A8EB0301DBB205EB4006C4
:10044000092BACFB01012546A6F13000E9D9BEF12C
:10045000000F01D0C6F13000BDE8F0814FF0FF3051
:10046000BDE8F081531C03605578A5F13002092ADC
:1004700003D81A464FF0010ECDE70020ECE700BF8D
:10048000CDCCCCCC38B5D0E9053293420FDA026935
:1004900002EB031419010025656001334225436115
:1004A00055540C30FFF7AAFFA060204638BD002449
:1004B000204638BD10B5C3681A785F2A04460DD0AF
:1004C0006E2A0DD00C30FFF799FF013008D4E36895
:1004D0001A785F2A04D10133E36010BD0020FAE7E7
:1004E0004FF0FF3010BD00BFC3681A78542A19D1ED
:1004F000013370B5C3600446FFF7DCFF021E0FDB5B
:10050000D4E905318B420BDA216901EB03101D019F
:10051000002646600133052663614E55826070BD3A
:10052000002070BD0020704770B504460C30FFF706
:1005300065FF051E3EDDE66863689B1B9D4237DC58
:10054000A26873195207E36004D5725D242A04BFC0
:100550000133E360092D12DCD4E90532934227DA36
:10056000206900EB03100022013342606361FEB199
:10057000C0E90265002343600370A06270BD1B499F
:10058000082230460BF098FE30B9337A2E2B13D068
:100590005F2B11D0242B0FD0D4E905329A4207DD0E
:1005A000206900EB03100022013342606361DFE742
:1005B0000020E2E7002070BD737A4E2BECD1E26A96
:1005C000D4E905311632551B8B42E562F0DA226917
:1005D000074D02EB0310591C1B01616100214160B2
:1005E000D1541523C0E90253C7E700BF141F010807
:1005F000201F010870B5C368866A1A78422A04462B
:100600000D460FD10133E3602046FFF78DFF2A46E8
:1006100003464C212046FFF7F3FDE3681A78422A8F
:100620000546EFD0A662284670BD00BF2DE9F8430D
:10063000C3681A78532A30D15A1CC2605A780446CB
:1006400092B39A1CC2605A785F2A42D0A2F130005D
:10065000C3B2092B24D800210DE0303B99421CD8AD
:10066000E1680A78481C1AB1E0600A785F2A39D03C
:10067000A2F130001946C0B201EBC1030928A2F172
:10068000410502EB8303E8D9192D06D801EBC1031C
:1006900002EB8303373B9942E2D90020BDE8F8839F
:1006A000A2F14103192BD6D9A36803F00803002B4C
:1006B00014BF0125002500D1B1B9354B742103F1D8
:1006C000A80001E013F81C1F914214D08342F9D115
:1006D000E3E70023226A9A42DFD9E26952F8230055
:1006E000BDE8F8830133F5E7E3681B78433B012B52
:1006F00098BF0D46E1E75E69002E42D0D4E905209F
:100700008242D3F818C041DA27694FEA021E07EB8C
:1007100002114FF0000901324FF01808C1F804909F
:10072000626107F80E80C1E9026CA16235B3D3E9BA
:100730000351E36A82420B44E36225DA236903EB47
:1007400002101601002747600132182762619F5589
:10075000C0E90251E3681B78422B9FD10146204635
:10076000FFF748FF002898D0D4E90832934294DA82
:10077000E1695A1C41F8230022628FE7D3E9015155
:10078000D7E7D4E90520D1E70020E3E70021CCE753
:10079000A809010838B5044629B9C3681A787AB19E
:1007A0005A1CC2601978682919D0762908D104F139
:1007B0000C052846FFF722FEE3681A785F2A01D06D
:1007C000002038BD0133E3602846FFF717FEE368D9
:1007D0001A785F2AF4D10133E360012038BD04F1B7
:1007E0000C00FFF70BFEF2E7C3681A785F2A01D00E
:1007F0000120704710B55A1CC2605A785F2A04461F
:1008000005D00C30FFF7FAFDC043C00F10BD023316
:1008100040F80C3FFFF7F2FD002809DB092805DD51
:10082000E3681A785F2A03D10133E360012010BD29
:10083000002010BD28B909E0002908DDC068013991
:1008400040B103782F2BF7D0002070477047FBD1C1
:1008500080687047704700BF0346D0F8100130B180
:10086000096843680029D86800DBE3E77047012284
:10087000C3F81821704700BF002943D038B505469A
:100880000C4623784C2B33D8DFE803F03032323279
:100890003227303838323232323232323232323239
:1008A000323232323032323232323232323232322A
:1008B0003232323032323232303232323232303818
:1008C000323232323232323232323232323030320C
:1008D0003232303030323230300004F108012846F4
:1008E000FFF7BAFF10B103782F2B00D0002038BDDE
:1008F000A1682846FFF7C0FF0028F8D1E468002C63
:10090000BFD1F3E700207047F0B514465268A568E0
:100910004B1C1344AB4283B00E46074611D8E56822
:100920006DB9D4E9000339461844324608F098F806
:10093000D4E9003233449D5461683144616003B0AE
:10094000F0BDE268002AFAD155B16D00AB42FCD887
:10095000206829460BF0E2FD38B12060A560DEE793
:10096000022B4FF00205F0D8F2E7019020680BF05F
:10097000E1F9019B0122C4E90033C4E90232DEE758
:100980002DE9F04FC268157885B000238D420446EA
:10099000039300F028820F46994603AE4FF00108FA
:1009A000D4F830A0C4F8308013784C2B7FD0542B6F
:1009B00000F09C80732B4DD0662B24D15378702B84
:1009C00000F09980204601F025FD0546002800F042
:1009D00087800378322B00F0B280342B00F06181E5
:1009E0000AD8332B08D18368032B05D8DFE813F02E
:1009F00032015E0104000400C4F830A0002528463E
:100A000005B0BDE8F08FA3F13001092935D82046A3
:100A100001F0CCFE0546002862D0E3681A78492A26
:100A200000F0A180C4F830A02A4600232E212046E1
:100A3000FFF7E6FB3060002841D0E2681378BB4244
:100A400000F10C06ACD1039D01322846E26005B0EE
:100A5000BDE8F08F5378722B00F0E580702BB1D198
:100A60000232E260204600F00BFA002302464B21DE
:100A70002046FFF7C5FB05461DE06F2B24D0692BF0
:100A80007ED153786C2B9DD10232E26000255078E4
:100A9000002800F0978145212046FFF771FF2A4684
:100AA000034631212046FFF7ABFB054603E0204615
:100AB00001F0CAFF0546C4F830A0002DB4D10025CE
:100AC000284605B0BDE8F08F53786E2B7FF47AAFDF
:100AD0000232E260204601F069FE054600289CD102
:100AE0002846C4F830A005B0BDE8F08F2046FFF7D7
:100AF000FBFC0546DFE7931CE3609378542B5FD043
:100B00002046FFF7D7FC6FF0004398423FF474AFE4
:100B1000431C3FF471AF0130D4E905329342BFF674
:100B20006BAF2269190102EB03154FF0060C01337C
:100B3000C5F80490636102F801C0A86072E780689C
:100B4000E26A8168036802390A44E2621A78732A09
:100B500025D0D0F80CB0BBF1030F3FF64DAFDFE866
:100B60000BF0793381B00133E360204600F0BCFB29
:100B70002A46034604212046FFF742FB05469AE732
:100B8000742B7FF41FAF53786C2B7FF41BAF0232B2
:100B9000E260204601F046F8E268054677E75978BA
:100BA0007429D6D199780029D3D1204601F03AF89A
:100BB00003462A4637212046FFF722FB05467AE7FF
:100BC0000332E2600020A7E71978702920D06D2950
:100BD0001ED04FF0000B732A12D15A78502A0FD131
:100BE0009B786BB9204600F07FFB0346BBF1000FFA
:100BF000DFD01A4639212046FFF702FB0346D8E72B
:100C0000204600F03DF90346BBF1000FF1D1D0E7DB
:100C100058788842DDD1E16808785F28DBD101315E
:100C2000E1601A78D5E70232E260204600F0FAFF70
:100C30000546204601F0BAFDE36819784929834644
:100C400000F0C48003462A4601212046FFF7D8FA67
:100C5000054630E72A46002336212046FFF7D0FA22
:100C6000054628E7AA6812685178632900F0CC800D
:100C70001A78662A00F0D8802046019300F000F927
:100C8000019B83461A78632A72D159786C296FD1F7
:100C9000997800296CD145212046FFF771FE024664
:100CA00075E0E3681A785F2A00F0A680204600F01D
:100CB000E7F82A46034637212046FFF7A1FA054602
:100CC000F9E6712A17D15A78752A14D19A7892B90F
:100CD000204600F0D5F88346204600F0D1F80246C1
:100CE0002046019200F0CCF8019A034670BBC4F88C
:100CF00030A0054683E61A78662A00F09C806E2AAA
:100D00007FF47AAE5B78772B02D0612B7FF474AEE0
:100D10005F212046FFF734FE8346204600F082FF25
:100D2000E36819784529024600F0A580702900F093
:100D3000948069297FF460AE5B786C2B7FF45CAEA5
:100D40000190204600F09CF8019A03463C21204681
:100D5000FFF756FA5A4603463B212046FFF750FA62
:100D60002A4603463A212046FFF74AFA0546A2E6FC
:100D7000642A1AD15978742917D19978A9B92046CB
:100D800001F014FDE36819784929024657D013464B
:100D900039215A462046FFF733FA2A4603463821BE
:100DA0002046FFF72DFA054685E6702A05D15A78C8
:100DB000742A02D19B78002BE1D0204600F060F825
:100DC0000246E4E7C4F830A0054618E60133E360C4
:100DD000204600F089FA5A46034604212046FFF7D0
:100DE0000FFA03462FE70132C2602E211A4605B0E2
:100DF000BDE8F04FFFF704BA0133E3604521204618
:100E0000FFF7BEFD0346D4E61278A2F16301012983
:100E100003D9723A012A3FF62BAF2046019300F026
:100E200001FF019B83462DE72046019301F0F2FA72
:100E3000019B834626E7204601F0ECFA4BE701339D
:100E40000190E360204600F04FFA019A0346042126
:100E50002046FFF7D5F9024699E7597869297FF4CA
:100E6000CBAD02330190E36045212046FFF788FDBA
:100E7000019A03466AE70133E360002366E700BF97
:100E8000C26813784C2B00F09280542B00F09180B4
:100E9000732B2DE9F041044653D0662B31D0A3F1DA
:100EA000300109290CD8204601F080FC05460028B5
:100EB00079D0E3681A78492A7DD02846BDE8F081C8
:100EC0006F2B4FD0692B40F0838053786C2B00F050
:100ED000A280204601F09EFA0546002863D00378E0
:100EE000322B45D0342B00F093815CD8332B5AD170
:100EF0008368032B57D8DFE813F0CF0003015600B7
:100F000056005378702BE4D1931CC3609378542B14
:100F100000F02481FFF7CEFAC34333F0004342D000
:100F20000130D4E9053293423DDA226902EB031520
:100F3000190100266E600133062663615654A860CD
:100F4000BBE75378722B51D0702BC2D10232C260F2
:100F5000FFF796FF002302464B212046BDE8F041F3
:100F6000FFF74EB953786E2BB3D10232C2609AE7C5
:100F70008168E36A8A680E68023A1344E362337850
:100F8000732B5AD17278742A57D1B278002A54D16F
:100F9000204600F047FE03462A4620463721BDE89A
:100FA000F041FFF72DB900252846BDE8F08101F09A
:100FB0004BBDFFF799BA0133E360204600F094F986
:100FC0002A46034604212046BDE8F041FFF718B940
:100FD000742B7FF47EAF53786C2B7FF47AAF0232A0
:100FE000E26000F01FFEE268054617E00232C260D0
:100FF00000F018FE0546204601F0D8FBE3681A7899
:10100000492A064620D003462A4620460121BDE84B
:10101000F041FFF7F5B80232E26000255378002B6B
:10102000C1D045212046FFF7ABFC2A4603463121BB
:101030002046BDE8F041FFF7E3B8CF68032FB2D8F0
:10104000DFE807F02A0F32630133E360204600F047
:101050004BF93246034604212046FFF7D1F80346F8
:10106000D2E73278702A00F082806D2A7FD0002784
:10107000732B77D17378502B74D1B378002B71D147
:10108000204600F031F90346002F85D01A46392159
:101090002046FFF7B5F87EE72A4620460023BDE844
:1010A000F0413621FFF7ACB8AB681B685A78632A69
:1010B00000F0C2803378662B00F0CC802046FFF72A
:1010C000DFFE07463378632B40F0858072786C2A08
:1010D00040F08180B278002A7DD145212046FFF77B
:1010E0004FFC064633463A4639212046FFF788F83A
:1010F0002A46034638212046BDE8F041FFF780B874
:101100002046FFF7BDFE034646E7712B3CD17378BE
:10111000752B39D1B378BBBB2046FFF7B1FE06462D
:101120002046FFF7ADFE07462046FFF7A9FE03461F
:1011300000283FF438AF3A463C212046FFF760F8DC
:10114000324603463B212046FFF75AF82A4603461B
:101150003A212046BDE8F041FFF752B80332C260A1
:101160000020DEE62046FFF78BFE03468CE7717811
:1011700091427FF47CAFE26811785F297FF478AF09
:101180000132E260337872E73378662B6ED06E2BD3
:101190007FF409AF7378772B02D0612B7FF403AF14
:1011A0005F212046FFF7ECFB0646204600F03AFDA3
:1011B000E3681A78452A074668D0702A5AD0692A07
:1011C0007FF4F1AE5B786C2B7FF4EDAE2046FFF739
:1011D00057FE0346AFE7642B27D17278742A24D1D7
:1011E000B27812BB204601F0E1FAE3681A78492A86
:1011F00006467FF477AF0133E360204600F074F8D1
:101200003246034604212046FEF7FAFF064669E708
:10121000E3681A785F2A7FF473AF0133E3604521F6
:101220002046FFF7ADFB0346B6E6702B17D02046ED
:10123000FFF726FE064655E71B78A3F16302012A55
:1012400003D9723B012B3FF635AF204600F0EAFC94
:10125000074637E7204601F0DDF8074632E77378A6
:10126000742BE4D1B378002BBCD0E0E7204601F02A
:10127000D1F854E75A78692A7FF495AE0233E360D7
:1012800045212046FFF77CFB034654E70133E3602A
:10129000002350E738B5C26813784C2B1DD00446A4
:1012A00005D8493B012B13D8BDE838404EE0582BF8
:1012B0000ED101320123056BC2600363FFF7E0FD2D
:1012C000E36825631A78452A0BD10133E36038BD02
:1012D0002046BDE8384000F0A5BCBDE8384001F02C
:1012E000B3BB002038BD00BF70B5C368866A1A78EA
:1012F000452A82B004461FD00023019301AD09E0C6
:10130000FEF77EFF286000F10C0560B1E3681A78F3
:10131000452A0BD02046FFF7BDFF024600232F21B0
:101320002046002AECD1002002B070BD0198A662D0
:101330000133E36002B070BD5A1C0023C2602F214C
:101340001A4602B0BDE87040FEF75ABFC1680A787D
:10135000493A012A02D80131C160C5E7002070472F
:101360002DE9F047C2681378472B044601D0542B6F
:1013700034D1E16A01F11403E3621378542B5DD098
:10138000472B40F0A680531CE3605378002B00F0FD
:10139000A080931CE3605378562B00F2B580402B5D
:1013A00040F29780413B152B00F29380DFE813F069
:1013B0001C01910091009100910091009100910019
:1013C0009100910091009100910091009100910095
:1013D000910028019100370191004B010E4600F069
:1013E00057FA0546002874D0002E76D0A368DB0794
:1013F00073D42B784D2BA3F11C01A3F14F0200F005
:10140000D88000F2D480042940F2D380022B61D12D
:10141000EA6813784D2BA3F11C00A3F14F0103D010
:1014200000F2E381042855D89268EA6013784D2BC6
:10143000A3F11C00A3F14F01F2D1F5E7531CE360C7
:101440005378002B45D0931CE3605378413B352BF8
:101450003FD8DFE813F04C013E002C013E003E0077
:1014600021013E001601BF01B4013E003E003E00D6
:101470003E003E003E003E003E00A9019C013E00B1
:101480008F0184013E003E003E003E003E003E00D3
:101490003E003E003E003E003E006A013E003E002F
:1014A0003E003E0057013E003E003E003E003E0032
:1014B0003E003E003E003E003E003E003E003E003C
:1014C0000301D4E905039842C0F2A681E3680B4406
:1014D000E36000252846BDE8F087E3681B78002B11
:1014E000F8D0452BF6D029460B78042B00F0A881C4
:1014F00057D94D2BA3F14F0202D05CD9012A5DD8F8
:1015000089680029F0D15AE0722BE2D104F10C0075
:10151000FEF774FF0128DCDDE3681A78002AD8D0D2
:101520005F1CE7601B785F2BD3D10022451E9046DD
:101530004FF041093B78002BCBD0242B40F0598150
:101540007B78532B00F093815F2B00F08E81242B4E
:10155000BFD11946D4E90503984280F28A812669F1
:10156000070106EB00130130C3F80480606106F840
:101570000790E76899600237023DE760002A00F0B3
:101580005D8140212046FEF73BFE02460028A0D0A8
:10159000002DCFDC20460023BDE8F0473F21FEF7B9
:1015A0002FBE022B0AD1C96800299DD107E0012A6C
:1015B00090D8AD681DE71C3B042BA1D90021204623
:1015C00001F09AF80346002883D036B92A78022A17
:1015D00003D10278292A08BF86602A4620460321C3
:1015E000BDE8F047FEF70CBE00212046FFF7B8FE2D
:1015F0000023024617212046BDE8F047FEF700BE53
:10160000204600F045F905462046FEF73BFF2A46F6
:10161000034616212046BDE8F047FEF7F1BD93785A
:10162000002120462BB1D31CE36093786E2B00F091
:101630002581FFF795FE0023024649212046BDE89B
:10164000F047FEF7DDBD204600F022F900230246F8
:1016500013212046BDE8F047FEF7D2BD7621204693
:10166000FFF798F800283FF434AF00212046FFF739
:1016700077FE0023024610212046BDE8F047FEF722
:10168000BFBD204600F004F9002302461421204685
:10169000BDE8F047FEF7B4BD204600F0C3FA0023D2
:1016A00002460E212046BDE8F047FEF7A9BD2046C0
:1016B00000F0B8FA054604F10C00FEF79FFE002882
:1016C000FFF607AFE3681A785F2A7FF402AF0133B1
:1016D000E360204600F0A6FAE36A591DE162024683
:1016E0002B4620460B21BDE8F047FEF789BD20467A
:1016F000FFF7D0FD0023024630212046BDE8F04729
:10170000FEF77EBD68212046FFF744F800283FF42D
:10171000E0AE00212046FFF723FE002302460F2102
:101720002046BDE8F047FEF76BBD00212046FFF7DD
:1017300031F800283FF4CDAE00212046FFF72AF80B
:1017400000283FF4C6AE00212046FFF709FE002323
:10175000024611212046BDE8F047FEF751BD204664
:1017600000F096F80023024615212046BDE8F04718
:10177000FEF746BD0F31E162204600F053FA002328
:10178000024609212046BDE8F047FEF739BD0A317F
:10179000E162204600F046FA002302460A21204674
:1017A000BDE8F047FEF72CBD204600F03BFA0023D1
:1017B00002460D212046BDE8F047FEF721BD204638
:1017C00000F030FA0023024612212046BDE8F0471F
:1017D000FEF716BD204600F025FA002302460C2134
:1017E0002046BDE8F047FEF70BBD01293FF672AE7B
:1017F0001AE63E46002107E016F8013F002B3FF4B1
:1018000060AE242B3FF45DAE0131A942F4DBD4E994
:10181000050383427FF75AAE236903EB00130130BF
:10182000C3F80480606183F80080E0689F60471817
:10183000C3F80480D9606D1AE7609FE61A46A7E6F0
:101840008B6863B11978082901F1FF3209D806299C
:101850003FF6B4AE012A02D8DB68002BF2D1012199
:10186000ADE6353918BF0121A9E62E2172E62F21F8
:1018700070E6E3680233E36000252BE6FFF770FDB6
:10188000002302464A212046BDE8F047FEF7B8BCD7
:101890002DE9F047C26813784E3B84B004460C2B08
:1018A00008D8DFE803F02807070707130721070711
:1018B0000707760000F07AFFE3681B78492B05469E
:1018C00000F0A980284604B0BDE8F0875378742B57
:1018D00000F0AB800021FEF7A9FEE3681B78492BDE
:1018E0000546EFD12046F0E000F060FF05462846AF
:1018F00004B0BDE8F0870132C26003A9012200F004
:1019000043FE0746002800F08B8000212046FEF7AA
:10191000C1FCE1680E7880462EB3DFF804934FF0E7
:10192000000A442E6AD0A6F13003DBB21C2B40F231
:10193000FD80A6F16103192B00F2FA80204600F029
:1019400035FF0546BAF1000F06D001212B4652465D
:101950002046FEF755FC0546532E08D1E168AA46FD
:101960000E78002EDDD100253D60ABE70546E1682D
:101970000E78452E00F08C80002DF4D0D4E908328A
:101980009342F0DAE269581C42F82350AA462062DA
:10199000E6E70132C2600021FFF7E2FC05460028BD
:1019A0003ED0E368197845293AD15A1CE26059784B
:1019B000732900F0F680642900F091802046FFF73B
:1019C00067FF034650B10278462A07D0482A05D05F
:1019D00001902046FEF708FF019B08B32A78032AEE
:1019E00005D1EA681178292904BF002191602A46AF
:1019F00020460221FEF704FC054663E74B7803F01E
:101A0000DF03542B204652D000F0D0FE0546BAF139
:101A1000000F9AD1ABE718B1D4E9083293424EDBFC
:101A20000025284604B0BDE8F087D0E90531023230
:101A30008B42C26080F2B3800269774802EB0315E3
:101A4000591C1B01616100216960D1540323C5E960
:101A50000203204600F0AAFE2A4603460121204642
:101A6000FEF7CEFBE36AE2680333E3621378492BA7
:101A700005467FF427AF0028D2D0D4E9083293423C
:101A8000CEDAE1695A1C41F82300226220461CE0AC
:101A9000152329FA03F3DB075AD5204600F086FE0A
:101AA000002D3FF463AFAA46012105464EE700F042
:101AB000B9F80546BAF1000F7FF447AF57E7E1697F
:101AC0005A1C41F8230020462262FFF73FFC2A46B9
:101AD000034604212046FEF793FB0546F2E6023357
:101AE000E3602046FEF7E6FC071E99DB2046FFF781
:101AF000CFFE064628B10378462B02D0482B40F093
:101B00008480D4E905239A4265DA216901EB021346
:101B100010014FF0000CC3F804C001324FF0470C25
:101B2000626101F800C0C3E9026757E75546B0E7B4
:101B3000552E32D0532E66D101212046FEF776FD78
:101B40000546BAF1000F7FF400AFE168AA4607E747
:101B5000492E42D0542E4CD0452E09D04D2E7FF424
:101B600002AF002D3FF4FFAE0131E160AA46F7E677
:101B70003D60002D3FF454AFB8F1000F04D0039B3B
:101B8000C8F80830CDF80C80E3681A78452A7FF44D
:101B900047AF0133039DE36094E655467DE700259A
:101BA00057E70233E3602046FEF71EFE00283FF4AD
:101BB00037AFD4E905239A420DDA2169174E01EBBC
:101BC0000213501C120160610020586088540E22DC
:101BD000C3E9026202E7002300E7002D3FF4C3AE31
:101BE0000131E1602046FFF77FFBAA46042105464C
:101BF000ACE62046FEF778FCAA460546BAF1000F8F
:101C00007FF4A3AEB3E65546A4E72046FEF7ECFD0D
:101C100000287FF476AF03E7481F0108381F01084A
:101C2000FF0308102DE9F041C1680B78722B82B0D8
:101C3000044658D0562B56D04B2B54D0442B00F092
:101C40009E80A3F130024A2A00F29080DFE812F071
:101C50002D012D012D012D012D012D012D012D0114
:101C60002D012D018E008E008E008E008E008E00C4
:101C70008E0001028E0044018E008E00600166011C
:101C80008E008E008E008E008E0041022D017401A8
:101C900082018E0090019E01C201E9018E008E003A
:101CA0008E008E002D018E008E008E008E008E0024
:101CB0008E0010011001100110011001100110011F
:101CC0001001100110018E0010011001100110010F
:101CD0008E008E008E0010011001520110011001C3
:101CE000100110011001002201A9204600F04CFC57
:101CF000054600283AD0E3681B78462B20463AD0A8
:101D0000FFF790FF2860002830D003781F3B012B9D
:101D100005D8019A836882602A6801922B60019D30
:101D200025B3D4E90832934220DAE1695A1C2846E7
:101D300041F82350226202B0BDE8F0810123056B17
:101D40000363FFF79DF825630246002343212046E5
:101D5000FEF756FA0546019040B1E3681A782AB1B9
:101D60005A1CE2601B78452B00F0A780002528460E
:101D700002B0BDE8F08100F0E3FC2860C3E74B78D7
:101D800003F0DF024F2AAED0773B012BABD94B1CBF
:101D9000C3604B78002BE9D08B1CC3604B78463B6B
:101DA000302BE3D801A252F823F000BF0321000832
:101DB0006D1D00086D1D00086D1D00086D1D0008DB
:101DC0006D1D00086D1D00086D1D00086D1D0008CB
:101DD0006D1D00086D1D00086D1D00086D1D0008BB
:101DE0006D1D00083D1D00086D1D00086D1D0008DB
:101DF0006D1D00086D1D00086D1D00086D1D00089B
:101E00006D1D00086D1D00086D1D00086D1D00088A
:101E10006D1D00086D1D00089F2100086D1D000844
:101E2000792100084322000819220008EF21000848
:101E30006D1D0008C52100081F2300086D1D000846
:101E40006D1D00086D1D00086D1D0008F7220008BB
:101E50006D1D0008E12200086D1D00086D1D0008C1
:101E6000B72200083D1D00088D22000853220008FB
:101E7000D4E90525BF48613B03EB8303AA4200EB8D
:101E8000830380F2AB82206900EB02151601002764
:101E90006F6001322727626187555868E26AAB603C
:101EA00001310244E160E26261E72046FFF7F0FCA5
:101EB00005460190002D3FF459AFD4E90832934212
:101EC000BFF654AFE16941F82350019D5A1C2846E2
:101ED000226202B0BDE8F0810131E1602046FFF7E7
:101EE000A1FE0023024625212046FEF789F905467A
:101EF0000190DFE70131E1602046FEF715FB00238A
:101F0000024628212046FEF77BF905460190D1E7DD
:101F1000204600F015FC05460190CBE70131E16059
:101F20002046FFF77FFE0023024626212046FEF7CB
:101F300067F905460190BDE70131E1602046FFF7F2
:101F400071FE0023024624212046FEF759F905467A
:101F50000190AFE70131E1602046FFF763FE002307
:101F6000024622212046FEF74BF905460190A1E7E3
:101F70000131E1602046FFF755FE00230246232190
:101F80002046FEF73DF90546019093E74B78A3F113
:101F90003002092A05D95F2B03D0413B192B00F2EF
:101FA000E28100212046FEF741FBE36801901A78A8
:101FB000492A05467FF4DBAE0133E3602046FFF794
:101FC00093F92A46034604212046FEF719F90546EF
:101FD00001906FE72046FEF787FAE66801903378B4
:101FE000492B05467FF466AF636B002B40F0C88138
:101FF00000283FF4BBAED4E908218A42BFF6B6AE52
:10200000E16941F82200013222623278493A012A1C
:1020100005D80136E6602046FFF766F903462A46F2
:10202000D1E70131E1602046FEF77EFAE3680190D6
:102030001A78492A054600F07B812046FFF7F2FD19
:10204000019B024621212046FEF7DAF80546019061
:1020500030E74D1CE5604B785F2B00F06781303B2B
:10206000092B00F272812B4619460133E3601A787E
:10207000303A092AF8D9D4E905208242A3EB0507B2
:10208000BFF674AED4F810C000200CEB021602F1BB
:10209000010E874270604FEA0212C4F814E07FF725
:1020A00065AE70600CF80200C6E902574A785F2AF4
:1020B0007FF45CAE1D460135E5602046FFF7B2FDBA
:1020C000324603462A212046FEF79AF8054601903B
:1020D000F0E60131E1602046FFF7A4FD0546002847
:1020E0003FF444AE2046FFF79DFD034600283FF431
:1020F0003DAE2A462B212046FEF782F80546019088
:10210000D8E6D0E90532934280F26C81006900EB99
:1021100003121D010026566001332C2663610192D3
:1021200046558B78303BDBB2092B94BF012300234B
:10213000938103D804F10C00FEF760F92046019D5D
:10214000FFF770FD019BA8609B68002B3FF40EAE6B
:1021500004F10C00FEF752F9E268137813B1531C36
:10216000E3601378019DA3F1730253425341EB8165
:10217000FDE500BF6C0A0108D0E905329342BFF6C5
:10218000F5AD0269994E02EB0315591C1B01416123
:1021900000210E206960D154C5E90260E7E5D0E96D
:1021A00005329342BFF6E2AD0269914E02EB031590
:1021B000591C1B014161002104206960D154C5E90B
:1021C0000260D4E5D0E90532934280F207810269CA
:1021D000884902EB031500206860581C1B016061F0
:1021E0002720D054E36AA9600433E362BFE5D0E955
:1021F0000532934280F2F28002697F4902EB0315B7
:1022000000206860581C1B0160612720D054E36ADD
:10221000A9600933E362AAE5D0E90532934280F26E
:10222000DD800269754902EB031500206860581CC7
:102230001B0160612720D054E36AA9600A33E3627E
:1022400095E5D0E90532934280F2C88002696C4975
:10225000D4E78B785F2B00F0B780FEF713F90546C3
:10226000002D3FF483ADE3681A785F2A7FF47EADDA
:102270000133E3602046FFF7D5FC2A4603462D21B3
:102280002046FDF7BDFF0546019013E6D0E9053273
:10229000934280F2A38002695A4902EB03150020A1
:1022A0006860581C1B0160612720D054E36AA96054
:1022B0000733E3625BE5D0E90532934280F28E801A
:1022C0000269514902EB031500206860581C1B018C
:1022D00060612720D054E36AA9600833E36246E5D1
:1022E000FFF7A0FC002302464B212046FDF788FFA4
:1022F00005460190DEE5D0E9053293426EDA0269C7
:10230000424902EB031500206860581C1B01606104
:102310002720D054E36AA9601133E36227E5D0E9AE
:10232000053293425ADA02693949CBE70026C2E600
:102330000133E3602046FEF7D7FF2A460346042117
:102340002046FDF75DFF019077E60123256B2363AF
:102350002046FEF795FD2563064600283FF406ADAE
:10236000E3681A78A3E62046FFF792FA0546019043
:1023700000283FF4FBAC0378182B7FF49EADF6E405
:10238000731CE3602046D4F81480276AE56AFEF7E0
:10239000ABFFE3681A78492A034606D0E562E66097
:1023A000019DC4F81480276284E5019A002A3FF455
:1023B000DDACD4E908108142BFF6D8ACE569481C11
:1023C00045F821202062FEE503310123056BC16041
:1023D0000363FEF755FD2563054641E7002301939E
:1023E0009B68FFDE00231B70FFDE00BF541F010847
:1023F0004C1F0108B00C0108740C01089C0C01086A
:10240000880C0108C40C0108D80C0108000D010853
:10241000EC0C0108F8B5C3681F7806465FBB4FF0A7
:10242000000E394D432100228B1A03EBD37302EBCC
:102430006303180105EB031C2C582078B84206D022
:1024400094BF5A1C19468A42EED10020F8BD60782C
:102450007045F5D1D6E905329342F6DA326902EBDE
:102460000310190100244460013332247361545471
:10247000C0F808C0F8BD5A1CC26093F801E01F788C
:10248000BEF1000F02D1762FCBD0C8E79A1CC260F4
:10249000762F93F801E01BD1AEF13004E3B2092BA3
:1024A000BFD8FEF741F8D6E905318B420246CCDAB7
:1024B000316901EB03105F1C002545601B0177614A
:1024C000002AC2D033264560CE54C0E90242F8BD8E
:1024D000632FA6D1BEF1760FA3D1D0E90C34B3FAA5
:1024E00083F35B094363FFF79DFB736B024633B1D4
:1024F000002335213046FDF783FE7463F8BD342197
:102500003046FDF77DFEF8E7140D010830B5C268CE
:1025100083B000230193137823B3044601AD11E087
:102520004F2B16D0FFF77EFB024600232E212046BC
:10253000C2B1FDF765FE2860A0B1E268137800F132
:102540000C054BB1452B204606D02E2B04D0522B28
:10255000E6D15378452BE5D1019818B1C36823B172
:1025600003B030BD002003B030BD82681178272948
:10257000F6D19268117C0929F2D15168E26A521AA7
:10258000E2628360ECE700BF2DE9F04F1746C268B6
:10259000002F137883B004460D4615BF4FF01E0A76
:1025A0004FF01B0A4FF01D094FF01A0914BF4FF0EE
:1025B0001C084FF019080E464FF0010B722B14D077
:1025C000562B12D04B2B10D0442B06D00FB9462BD4
:1025D00056D0304603B0BDE8F08F517801F0DF00EF
:1025E0004F2802D077390129F0D8511C722BE160B5
:1025F00013D0562B27D04B2B1FD05378002B3AD01B
:10260000931CE360517878294FD06F2921D1E36A78
:102610000933E3624F21002304E0E36A0933E362F4
:102620004146002300222046FDF7EAFD306010B34A
:10263000E26800F108061378C0E7E36A0633E36254
:1026400051460023EEE7E36A0933E362494600237B
:10265000E8E74F293CD1D4E90B320933E362C4F8EF
:1026600030B0204601910092FEF70AFC009A0199D1
:102670002263034628BB0026304603B0BDE8F08F36
:10268000AE42A6D01D241E201C2105E0192A15D01B
:1026900003F10805AE429CD02B681A781A2A0AD09A
:1026A0001B2AF3D118702B68F2E7E36A1133E36257
:1026B0004D210023B6E71C702B68E9E719702B68E1
:1026C000E6E7E26810784528D5D10132E260A9E753
:1026D0007729D0D1E36A0633E3622046FFF716FF7D
:1026E00003460028C7D0E26811784529C3D10132DA
:1026F000E260502196E700BF70B5C3681A784A2A95
:1027000005461AD081B12846FFF78CFA044690B1ED
:102710002846FFF7FBFE034668B1224628462921DA
:10272000BDE87040FDF76CBD28460C46FFF7EEFE95
:1027300003460028F1D1002070BD0133C360E2E7F9
:1027400010B50446806810F480200BD1A26BB2F55E
:10275000006F06D8511CE368A1631978462907D099
:10276000A26310BDE3681A78462A01D0002010BD8C
:102770005A1CE2605A78592A04BF0233E3600121EF
:102780002046FFF7B9FF01462046FDF783FDE368C9
:102790001A78452A04BF0133E360A36818BF0020FC
:1027A0005B03DED4A26B013ADAE700BFF8B5C2687A
:1027B0001378A3F13001092904464FD9A3F161012F
:1027C000192914D86F2B04D153786E2B04BF023211
:1027D000C2602046FFF71EFE054610B10378322B7B
:1027E00049D0E368197842293FD02846F8BDA3F1C3
:1027F000430101296CD94C2B5AD0552B63D1537806
:102800006C2B00F0D080742B5DD1531CC3605178C9
:1028100074295BD10232C260FDF74CFE0028C0F281
:10282000EF80D4E90532934280F2EA8022691E01EA
:1028300002EB031500210133482769606361975556
:10284000D4E908329342A86080F2DA80E169E26854
:1028500041F82350013323621178C4E7FDF764FE89
:10286000E368197842290546BFD129462046BDE8CC
:10287000F840FDF7BFBE8268E36A916812680733CB
:102880000B44E36213786C2BABD15378692BA8D13E
:102890009378002BA5D12046FDF746FE2A46034635
:1028A00037212046FDF7ACFCE368054619789AE726
:1028B0000132C260FDF738FE054620B12046FDF723
:1028C00093FF00288DD100252846F8BD00258AE712
:1028D000806A18B1017851B3182928D0432B30D120
:1028E0005378492B00F09080A3F131010429EAD8F4
:1028F000303B0232DEB2E260D4E905318B4280F235
:102900009780216901EB031503F1010C00276F602B
:102910001B01C4F814C0002800F090804FF0070C91
:102920006F6001F803C02E72E86011785BE7C16840
:10293000E36A0B44E362117843290B46D0D0442963
:10294000C4D15178303905292AD8DFE801F0031DB8
:10295000262923204FF0010CD4E90531951C8B4228
:10296000E56062DA216901EB03155F1C00266E60E9
:102970001B01676100285ED008276E60CF5485F880
:1029800008C0E86091782EE74FF0020CE4E74FF0C2
:10299000050CE1E74FF0040CDEE74FF0030CDBE73A
:1029A000194600251FE7531CC36051786C298DD14F
:1029B0000232C260FFF7AAFDE368064608B3197841
:1029C000452983D10133E3602046FDF773FD0028DC
:1029D00016DBD4E90532934212DA22691F0102EBB9
:1029E0000315002101334FF0460C6960636102F862
:1029F00007C0D4E908329342C5E90260FFF626AF6A
:102A0000E36819780025EEE6531CE3609378A3F1A0
:102A10003101042915D80332E260303B2046DEB292
:102A2000FFF700F9A06AE26866E791780025DAE628
:102A300011780025D7E691780546D4E61178054649
:102A4000D1E651780025CEE6F8B5C26813784C2B54
:102A500032D1531CC36051785F29054634D05A29BE
:102A60000CD10133EB6000212846FEF779FCEB68BE
:102A70001A78452A20D10133EB60F8BDFFF7D2F870
:102A80000246C8B10378272B06D18368197C19B197
:102A90005968EB6A5B1AEB62E86804786E2C0DD01B
:102AA0003D21452C38D0034603E0EB601C78452CD3
:102AB00012D00133002CF8D10020F8BD431CEB608C
:102AC00044783E211846ECE7931CC36092785A2A5A
:102AD00018BF0020CDD1C4E71C1AD5E905639E427A
:102AE00018DAD5F810C000270CEB061306F1010E1A
:102AF000BC425F604FEA0616C5F814E00ADD5F606D
:102B00000CF80670C3E902042846FDF779FBEB6870
:102B10001A78AEE70023F7E70024DEE72DE9F04F4F
:102B2000044697B0002A74D05368012B154670DC18
:102B3000D0F81C21B2F5806F6BDC0E46591C696021
:102B4000D0F81871D0F82C01029502F1010C02A9FD
:102B5000C4F81CC10390C4F82C11002F40F0D88099
:102B600095F800C0BCF1500F01F21980DFE81CF0AD
:102B7000E907200120018D0374081904C007B30779
:102B80008E07680742071C07F606D00690066A06FD
:102B900044061E06F805D205AC05860560053A0513
:102BA0000F05FB00FB00FB00D800D800D800D800C0
:102BB000D800D800D80008020802D800D8004A027D
:102BC0003E0222027902DE01DD02DE019A019A0153
:102BD00078093309B209DA0817080D090009390321
:102BE0002E03730A630AFB01FB01570157013D0ADB
:102BF0002B0A0A0ADB09EC0AC60AA00A7A0A170895
:102C0000EA04C4049E0443044908D8001E08D800FE
:102C1000D8000123C4F8183117B0BDE8F08FAA68B6
:102C200093681B685978632902F0558405F10C03F9
:102C30003146204603F048FE0746002842F0438410
:102C4000AB681A78322A02F0E0849B68C949186898
:102C500005F0AAFFEB6820B99A681178032902F001
:102C60001D869A683146204603F0DEFDAF68C249F2
:102C7000BB68D3F80080404605F096FF81460028E7
:102C800042F0B484D4F80031FF2B0ED184F8FF0059
:102C900019462046D4E942329847D4F82831C4F87E
:102CA00000915A1CC4F828214B46591C5B22C4F8D9
:102CB0000011E25484F80421EB683146DA682046BA
:102CC000FFF72CFFD4F80031FF2B0FD10026194657
:102CD00084F8FF60D4E9423220469847D4F828317E
:102CE000C4F800615A1CC4F8282133465D22591CDF
:102CF000C4F80011E25484F80421AB681A78322A2F
:102D000002F032856B68D4F81C210398013B013A2C
:102D1000C4F82C016B60C4F81C2117B0BDE8F08F1B
:102D20000022D4E94431CDE9061506A9C4F81411EE
:102D30000021CDE90813A946002A36D031462046A5
:102D4000FFF7ECFE089B002B01F06A85069BC4F898
:102D500014310FB1C4F810816B68D4F81C210398AA
:102D6000013B013AD4E7D4F814E17346BEF1000FF9
:102D70000ED0996849B95A681278A2F11900022850
:102D800002F2ED81944502F0DD811B68002BF0D149
:102D9000A94606ABC4F81431D4F81031CDF818E0C8
:102DA0000022CDE90823CDF81C90D9F80820C5E70A
:102DB000AA6831462046FFF7B1FE16F0040A02F079
:102DC000DC80D4F80031FF2B0FD10027194684F89E
:102DD000FF70D4E9423220469847D4F82831C4F82D
:102DE00000715A1CC4F828213B462E22591CC4F8F5
:102DF0000011E25484F80421D5F80C8098F80030D2
:102E0000472B02F0F881424620463146FFF786FE06
:102E10006B68D4F81C210398013B013A78E7AA6853
:102E20001378272B01F070870027D4F80011FF29B1
:102E30000ED14FF00008D4E9423284F8FF802046DA
:102E40009847D4F82831AA6801334146C4F828319C
:102E50002823481CC4F800016354204684F8043138
:102E60003146FFF75BFED4F80031FF2B01F0768787
:102E7000591C2922C4F80011E25484F804212B784B
:102E80003E2B02F03382082F02F0BF80EA68204612
:102E90003146FFF743FE6B68D4F81C210398013BD1
:102EA000013A35E7AA681AB131462046FFF736FEE7
:102EB000EB68002B02F02E81D4F80031FD2B0ED9E7
:102EC0000027E75419462046D4E942329847D4F8FF
:102ED0002831C4F800715A1CC4F828213B46DFF899
:102EE0009C904FF02C0809F1010B4FF0000A194695
:102EF0000CE00B460131CB45C4F8001104F8038007
:102F000084F8048101F0AD8419F8018FFF29F0D114
:102F1000D4E9423284F8FFA020469847D4F82831FB
:102F20000133C4F8283101210023E4E7D4E9443116
:102F300006AA0020CDE90615C4F814210890EA6815
:102F4000099331462046FFF7E9FD089B002B01F06D
:102F5000FE866B68D4F81C2106990398C4F81411F6
:102F6000013B013AD4E60123C4F818316B68013BF8
:102F7000CEE600BF44210108482101081C210108B8
:102F8000D4F82031D5F808902BB999F80070052FA6
:102F900002F0C5811F4699F80030232B01F0988478
:102FA0002A789A4201F09484242B02F01B83D4F8EF
:102FB00014E1EDE6B30601F13286AA68002A02F0B8
:102FC000DF8016F0400026F0600602F0E280D4F8C0
:102FD000143105F10C022046314603F0DFF86B682E
:102FE000D4F81C210398013B013A91E6AA682046D7
:102FF0003146FFF793FD6B68D4F81C210398013B21
:10300000013A85E616F0040641F06684AF68D7E918
:10301000007100293FF47CAE07EB010909F1FF398B
:10302000D4F80011013FB04609E00B460131B94523
:10303000C4F80011E65484F8046101F0D085FF293A
:1030400017F8016FF1D1D4E9423284F8FF802046AD
:103050009847D4F828310133C4F8283101210023DE
:10306000E5E7D4E9443E0DF1180971460022CDF898
:1030700000E0CDF818E0CDE908230795C4F81491D5
:10308000CE46002902F097844FF00108B446009F15
:10309000C3464E4617E0BB689BB9B8F1030F02F276
:1030A000738097E80F00AAF1400E8EE80F004AF8EF
:1030B000406C09EB0816C4F8146108F10108C7F860
:1030C00008B03F683FB17B681B78193B022B16ABF9
:1030D00003EB081ADFD9EA68614620466646FFF727
:1030E0001DFD089B009AC4F81421BBB9B8F1010F6B
:1030F0000CD009EB08180AAF58F80C2C3146A8F18F
:103100001008204602F044FD4745F5D1D4F81431AB
:10311000314605F10802204603F070FA6B68D4F8D6
:103120001C210398013B013AF2E5B5F90E30002B62
:1031300041F04687AA68D94B9168994201F04B85C6
:1031400031462046FFF7EAFCD4F80031FF2B0FD1BF
:103150000026194684F8FF60D4E942322046984799
:10316000D4F82831C4F800615A1CC4F82821334629
:103170002022591CC4F80011E25484F80421B5F946
:103180000C30002B41F0C884C54F984607F1050963
:103190005F260BE00B460131B945C4F80011E65437
:1031A00084F8046101F0B08417F8016FFF29F1D1B0
:1031B000D4E9423284F8FF8020469847D4F8283179
:1031C0000133C4F8283101210023E5E7EB681B78BF
:1031D000392B3FF424AD0123C4F818316B68013B4F
:1031E00096E5D5E9028798F80030322B01F0148675
:1031F000342B42F0F183D4F80031FF2B10D14FF083
:103200000009194684F8FF90D4E9423220469847D5
:10321000D4F82831C4F800915A1CC4F828214B4630
:10322000591C2822C4F80011E25484F80421D8F86B
:10323000082031462046FFF771FCD4F80031FF2BFF
:1032400010D14FF00008194684F8FF80D4E94232CB
:1032500020469847D4F82831C4F800815A1CC4F895
:10326000282143462922591CC4F80011E25484F84D
:1032700004213A462046314603F0D6FA6B68D4F86A
:103280001C210398013B013A42E5D4F81431D5F8EA
:10329000088000930023C4F81431B8F1000F02F045
:1032A000C3800DF11809D4F810E11F4618464A46AC
:1032B000C2E90038C2E9020E98F800104D29A1F1C8
:1032C0001C0AA1F14F0C07F10107134601F0DE8241
:1032D00000F26087BAF1040F41F2D8820229C4F8E3
:1032E000142116D1D8F80C8098F80030472B02F042
:1032F0005A8309EB071C98F800304D2BA3F11C01F1
:10330000A3F14F0201F0EC8601F2E786042941F2B5
:10331000E78698F80030042B04D1CDE904E804AB2B
:10332000C4F81031EA6831462046FFF7F7FB98F8F9
:103330000030042B02D1049BC4F8103109EB0717AD
:103340004FF02008AA4657F8085CE5B9D4F80011F8
:10335000FF290BD1D4E9423284F8FF502046984728
:10336000D4F8283101332946C4F828314B1CC4F85D
:10337000003157F80C2C04F801802046314684F8BF
:10338000048102F005FC103FB945DCD1009BC4F874
:10339000143155466B68D4F81C210398013B013A5F
:1033A000B6E4D4F82031002B01F08E833D4FD4F8E1
:1033B000001107F1040961264FF000080BE00B46ED
:1033C0000131B945C4F80011E65484F8046101F0F4
:1033D000CD8317F8016FFF29F1D1D4E9423284F887
:1033E000FF8020469847D4F828310133C4F82831AB
:1033F00001210023E5E7A9682046FDF73DFA4FF0DB
:10340000000A002802F08A8103782F2B41F04E82B7
:103410008368002B01F04A82C0680AF1010A002883
:10342000F2D1AB681A460AF1FF3300939046A146E9
:10343000019503E00137BA4541F30982C9F82471C7
:10344000424631464846FFF769FB009B9F42F1DA4E
:10345000154CD9F8001104F1010B2C250BE00B469B
:103460000131A345C9F8001109F8035089F8045146
:10347000E0D014F8015FFF29F1D14FF0000389F883
:10348000FF304846D9E942329847D9F8283101330C
:10349000C9F8283101210023E3E700BF0C0B010824
:1034A0000C210108941F01081C210108DFF8F88392
:1034B000D4F8001108F1190A6E274FF000090BE04B
:1034C0000B460131C245C4F80011E75484F8047179
:1034D00001F0148118F8017FFF29F1D1D4E94232BB
:1034E00084F8FF9020469847D4F828310133C4F877
:1034F000283101210023E5E7DFF8B083D4F800117B
:1035000008F1150A74274FF000090BE00B46013152
:10351000C245C4F80011E75484F8047101F0E18059
:1035200018F8017FFF29F1D1D4E9423284F8FF90E5
:1035300020469847D4F828310133C4F828310121B6
:103540000023E5E7D74FD4F8001107F10D097B26DA
:103550004FF000080BE00B460131B945C4F80011EB
:10356000E65484F8046100F08B8717F8016FFF2997
:10357000F1D1D4E9423284F8FF8020469847D4F84C
:1035800028310133C4F8283101210023E5E7D5E9CA
:10359000026100293FF4BCAB06EB010909F1FF39D8
:1035A000D4F80011013E4FF0000809E00B4601314C
:1035B000B145C4F80011E75484F8047101F0378173
:1035C000FF2916F8017FF1D1D4E9423284F8FF8057
:1035D00020469847D4F828310133C4F82831012116
:1035E0000023E5E7DFF8C882D4F8001108F1100ADB
:1035F00068274FF000090BE00B460131C245C4F8C3
:103600000011E75484F8047100F0878718F8017FEF
:10361000FF29F1D1D4E9423284F8FF90204698473F
:10362000D4F828310133C4F8283101210023E5E71B
:10363000DFF88082D4F8001108F1140A72274FF0E5
:1036400000090BE00B460131C245C4F80011E754F4
:1036500084F8047100F0C98718F8017FFF29F1D1BF
:10366000D4E9423284F8FF9020469847D4F82831B4
:103670000133C4F8283101210023E5E7DFF838825F
:10368000D4F8001108F1180A54274FF000090BE094
:103690000B460131C245C4F80011E75484F80471A7
:1036A00000F0968718F8017FFF29F1D1D4E9423262
:1036B00084F8FF9020469847D4F828310133C4F8A5
:1036C000283101210023E5E7DFF8F081D4F800116B
:1036D00008F1150A54274FF000090BE00B460131A1
:1036E000C245C4F80011E75484F8047100F0638700
:1036F00018F8017FFF29F1D1D4E9423284F8FF9014
:1037000020469847D4F828310133C4F828310121E4
:103710000023E5E7DFF8A881D4F8001108F1120AC8
:1037200067274FF000090BE00B460131C245C4F892
:103730000011E75484F8047100F0308718F8017F15
:10374000FF29F1D1D4E9423284F8FF90204698470E
:10375000D4F828310133C4F8283101210023E5E7EA
:10376000DFF86081D4F8001108F10E0A6A274FF0E3
:1037700000090BE00B460131C245C4F80011E754C3
:1037800084F8047100F0FD8618F8017FFF29F1D15B
:10379000D4E9423284F8FF9020469847D4F8283183
:1037A0000133C4F8283101210023E5E7DFF818814F
:1037B000D4F8001108F1190A63274FF000090BE053
:1037C0000B460131C245C4F80011E75484F8047176
:1037D00000F0CA8618F8017FFF29F1D1D4E94232FE
:1037E00084F8FF9020469847D4F828310133C4F874
:1037F000283101210023E5E7DFF8D080D4F800115B
:1038000008F1100A76274FF000090BE00B46013152
:10381000C245C4F80011E75484F8047100F097869B
:1038200018F8017FFF29F1D1D4E9423284F8FF90E2
:1038300020469847D4F828310133C4F828310121B3
:103840000023E5E7DFF88880D4F8001108F1140AB6
:103850006E274FF000090BE00B460131C245C4F85A
:103860000011E75484F8047100F0648618F8017FB1
:10387000FF29F1D1D4E9423284F8FF9020469847DD
:10388000D4F828310133C4F8283101210023E5E7B9
:10389000DFF84080D4F8001108F10F0A74274FF0C8
:1038A000000925E0F8210108E8200108EC200108C2
:1038B000D4200108BC200108A020010888200108AC
:1038C0007420010864200108482001083420010800
:1038D000302001081C2001080B460131C245C4F804
:1038E0000011E75484F8047100F0808718F8017F14
:1038F000FF29F1D1D4E9423284F8FF90204698475D
:10390000D4F828310133C4F8283101210023E5E738
:10391000DFF86485D4F8001108F1110A74274FF01C
:1039200000090BE00B460131C245C4F80011E75411
:1039300084F8047100F04D8718F8017FFF29F1D158
:10394000D4E9423284F8FF9020469847D4F82831D1
:103950000133C4F8283101210023E5E7DFF81C8595
:10396000D4F8001108F10C0A74274FF000090BE09D
:103970000B460131C245C4F80011E75484F80471C4
:1039800000F00D8718F8017FFF29F1D1D4E9423208
:1039900084F8FF9020469847D4F828310133C4F8C2
:1039A000283101210023E5E7DFF8D484D4F80011A1
:1039B00008F1170A63274FF000090BE00B460131AD
:1039C000C245C4F80011E75484F8047100F0BD86C4
:1039D00018F8017FFF29F1D1D4E9423284F8FF9031
:1039E00020469847D4F828310133C4F82831012102
:1039F0000023E5E7DFF88C84D4F8001108F1070A0A
:103A000056274FF000090BE00B460131C245C4F8C0
:103A10000011E75484F8047100F08A8618F8017FD9
:103A2000FF29F1D1D4E9423284F8FF90204698472B
:103A3000D4F828310133C4F8283101210023E5E707
:103A4000DFF84484D4F8001108F10A0A76274FF011
:103A500000090BE00B460131C245C4F80011E754E0
:103A600084F8047100F0578618F8017FFF29F1D11E
:103A7000D4E9423284F8FF9020469847D4F82831A0
:103A80000133C4F8283101210023E5E7D4F80011FF
:103A9000FF290CD10027D4E9423284F8FF70204678
:103AA0009847D4F8283101333946C4F828317E23A9
:103AB0004A1CC4F80021635484F80431EA682046A3
:103AC0003146FFF72BF86B68D4F81C210398013BB3
:103AD000013AFFF71DB9EA6820463146FFF71EF8A4
:103AE0006B68D4F81C210398013B013AFFF710B929
:103AF000D5F80880B8F1000F40F06B87DD4FD4F89F
:103B0000001107F1030974260BE00B460131B9459A
:103B1000C4F80011E65484F8046100F0CD8717F86A
:103B2000016FFF29F1D1D4E9423284F8FF802046A9
:103B30009847D4F828310133C4F8283101210023F3
:103B4000E5E716F0040640F0F386D5E90271002996
:103B50003FF4DEA807EB010909F1FF39D4F80011A1
:103B6000013FB04609E00B460131B945C4F80011E8
:103B7000E65484F8046101F04A80FF2917F8016FC8
:103B8000F1D1D4E9423284F8FF8020469847D4F836
:103B900028310133C4F8283101210023E5E701234E
:103BA000C4F818316B68013BFFF7B2B8DFF8DC826C
:103BB000AA6831462046FEF7B1FF08F1070AD4F89B
:103BC000001120274FF000090BE00B460131C245E0
:103BD000C4F80011E75484F8047100F0318518F836
:103BE000017FFF29F1D1D4E9423284F8FF902046C9
:103BF0009847D4F828310133C4F828310121002333
:103C0000E5E7DFF88C82AA6831462046FEF786FF9A
:103C100008F1040AD4F800115B274FF000090BE00B
:103C20000B460131C245C4F80011E75484F8047111
:103C300000F0328518F8017FFF29F1D1D4E9423232
:103C400084F8FF9020469847D4F828310133C4F80F
:103C5000283101210023E5E700237207D4F81481FD
:103C6000D4F84871D5F80890C4F81431C4F8485114
:103C700007D599F8003023B9D9F80C20062A01F0AD
:103C80005F854A4631462046FEF748FF94F80431E6
:103C90003C2B01F0A380D4F80011FF290DD14FF087
:103CA0000009D4E9423284F8FF9020469847D4F8BE
:103CB000283101334946C4F828313C234A1CC4F852
:103CC0000021635484F80431EA6831462046FEF747
:103CD00025FF94F804313E2B01F06380D4F80011E5
:103CE000FF290CD10026D4E9423284F8FF60204637
:103CF0009847D4F8283101333146C4F828313E239F
:103D00004A1CC4F80021635484F804316B68D4F869
:103D10001C210398C4F81481C4F84871013B013A8E
:103D2000FEF7F6BFDFF86C81D4F8001108F1080A3D
:103D30006F274FF000090BE00B460131C245C4F874
:103D40000011E75484F8047100F02C8218F8017F08
:103D5000FF29F1D1D4E9423284F8FF9020469847F8
:103D6000D4F828310133C4F8283101210023E5E7D4
:103D7000AA682046314602F01BFD6B68D4F81C216E
:103D80000398013B013AFEF7C3BFDFF80881D4F87E
:103D9000001108F1080A6F274FF000090BE00B46ED
:103DA0000131C245C4F80011E75484F8047100F0F1
:103DB0007A8218F8017FFF29F1D1D4E9423284F8E0
:103DC000FF9020469847D4F828310133C4F82831B1
:103DD00001210023E5E7D5E902281AB13146204642
:103DE000FEF79CFED4F80031FF2B0DD100271946B9
:103DF00084F8FF70D4E9423220469847D4F828313D
:103E00005A1CC4F828213B46581C7B27C4F80001E3
:103E10003146E7544246204684F80471FEF77EFEA0
:103E2000D4F80011FF290CD10026D4E9423284F8DD
:103E3000FF6020469847D4F8283101333146C4F852
:103E400028317D234A1CC4F80021635484F80431CE
:103E50006B68D4F81C210398013B013AFEF758BF68
:103E6000DFF83480D4F8001108F11D0A74274FF0F0
:103E700000091FE09821010808200108F81F010827
:103E8000D41F0108C81F0108BC1F0108082201082F
:103E9000641F01082C2101089C1F01080B460131F9
:103EA000C245C4F80011E75484F8047100F01C8284
:103EB00018F8017FFF29F1D1D4E9423284F8FF904C
:103EC00020469847D4F828310133C4F8283101211D
:103ED0000023E5E7D5F80890D34FD9F80880D4F847
:103EE000001107F1070B6F264FF0000A0BE00B469D
:103EF0000131BB45C4F80011E65484F8046100F0B8
:103F00005E8117F8016FFF29F1D1D4E9423284F8BC
:103F1000FFA020469847D4F828310133C4F828314F
:103F200001210023E5E7AA68C04906A808F04CFD76
:103F300006A804F0A5FF002800F0A08106AED4F882
:103F4000001106EB00094FF0000809E00B460131B3
:103F5000B145C4F80011E75484F8047100F08E8173
:103F6000FF2916F8017BF1D1D4E9423284F8FF80B1
:103F700020469847D4F828310133C4F8283101216C
:103F80000023E5E7D4F800112E7AFF2913D14FF072
:103F90000008D4E94232204684F8FF809847D4F8DC
:103FA00028116B68D4F81C2103984F1CC4F82871A1
:103FB0004146013B013A4F1CC4F80071665484F835
:103FC0000461FEF7A5BEAA6831462046FEF7A6FDAD
:103FD000EA6820463146FEF7A1FD6B68D4F81C2143
:103FE0000398013B013AFEF793BEDFF84482D4F810
:103FF000001108F10D0A6A274FF000090BE00B468B
:104000000131C245C4F80011E75484F8047100F08E
:104010003D8118F8017FFF29F1D1D4E9423284F8BB
:10402000FF9020469847D4F828310133C4F828314E
:1040300001210023E5E7EB6819783B2904D1DB680F
:104040001B783C2B01F0B2810123C4F818316B6856
:10405000013BFEF75DBE0123C4F818316B68013BDC
:10406000FEF756BEDFF8CC81D4F8001108F1070A3C
:104070007B274FF000090BE00B460131C245C4F825
:104080000011E75484F8047100F0558118F8017F9D
:10409000FF29F1D1D4E9423284F8FF9020469847B5
:1040A000D4F828310133C4F8283101210023E5E791
:1040B000DFF88481D4F8001108F11B0A67274FF05C
:1040C00000090BE00B460131C245C4F80011E7546A
:1040D00084F8047100F0228118F8017FFF29F1D1E2
:1040E000D4E9423284F8FF9020469847D4F828312A
:1040F0000133C4F8283101210023E5E7DFF83C81D2
:10410000D4F8001108F11C0A67274FF000090BE0F2
:104110000B460131C245C4F80011E75484F804711C
:1041200000F0EF8018F8017FFF29F1D1D4E9423285
:1041300084F8FF9020469847D4F828310133C4F81A
:10414000283101210023E5E7DFF8F480D4F80011DD
:1041500008F1090A64274FF000090BE00B46013112
:10416000C245C4F80011E75484F8047100F063817B
:1041700018F8017FFF29F1D1D4E9423284F8FF9089
:1041800020469847D4F828310133C4F8283101215A
:104190000023E5E7BCF1010F40F27883C4F8142155
:1041A000FFF7B7B8EA6820463146FEF7B7FC6B6800
:1041B000D4F81C210398013B013AFEF7A9BDD9F8B8
:1041C00004603378613B192B1AD8FF290DD10026E2
:1041D000D4E9423284F8FF6020469847D4F8283169
:1041E000C4F800610133C4F82831D4F80021202339
:1041F000511CC4F80011A35484F80431D9F80460A8
:104200004346F21812F8012C202A08BF08F1FF33A8
:10421000002B01F0D682013ED4F8001106EB030911
:104220004FF0000818E000BF20210108801F01089E
:1042300078210108E8210108C8210108A821010806
:10424000882101080B460131B145C4F80011E7543B
:1042500084F8047100F0F382FF2916F8017FF1D190
:10426000D4E9423284F8FF8020469847D4F82831B8
:104270000133C4F8283101210023E5E76B68D4F845
:104280001C210398013B013AFEF742BDAA68204673
:104290003146FEF743FC6B68D4F81C210398013BC0
:1042A000013AFEF735BDD4F8483133B1D4F81021C6
:1042B000079306AB0692C4F81031AA681378042B52
:1042C00000F0C78431462046FEF728FCD4F8483178
:1042D00013B1069BC4F810316B68D4F81C21039805
:1042E000013B013AFEF714BDAA6820463146FEF7AD
:1042F00015FC6B68D4F81C210398013B013AFEF7CA
:1043000007BDAA6820463146FEF708FC6B68D4F862
:104310001C210398013B013AFEF7FABCAA6820462B
:104320003146FEF7FBFB6B68D4F81C210398013B78
:10433000013AFEF7EDBCD4F82031AA68D34F01331F
:104340003146C4F820312046FEF7E8FBD4F820318E
:10435000D4F80011013BC4F8203107F101092926E6
:104360004FF000080AE00B460131B945C4F80011CE
:10437000E65484F8046111D017F8016FFF29F2D1D7
:10438000D4E9423284F8FF8020469847D4F8283197
:104390000133C4F8283101210023E6E7EA68BC496B
:1043A000013206A808F010FB06A804F069FD10B35E
:1043B00006AED4F8001106EB00094FF0000808E043
:1043C0000B460131B145C4F80011E75484F804717B
:1043D00013D0FF2916F8017BF2D1D4E9423284F8D8
:1043E000FF8020469847D4F828310133C4F828319B
:1043F00001210023E6E7D4F80011FF290CD10026A3
:10440000D4E9423284F8FF6020469847D4F8283136
:1044100001333146C4F828317D234A1CC4F80021F9
:10442000635484F804316B68D4F81C210398013B71
:10443000013AFEF76DBC3146AA682046FEF76EFBD6
:10444000D4F80011FF290CD10026D4E9423284F8B7
:10445000FF6020469847D4F8283101333146C4F82C
:10446000283129234A1CC4F80021635484F80431FC
:104470006B68D4F81C210398013B013AFEF748BC55
:10448000AA688349013206A808F09EFA06A804F03B
:10449000F7FC10B306AED4F8001106EB00094FF09C
:1044A000000808E00B460131B145C4F80011E7549B
:1044B00084F8047113D0FF2916F8017BF2D1D4E9F6
:1044C000423284F8FF8020469847D4F828310133DF
:1044D000C4F8283101210023E6E7D4F80011FF29B0
:1044E0000CD10026D4E9423284F8FF602046984778
:1044F000D4F8283101333146C4F828317D234A1CD1
:10450000C4F80021635484F804316B68D4F81C218A
:104510000398013B013AFEF7FBBBAA6820463146EF
:10452000FEF7FCFA6B68D4F81C210398013B013AB2
:10453000FEF7EEBBAA6820463146FEF7EFFA6B683D
:10454000D4F81C210398013B013AFEF7E1BBAA68AD
:1045500020463146FEF7E2FA6B68D4F81C21039836
:10456000013B013AFEF7D4BBAA6820463146FEF76C
:10457000D5FA6B68D4F81C210398013B013AFEF789
:10458000C7BBAA6820463146FEF7C8FA6B68D4F864
:104590001C210398013B013AFEF7BABBAA682046EA
:1045A0003146FEF7BBFA6B68D4F81C210398013B37
:1045B000013AFEF7ADBBAA6820463146FEF7AEFAD7
:1045C0006B68D4F81C210398013B013AFEF7A0BBAD
:1045D000AA6820463146FEF7A1FA6B68D4F81C2180
:1045E0000398013B013AFEF793BBDFF8A880EA6825
:1045F00031462046FEF792FA08F1040AD4F8001179
:1046000020274FF000090BE00B460131C245C4F8EA
:104610000011E75484F8047100F0F58018F8017F68
:10462000FF29F1D1D4E9423284F8FF90204698471F
:10463000D4F828310133C4F8283101210023E5E7FB
:104640003146EA682046FEF769FAD4F80011FF29DE
:104650000CD10026D4E9423284F8FF602046984706
:10466000D4F8283101333146C4F828315D234A1C7F
:10467000C4F80021635484F804316B68D4F81C2119
:104680000398013B013AFEF743BB00BFF421010848
:10469000801F0108B42001083146EA682046FEF771
:1046A0003DFAD4F80011FF290CD10026D4E942329A
:1046B00084F8FF6020469847D4F82831013331460A
:1046C000C4F828315D234A1CC4F80021635484F8DF
:1046D00004316B68D4F81C210398013B013AFEF7C2
:1046E00017BBAA6820463146FEF718FA6B68D4F863
:1046F0001C210398013B013AFEF70ABBAA68204639
:104700003146FEF70BFA6B68D4F81C210398013B85
:10471000013AFEF7FDBAAA6820463146FEF7FEF9D7
:104720006B68D4F81C210398013B013AFEF7F0BAFC
:10473000AA6820463146FEF7F1F96B68D4F81C21CF
:104740000398013B013AFEF7E3BADFF8B885AA689F
:1047500031462046FEF7E2F908F1030AD4F80011C9
:104760002D274FF000090AE00B460131C245C4F87D
:104770000011E75484F804711ED018F8017FFF2956
:10478000F2D1D4E9423284F8FF9020469847D4F819
:1047900028310133C4F8283101210023E6E7AA6853
:1047A00020463146FEF7BAF96B68D4F81C2103980D
:1047B000013B013AFEF7ACBAEA6820463146FEF703
:1047C000ADF96B68D4F81C210398013B013AFEF760
:1047D0009FBAAA6820463146FEF7A0F96B68D4F864
:1047E0001C210398013B013AFEF792BAAA682046C1
:1047F0003146FEF793F96B68D4F81C210398013B0E
:10480000013AFEF785BAAA6820463146FEF786F9D6
:104810006B68D4F81C210398013B013AFEF778BA83
:104820004A463146204601F0B3F9FEF78FBA6B686D
:10483000D4F81C210398013B013AFEF769BA6B6872
:10484000D4F81C210398013B013AFEF761BA019D9F
:10485000D9F81C216B6803984C46013B013AFEF7DE
:1048600057BAEA680F4620463146D4F82861FEF769
:1048700055F9D4F828319E4200F054846B68D4F87E
:104880001C210398013B013AFEF742BAD8F8088090
:10489000B8F1000F00F0C685042F02F110027EF47B
:1048A00007AD0122C4E94532FEF774BDAB681A4674
:1048B000BAF1000F7EF4B7AD6B68D4F81C210398F1
:1048C000013B013AFEF724BA2B782F2B00D0A946E2
:1048D000D4F814E1FEF75DBAAE68D6E902610029AA
:1048E0003EF416AA06EB010909F1FF39D4F80011CC
:1048F000013E4FF0000809E00B460131B145C4F814
:104900000011E75484F8047100F07981FF2916F84A
:10491000017FF1D1D4E9423284F8FF8020469847E4
:10492000D4F828310133C4F8283101210023E5E708
:10493000D5E9026106EB01084645BEF4E9A94FF04E
:10494000000909E04B1CC4F80031675484F8047175
:104950000136B04540F24B81A8EB0603032B3778B4
:1049600001DD5F2F11D0D4F80011FF29EAD1D4E97D
:10497000423284F8FF9020469847D4F8283101331A
:10498000C4F8283100210123DDE773785F2BEAD1D9
:10499000B378552BE7D1F31C9845E4D9002005E006
:1049A0001746984507EB001001F013809A4613F85C
:1049B000017BA7F130025FFA82FCBCF1090FA7F17D
:1049C0004101EDD90529A7F1610200F2A284373F28
:1049D000E7E7C94FD4F8001107F1050A7B264FF02D
:1049E00000090AE00B460131BA45C4F80011E6544B
:1049F00084F8046111D017F8016FFF29F2D1D4E9CE
:104A0000423284F8FF9020469847D4F82831013389
:104A1000C4F8283101210023E6E7B849424606A838
:104A200007F0D2FF06A804F02BFA814608B306AEC1
:104A3000D4F80011B1444FF0000808E00B460131F2
:104A4000B145C4F80011E75484F8047111D0FF296E
:104A500016F8017BF2D1D4E9423284F8FF80204677
:104A60009847D4F828310133C4F8283101210023B4
:104A7000E6E7D4F80031FF2B0FD10026194684F861
:104A8000FF60D4E9423220469847D4F82831C4F870
:104A900000615A1CC4F8282133467D22591CC4F8F1
:104AA0000011E25484F804216B68D4F81C210398A7
:104AB000013B013AFEF72CB96B68D4F81C2103982E
:104AC000013B013AFEF724B905F108012046FBF746
:104AD000C3FE0246002800F0B78403782F2B00F0B5
:104AE000A884D4F810713B68C4F8103120463146D0
:104AF000FEF714F86B68D4F81C210398C4F8107101
:104B0000013B013AFEF704B96B68D4F81C21039805
:104B1000013B013AFEF7FCB8794E5F2706F1050923
:104B20004FF000080AE00B460131B145C4F800110E
:104B3000E75484F8047111D016F8017FFF29F2D1EF
:104B4000D4E9423284F8FF8020469847D4F82831CF
:104B50000133C4F8283101210023E6E76B68D4F85B
:104B60001C210398013B013AFEF7D2B8AA686349B9
:104B7000013206A807F028FF06A804F081F9814653
:104B800008B306AED4F80011B1444FF0000808E0B5
:104B90000B460131B145C4F80011E75484F80471A3
:104BA00011D0FF2916F8017BF2D1D4E9423284F802
:104BB000FF8020469847D4F828310133C4F82831C3
:104BC00001210023E6E76B68D4F81C210398013B20
:104BD000013AFEF79DB8D4F80011FEF7D0BA6B6821
:104BE000D4F81C210398013B013AFEF791B86B6899
:104BF000D4F81C210398013B013AFEF789B86B6891
:104C0000D4F81C210398013B013AFEF781B86B6888
:104C1000D4F81C210398013B013AFEF779B826F03D
:104C2000600605F10C02D4F814313146204601F03B
:104C3000B5FAAA68002A00F0CC8520463146FDF777
:104C40006DFF6B68D4F81C210398013B013AFEF715
:104C50005FB8926831462046FDF760FFD4F84831CE
:104C600013B1069BC4F8103194F804313C2B00F0CA
:104C70001085D4F80031FF2B0FD10027194684F896
:104C8000FF70D4E9423220469847D4F82831C4F85E
:104C900000715A1CC4F828213B46591C3C22C4F818
:104CA0000011E25484F80421AB683146DA682046EA
:104CB000FDF734FF94F804313E2B00F0CD84D4F896
:104CC0000031FF2B0FD10026194684F8FF60D4E98C
:104CD000423220469847D4F82831C4F800615A1C63
:104CE000C4F8282133463E22591CC4F80011E2546E
:104CF00084F80421FFF7F0BAA0210108801F010801
:104D000014210108F01F010893681F7C062F00F290
:104D1000BF81002F3EF489A8EB6893F80080B8F1BA
:104D2000000F7EF482A8BCF13E0F00F0F686EA6820
:104D300031462046023FFDF7F1FE042F00F21687B0
:104D4000DFE817F0C806A50698068B067E063146F2
:104D50002A46204600F01CFFFEF7FBB80022194649
:104D600084F8FF202046D4E942329847D4F828310D
:104D700001210B442922C4F82831C4F80011227003
:104D800084F804212B783E2B7EF47DA8D4F80021F2
:104D90002D23511CC4F80011A35484F80431FEF7EC
:104DA00072B8D4F80031FF2B0FD10026194684F8D1
:104DB000FF60D4E9423220469847D4F82831C4F83D
:104DC00000615A1CC4F8282133462022591CC4F81B
:104DD0000011E25484F80421FEF780BFD4F80031BA
:104DE000FF2B10D14FF00009194684F8FF90D4E949
:104DF000423220469847D4F82831C4F800915A1C12
:104E0000C4F828214B462022591CC4F80011E25452
:104E100084F80421FEF73FBFD8F80830D249D3F810
:104E200000A0504603F0C0FE3B7810B9032B00F001
:104E3000A085392B00F08B85CC49504603F0B4FE99
:104E40008146002800F038859AF80030732B2BD16A
:104E50009AF80130502B27D19AF8023023BB1E4616
:104E600003E0FF68002F00F0FA823B782F2B40F020
:104E7000F682BB68002B00F0F2821A784B2A18BF2A
:104E80000136EED199682046FBF7F6FC024648B1A0
:104E9000002204E0816829B1C068013210B10178B4
:104EA0002F29F7D01644DCE742463146204601F070
:104EB0007FFC9AF80030672B13D19AF80130732BDE
:104EC0000FD19AF8023063B93A4620463146FDF7D1
:104ED00025FE6B68D4F81C210398013B013AFDF7CD
:104EE00017BFA349504603F05FFE804600287EF4BA
:104EF000C0A9D4F80031FF2B0ED184F8FF00194669
:104F00002046D4E942329847D4F82831C4F80081C9
:104F10005A1CC4F828214346581C4FF0280CC4F8EA
:104F200000013A4604F803C03146204684F804C123
:104F3000FDF7F4FDD4F80031FF2B0FD10026194600
:104F400084F8FF60D4E9423220469847D4F82831EB
:104F5000C4F800615A1CC4F8282133462922591C80
:104F6000C4F80011E25484F804216B68D4F81C21C1
:104F70000398013B013AFDF7CBBE7E4FD4F80011F8
:104F800007F102090AE00B460131B945C4F80011E6
:104F900004F8038084F804813DF42EAFFF2917F84C
:104FA000018BF0D1D4E9423284F8FFA02046984723
:104FB000D4F828310133C4F8283101210023E4E773
:104FC0006D4FD4F8001107F105094FF0000A0AE00F
:104FD0000B460131B945C4F8001104F8038084F888
:104FE00004813EF4A7A8FF2917F8018BF0D1D4E97A
:104FF000423284F8FFA020469847D4F82831013384
:10500000C4F8283101210023E4E7D4F80031FF2B54
:105010000FD10027194684F8FF70D4E942322046A8
:105020009847D4F82831C4F800715A1CC4F82821D4
:105030003B46591C5B22C4F80011E25484F8042159
:10504000EA6831462046FDF769FDD4F80031FF2BB0
:105050000FD10026194684F8FF60D4E94232204679
:105060009847D4F82831C4F800615A1CC4F82821A4
:1050700033465D22591CC4F80011E25484F804211F
:105080006B68D4F81C210398013B013AFDF740BE40
:10509000072F7DF4CAAEEB68197800297DF4C5AE00
:1050A000D96801297DF4C1AEBCF13D0F7DF4BDAEE0
:1050B0009B681B78302B00F04C85312B7DF4B5AE0E
:1050C000042220462D49FBF767F96B68D4F81C21B0
:1050D0000398013B013AFDF71BBE012A3EF622A9C7
:1050E000042FACF1100B0CF1100A00F09D819BE82D
:1050F0000F008CE80F0000234AF81C8C4AF8183C7B
:10510000D8F80880C4F814C14AE905EB0137D44641
:10511000FEF7F1B86B68D4F81C210398013B013A03
:10512000FDF7F6BDD4F80031BB427FF4A7AB6B6846
:10513000D4F81C210398023FC4F80071013B013AE6
:10514000FDF7E6BDAA6820463146FDF7E7FC6B682F
:10515000D4F81C210398013B013AFDF7D9BD0F4655
:10516000A946FDF716BE00BF382101083C21010801
:10517000642401086C1F0108042101087021010842
:1051800026F06006FDF723BF0123C4F81831FDF7B0
:10519000C5BF06ABD4F81471C4F81431CDE907507B
:1051A000D4F810310697314620460993FDF7B6FC36
:1051B000089F069BC4F81431002F40F0EC83D4F80C
:1051C0000031FF2B0ED1194684F8FF70D4E942322A
:1051D00020469847D4F82831C4F800715A1CC4F806
:1051E00028213B462022591CC4F80011E25484F8BF
:1051F0000421FDF7ECBED34FD4F8001107F10D0ADE
:105200004FF0000B09E00B460131BA45C4F800111C
:1052100004F8039084F8049111D0FF2917F8019B3A
:10522000F1D1D4E9423284F8FFB020469847D4F84F
:1052300028310133C4F8283101210023E5E7D8F8EB
:105240000C20C149013206A807F0BEFB06A803F0F6
:1052500017FE814610B306AFD4F80011B9444FF0E1
:10526000000B09E00B460131B945C4F8001104F800
:1052700003A084F804A111D0FF2917F801ABF1D1E4
:10528000D4E9423284F8FFB020469847D4F8283158
:105290000133C4F8283101210023E5E7AB4FD4F8EE
:1052A000001107F1030A4FF0000B09E00B46013132
:1052B000BA45C4F8001104F8039084F8049111D0A1
:1052C000FF2917F8019BF1D1D4E9423284F8FFB0ED
:1052D00020469847D4F828310133C4F828310121F9
:1052E0000023E5E7D8F80880FDF78DBDFF297FF49E
:1052F0004DAD4FF00008D4E9423284F8FF802046DB
:105300009847D4F82831C4F800810133C4F8283113
:105310003CE5052A00F26783573FFFF742BBD4E91B
:105320004CC7002F40F3D381E646924604E09F42EB
:105330000EF1080E00F0CA815CF83320914503F1AC
:105340000103F4D10B4603E05B68002B00F095826B
:105350001A68914503D09542F6D18B42F4D009F1F9
:1053600008012046FBF778FA8146A0B1002799F89A
:1053700000302F2B7DF40FAED4F824110029FFF656
:10538000A3AA4846FBF756FA814600287DF403AEEF
:105390000FB1C4F810810123C4F818316B68D4F838
:1053A0001C210398013B013AFDF7B2BCAA6805F144
:1053B0000C033146204601F087FA0746002840F0EA
:1053C0004C82D5E902A2DAF80810D368086860496F
:1053D000D2F808B0D3E9029803F0E6FB002840F0C9
:1053E00000825A463146204601F01EFA52463146A6
:1053F000204601F0DDF94A463146204601F014FA14
:10540000544903222046FAF7C7FF42462046314658
:1054100001F00AFA6B68D4F81C210398013B013AA9
:10542000FDF776BCC4F814210123C4F81831FDF748
:10543000B1BFD4F824110029FFF653ABFBF7FAF9FA
:10544000024600287FF44DAB0123C4F818316B6885
:10545000D4F81C210398013B013AFDF759BC3A49A5
:10546000324606A807F0B0FA06A803F009FD074681
:1054700008B306AED4F8001137444FF0000909E034
:105480000B46591CB742C4F8001104F8038084F895
:10549000048110D0FF2916F8018BF1D1D4E94232F2
:1054A00084F8FF9020469847D4F828310133C4F897
:1054B00028310023E5E76B68D4F81C210398013BF1
:1054C000013AFDF725BC6B68D4F81C210398013B19
:1054D000013AFDF71DBC1B78A3F16301012903D933
:1054E000723B012B3DF6A2AB3146204601F060F93C
:1054F000D4F80031FF2B0FD10027194684F8FF7034
:10550000D4E9423220469847D4F82831C4F80071D3
:105510005A1CC4F828213B46591C3C22C4F80011EF
:10552000E25484F80421EB680B4F9A683146204618
:10553000FDF7F4FA07F10209D4F800114FF0000A60
:1055400016E000BF701F0108801F0108841F0108BA
:105550004C21010850210108402101080B46591C2B
:10556000B945C4F8001104F8038084F8048110D010
:10557000FF2917F8018BF1D1D4E9423284F8FFA05A
:1055800020469847D4F828310133C4F82831002345
:10559000E5E7EB683146DA682046FDF7BFFAD4F854
:1055A0000031FF2B0FD10026194684F8FF60D4E9A3
:1055B000423220469847D4F82831C4F800615A1C7A
:1055C000C4F8282133462922591CC4F80011E2549A
:1055D00084F804216B68D4F81C210398013B013A3C
:1055E000FDF796BBD9F80820FDF79BBBB5494046AF
:1055F00003F0DAFA002840F0C881EB683146DA6837
:10560000204601F011F9FDF778BB9A6891680129ED
:105610007DF41BAB526812783E2A7DF416ABD4F8A9
:105620000031FF2B0ED184F8FF0019462046D4E943
:1056300042329847D4F82831C4F800715A1CC4F893
:1056400028213B46591C2822C4F80011E25484F852
:105650000421AB68FDF7F9BAD4F80031FF2B0FD164
:105660000026194684F8FF60D4E942322046984764
:10567000D4F82831C4F800615A1CC4F828213346F4
:105680002022591CC4F80011E25484F80421FFF7C9
:1056900016BBD4F80031FF2B0FD10027194684F830
:1056A000FF70D4E9423220469847D4F82831C4F834
:1056B00000715A1CC4F828213B462022591CC4F80A
:1056C0000011E25484F80421FFF7D3BA5246D4F80B
:1056D00038319F4280F2AA817B1C0CEBC70EC4F8C4
:1056E00034314CF83790D4F810710EF1040E002FBD
:1056F00000F0A381D4E95013994201F1010C80F22A
:105700009581D4F83C31C4F840C103EBC1037968FA
:105710005960CEF800303F689E46E8E7AA683146F7
:10572000204601F081F8032220466749FAF734FE4B
:105730006B68D4F81C210398013B013AFDF7E8BAE5
:105740006249D9F8080007F061F900287EF499AAA7
:10575000EA6831462046FDF7E1F95D49022220461C
:10576000FAF71AFEFEF7D2BA9B689A68012A7DF40E
:10577000C9AA5B681B783E2B7DF4C4AAD4F800311B
:10578000FF2B0FD10026194684F8FF60D4E942327E
:1057900020469847D4F82831C4F800615A1CC4F850
:1057A000282133462922591CC4F80011E25484F8F8
:1057B00004216B68D4F81C210398013B013AFDF7E2
:1057C000A7BA6B68D4F81C210398013B013AFDF796
:1057D0009FBA6B68D4F81C210398013B013AFDF78E
:1057E00097BA3C4904222046FAF7D6FDDBF8083088
:1057F000F3B15A463146204601F016F8D4F800318C
:10580000FF2B0ED1194684F8FF70D4E942322046AE
:105810009847D4F82831C4F800715A1CC4F82821DC
:105820003B462022591CC4F80011E25484F804219C
:105830004A4631462046FDF771F9B8F1000F14D001
:1058400042462046314600F0EFFF6B68D4F81C2139
:105850000398013B013AFDF75BBA6B68D4F81C2151
:105860000398013B013AFDF753BA6B68D4F81C2149
:105870000398013B013AFDF74BBADEF80430D4F847
:105880001081C4F8103109F108012046FAF7E4FF4D
:10589000814600283FF47DAD012768E5D3681B7879
:1058A000292B1CBF0123C4F81831926831462046C9
:1058B00000F0BAFFFDF7DAB939462046FAF7DCFF07
:1058C00080B912E04421010894210108881F0108D1
:1058D000901F010854210108836833B1C06809F1A1
:1058E000010910B103782F2BF6D0A4494A4606A827
:1058F00007F06AF806A803F0C3FA00B306AE37183B
:105900004FF00008D4F8001116F8019BFF290DD1C3
:10591000D4E9423284F8FF8020469847D4F82831F1
:10592000C4F800810133C4F8283100214B1CB74270
:10593000C4F8003104F8019084F80491E2D16B6856
:10594000D4F81C210398013B013AFDF7E1B9BA688C
:105950003146204600F068FF42462046314600F0BE
:1059600027FF6B68D4F81C210398013B013AFDF72F
:10597000CFB9BB681A78012A7FF45EAAFA68127858
:10598000292A08BF1F46FFF757BA3A463146204634
:1059900000F00EFF31E66B68D4F81C210398013B40
:1059A000013AFDF7B5B9D8F80880B8F1000F3FF417
:1059B0003BADFDF79EBCEA6831462046FDF7AEF8E8
:1059C000089B009AC4F81421002B3DF49FABFDF70F
:1059D000A5BB5F27FEF7C7BF42463146204600F011
:1059E000E7FEFDF746BCD045F3D95F2FF1D1FF2884
:1059F0003EF6B9AFD4F80011FF29C7B20DD1D4E9F2
:105A0000423284F8FF9020469847D4F82831C4F8F1
:105A100000910133C4F8283100214B1CC4F8003137
:105A20005646675484F80471FEF792BF0123C4F808
:105A300018316B68013BFDF76BB9CEF800708EE44E
:105A4000032220464E49FAF7A7FC6B68D4F81C21C4
:105A50000398013B013AFDF75BB902222046494910
:105A6000FAF79AFC6B68D4F81C210398013B013AC1
:105A7000FDF74EB9022220464349FAF78DFC6B68C8
:105A8000D4F81C210398013B013AFDF741B9D4F841
:105A90000031FF2B0FD10026194684F8FF60D4E9AE
:105AA000423220469847D4F82831C4F800615A1C85
:105AB000C4F8282133466C22591CC4F80011E25462
:105AC00084F804216B68D4F81C210398013B013A47
:105AD000FDF71EB9D4F80031FF2B0FD1002619466F
:105AE00084F8FF60D4E9423220469847D4F8283140
:105AF000C4F800615A1CC4F8282133467522591C89
:105B0000C4F80011E25484F804216B68D4F81C2115
